{
  "address": "0x4C4f2bCb91d4663c207706c740097B90367445d4",
  "abi": [
    {
      "inputs": [
        {
          "internalType": "contract IVBase",
          "name": "_vBase",
          "type": "address"
        },
        {
          "internalType": "contract IVQuote",
          "name": "_vQuote",
          "type": "address"
        },
        {
          "internalType": "contract ICryptoSwap",
          "name": "_market",
          "type": "address"
        },
        {
          "internalType": "contract IClearingHouse",
          "name": "_clearingHouse",
          "type": "address"
        }
      ],
      "stateMutability": "nonpayable",
      "type": "constructor"
    },
    {
      "inputs": [],
      "name": "PRBMathSD59x18__AbsInputTooSmall",
      "type": "error"
    },
    {
      "inputs": [],
      "name": "PRBMathSD59x18__DivInputTooSmall",
      "type": "error"
    },
    {
      "inputs": [
        {
          "internalType": "uint256",
          "name": "rAbs",
          "type": "uint256"
        }
      ],
      "name": "PRBMathSD59x18__DivOverflow",
      "type": "error"
    },
    {
      "inputs": [],
      "name": "PRBMathSD59x18__MulInputTooSmall",
      "type": "error"
    },
    {
      "inputs": [
        {
          "internalType": "uint256",
          "name": "rAbs",
          "type": "uint256"
        }
      ],
      "name": "PRBMathSD59x18__MulOverflow",
      "type": "error"
    },
    {
      "inputs": [
        {
          "internalType": "uint256",
          "name": "prod1",
          "type": "uint256"
        }
      ],
      "name": "PRBMath__MulDivFixedPointOverflow",
      "type": "error"
    },
    {
      "inputs": [
        {
          "internalType": "uint256",
          "name": "prod1",
          "type": "uint256"
        },
        {
          "internalType": "uint256",
          "name": "denominator",
          "type": "uint256"
        }
      ],
      "name": "PRBMath__MulDivOverflow",
      "type": "error"
    },
    {
      "anonymous": false,
      "inputs": [
        {
          "indexed": true,
          "internalType": "address",
          "name": "user",
          "type": "address"
        },
        {
          "indexed": true,
          "internalType": "uint128",
          "name": "timeStamp",
          "type": "uint128"
        },
        {
          "indexed": false,
          "internalType": "enum LibPerpetual.Side",
          "name": "direction",
          "type": "uint8"
        },
        {
          "indexed": false,
          "internalType": "int256",
          "name": "notional",
          "type": "int256"
        },
        {
          "indexed": false,
          "internalType": "int256",
          "name": "amount",
          "type": "int256"
        }
      ],
      "name": "ClosePosition",
      "type": "event"
    },
    {
      "anonymous": false,
      "inputs": [
        {
          "indexed": false,
          "internalType": "uint256",
          "name": "vBaseAmount",
          "type": "uint256"
        }
      ],
      "name": "DustGenerated",
      "type": "event"
    },
    {
      "anonymous": false,
      "inputs": [
        {
          "indexed": true,
          "internalType": "uint256",
          "name": "blockNumber",
          "type": "uint256"
        },
        {
          "indexed": false,
          "internalType": "uint256",
          "name": "value",
          "type": "uint256"
        },
        {
          "indexed": false,
          "internalType": "bool",
          "name": "isPositive",
          "type": "bool"
        }
      ],
      "name": "FundingPayment",
      "type": "event"
    },
    {
      "anonymous": false,
      "inputs": [
        {
          "indexed": true,
          "internalType": "address",
          "name": "liquidatee",
          "type": "address"
        },
        {
          "indexed": true,
          "internalType": "address",
          "name": "liquidator",
          "type": "address"
        },
        {
          "indexed": false,
          "internalType": "uint128",
          "name": "timestamp",
          "type": "uint128"
        },
        {
          "indexed": false,
          "internalType": "uint256",
          "name": "notional",
          "type": "uint256"
        }
      ],
      "name": "LiquidationCall",
      "type": "event"
    },
    {
      "anonymous": false,
      "inputs": [
        {
          "indexed": true,
          "internalType": "address",
          "name": "liquidityProvider",
          "type": "address"
        },
        {
          "indexed": true,
          "internalType": "address",
          "name": "asset",
          "type": "address"
        },
        {
          "indexed": false,
          "internalType": "uint256",
          "name": "amount",
          "type": "uint256"
        }
      ],
      "name": "LiquidityProvided",
      "type": "event"
    },
    {
      "anonymous": false,
      "inputs": [
        {
          "indexed": true,
          "internalType": "address",
          "name": "liquidityProvider",
          "type": "address"
        },
        {
          "indexed": false,
          "internalType": "uint256",
          "name": "amount",
          "type": "uint256"
        }
      ],
      "name": "LiquidityRemoved",
      "type": "event"
    },
    {
      "anonymous": false,
      "inputs": [
        {
          "indexed": true,
          "internalType": "address",
          "name": "liquidityProvider",
          "type": "address"
        }
      ],
      "name": "LiquidityWithdrawn",
      "type": "event"
    },
    {
      "anonymous": false,
      "inputs": [
        {
          "indexed": false,
          "internalType": "string",
          "name": "errorMessage",
          "type": "string"
        }
      ],
      "name": "Log",
      "type": "event"
    },
    {
      "anonymous": false,
      "inputs": [
        {
          "indexed": true,
          "internalType": "address",
          "name": "user",
          "type": "address"
        },
        {
          "indexed": true,
          "internalType": "uint128",
          "name": "timeStamp",
          "type": "uint128"
        },
        {
          "indexed": false,
          "internalType": "enum LibPerpetual.Side",
          "name": "direction",
          "type": "uint8"
        },
        {
          "indexed": false,
          "internalType": "int256",
          "name": "notional",
          "type": "int256"
        },
        {
          "indexed": false,
          "internalType": "int256",
          "name": "amount",
          "type": "int256"
        }
      ],
      "name": "OpenPosition",
      "type": "event"
    },
    {
      "anonymous": false,
      "inputs": [
        {
          "indexed": true,
          "internalType": "address",
          "name": "user",
          "type": "address"
        },
        {
          "indexed": false,
          "internalType": "int256",
          "name": "amount",
          "type": "int256"
        }
      ],
      "name": "Settlement",
      "type": "event"
    },
    {
      "anonymous": false,
      "inputs": [
        {
          "indexed": true,
          "internalType": "address",
          "name": "burner",
          "type": "address"
        },
        {
          "indexed": false,
          "internalType": "uint256",
          "name": "vBaseAmount",
          "type": "uint256"
        },
        {
          "indexed": false,
          "internalType": "uint256",
          "name": "liquidity",
          "type": "uint256"
        }
      ],
      "name": "TokenDonated",
      "type": "event"
    },
    {
      "anonymous": false,
      "inputs": [
        {
          "indexed": false,
          "internalType": "uint256",
          "name": "timeStamp",
          "type": "uint256"
        },
        {
          "indexed": false,
          "internalType": "int256",
          "name": "newOracleTwap",
          "type": "int256"
        },
        {
          "indexed": false,
          "internalType": "int256",
          "name": "newMarketTwap",
          "type": "int256"
        }
      ],
      "name": "TwapUpdated",
      "type": "event"
    },
    {
      "inputs": [],
      "name": "MAX_TRADE_SIZE",
      "outputs": [
        {
          "internalType": "uint256",
          "name": "",
          "type": "uint256"
        }
      ],
      "stateMutability": "view",
      "type": "function"
    },
    {
      "inputs": [],
      "name": "SENSITIVITY",
      "outputs": [
        {
          "internalType": "int256",
          "name": "",
          "type": "int256"
        }
      ],
      "stateMutability": "view",
      "type": "function"
    },
    {
      "inputs": [],
      "name": "TWAP_FREQUENCY",
      "outputs": [
        {
          "internalType": "uint256",
          "name": "",
          "type": "uint256"
        }
      ],
      "stateMutability": "view",
      "type": "function"
    },
    {
      "inputs": [],
      "name": "VBASE_INDEX",
      "outputs": [
        {
          "internalType": "uint256",
          "name": "",
          "type": "uint256"
        }
      ],
      "stateMutability": "view",
      "type": "function"
    },
    {
      "inputs": [],
      "name": "VQUOTE_INDEX",
      "outputs": [
        {
          "internalType": "uint256",
          "name": "",
          "type": "uint256"
        }
      ],
      "stateMutability": "view",
      "type": "function"
    },
    {
      "inputs": [],
      "name": "clearingHouse",
      "outputs": [
        {
          "internalType": "contract IClearingHouse",
          "name": "",
          "type": "address"
        }
      ],
      "stateMutability": "view",
      "type": "function"
    },
    {
      "inputs": [
        {
          "internalType": "address",
          "name": "account",
          "type": "address"
        },
        {
          "internalType": "uint256",
          "name": "tentativeVQuoteAmount",
          "type": "uint256"
        },
        {
          "internalType": "uint256",
          "name": "minAmount",
          "type": "uint256"
        }
      ],
      "name": "closePosition",
      "outputs": [
        {
          "internalType": "int256",
          "name": "",
          "type": "int256"
        }
      ],
      "stateMutability": "nonpayable",
      "type": "function"
    },
    {
      "inputs": [],
      "name": "getBaseDust",
      "outputs": [
        {
          "internalType": "uint256",
          "name": "",
          "type": "uint256"
        }
      ],
      "stateMutability": "view",
      "type": "function"
    },
    {
      "inputs": [
        {
          "internalType": "uint256",
          "name": "vQuoteAmountToSpend",
          "type": "uint256"
        }
      ],
      "name": "getExpectedVBaseAmount",
      "outputs": [
        {
          "internalType": "uint256",
          "name": "",
          "type": "uint256"
        }
      ],
      "stateMutability": "view",
      "type": "function"
    },
    {
      "inputs": [
        {
          "internalType": "uint256",
          "name": "vBaseAmountToSpend",
          "type": "uint256"
        }
      ],
      "name": "getExpectedVQuoteAmount",
      "outputs": [
        {
          "internalType": "uint256",
          "name": "",
          "type": "uint256"
        }
      ],
      "stateMutability": "view",
      "type": "function"
    },
    {
      "inputs": [
        {
          "internalType": "address",
          "name": "account",
          "type": "address"
        }
      ],
      "name": "getFundingPayments",
      "outputs": [
        {
          "internalType": "int256",
          "name": "",
          "type": "int256"
        }
      ],
      "stateMutability": "view",
      "type": "function"
    },
    {
      "inputs": [],
      "name": "getGlobalPosition",
      "outputs": [
        {
          "components": [
            {
              "internalType": "uint128",
              "name": "timeOfLastTrade",
              "type": "uint128"
            },
            {
              "internalType": "uint128",
              "name": "timeOfLastFunding",
              "type": "uint128"
            },
            {
              "internalType": "int256",
              "name": "cumFundingRate",
              "type": "int256"
            }
          ],
          "internalType": "struct LibPerpetual.GlobalPosition",
          "name": "",
          "type": "tuple"
        }
      ],
      "stateMutability": "view",
      "type": "function"
    },
    {
      "inputs": [
        {
          "internalType": "address",
          "name": "account",
          "type": "address"
        }
      ],
      "name": "getLpPosition",
      "outputs": [
        {
          "components": [
            {
              "internalType": "int256",
              "name": "openNotional",
              "type": "int256"
            },
            {
              "internalType": "int256",
              "name": "positionSize",
              "type": "int256"
            },
            {
              "internalType": "int256",
              "name": "cumFundingRate",
              "type": "int256"
            },
            {
              "internalType": "uint256",
              "name": "liquidityBalance",
              "type": "uint256"
            }
          ],
          "internalType": "struct LibPerpetual.UserPosition",
          "name": "",
          "type": "tuple"
        }
      ],
      "stateMutability": "view",
      "type": "function"
    },
    {
      "inputs": [],
      "name": "getMarketTwap",
      "outputs": [
        {
          "internalType": "int256",
          "name": "",
          "type": "int256"
        }
      ],
      "stateMutability": "view",
      "type": "function"
    },
    {
      "inputs": [],
      "name": "getOracleTwap",
      "outputs": [
        {
          "internalType": "int256",
          "name": "",
          "type": "int256"
        }
      ],
      "stateMutability": "view",
      "type": "function"
    },
    {
      "inputs": [
        {
          "internalType": "address",
          "name": "account",
          "type": "address"
        }
      ],
      "name": "getTraderPosition",
      "outputs": [
        {
          "components": [
            {
              "internalType": "int256",
              "name": "openNotional",
              "type": "int256"
            },
            {
              "internalType": "int256",
              "name": "positionSize",
              "type": "int256"
            },
            {
              "internalType": "int256",
              "name": "cumFundingRate",
              "type": "int256"
            },
            {
              "internalType": "uint256",
              "name": "liquidityBalance",
              "type": "uint256"
            }
          ],
          "internalType": "struct LibPerpetual.UserPosition",
          "name": "",
          "type": "tuple"
        }
      ],
      "stateMutability": "view",
      "type": "function"
    },
    {
      "inputs": [
        {
          "internalType": "address",
          "name": "account",
          "type": "address"
        }
      ],
      "name": "getUnrealizedPnL",
      "outputs": [
        {
          "internalType": "int256",
          "name": "",
          "type": "int256"
        }
      ],
      "stateMutability": "view",
      "type": "function"
    },
    {
      "inputs": [],
      "name": "indexPrice",
      "outputs": [
        {
          "internalType": "int256",
          "name": "",
          "type": "int256"
        }
      ],
      "stateMutability": "view",
      "type": "function"
    },
    {
      "inputs": [
        {
          "internalType": "address",
          "name": "liquidatee",
          "type": "address"
        },
        {
          "internalType": "uint256",
          "name": "tentativeVQuoteAmount",
          "type": "uint256"
        }
      ],
      "name": "liquidate",
      "outputs": [
        {
          "internalType": "int256",
          "name": "",
          "type": "int256"
        }
      ],
      "stateMutability": "nonpayable",
      "type": "function"
    },
    {
      "inputs": [],
      "name": "market",
      "outputs": [
        {
          "internalType": "contract ICryptoSwap",
          "name": "",
          "type": "address"
        }
      ],
      "stateMutability": "view",
      "type": "function"
    },
    {
      "inputs": [],
      "name": "marketCumulativeAmount",
      "outputs": [
        {
          "internalType": "int256",
          "name": "",
          "type": "int256"
        }
      ],
      "stateMutability": "view",
      "type": "function"
    },
    {
      "inputs": [],
      "name": "marketCumulativeAmountAtBeginningOfPeriod",
      "outputs": [
        {
          "internalType": "int256",
          "name": "",
          "type": "int256"
        }
      ],
      "stateMutability": "view",
      "type": "function"
    },
    {
      "inputs": [],
      "name": "marketPrice",
      "outputs": [
        {
          "internalType": "uint256",
          "name": "",
          "type": "uint256"
        }
      ],
      "stateMutability": "view",
      "type": "function"
    },
    {
      "inputs": [],
      "name": "marketPriceOracle",
      "outputs": [
        {
          "internalType": "uint256",
          "name": "",
          "type": "uint256"
        }
      ],
      "stateMutability": "view",
      "type": "function"
    },
    {
      "inputs": [],
      "name": "marketTwap",
      "outputs": [
        {
          "internalType": "int256",
          "name": "",
          "type": "int256"
        }
      ],
      "stateMutability": "view",
      "type": "function"
    },
    {
      "inputs": [
        {
          "internalType": "address",
          "name": "account",
          "type": "address"
        },
        {
          "internalType": "uint256",
          "name": "amount",
          "type": "uint256"
        },
        {
          "internalType": "enum LibPerpetual.Side",
          "name": "direction",
          "type": "uint8"
        },
        {
          "internalType": "uint256",
          "name": "minAmount",
          "type": "uint256"
        }
      ],
      "name": "openPosition",
      "outputs": [
        {
          "internalType": "int256",
          "name": "",
          "type": "int256"
        },
        {
          "internalType": "int256",
          "name": "",
          "type": "int256"
        }
      ],
      "stateMutability": "nonpayable",
      "type": "function"
    },
    {
      "inputs": [],
      "name": "oracleCumulativeAmount",
      "outputs": [
        {
          "internalType": "int256",
          "name": "",
          "type": "int256"
        }
      ],
      "stateMutability": "view",
      "type": "function"
    },
    {
      "inputs": [],
      "name": "oracleCumulativeAmountAtBeginningOfPeriod",
      "outputs": [
        {
          "internalType": "int256",
          "name": "",
          "type": "int256"
        }
      ],
      "stateMutability": "view",
      "type": "function"
    },
    {
      "inputs": [],
      "name": "oracleTwap",
      "outputs": [
        {
          "internalType": "int256",
          "name": "",
          "type": "int256"
        }
      ],
      "stateMutability": "view",
      "type": "function"
    },
    {
      "inputs": [
        {
          "internalType": "address",
          "name": "account",
          "type": "address"
        },
        {
          "internalType": "uint256",
          "name": "wadAmount",
          "type": "uint256"
        }
      ],
      "name": "provideLiquidity",
      "outputs": [
        {
          "internalType": "uint256",
          "name": "",
          "type": "uint256"
        }
      ],
      "stateMutability": "nonpayable",
      "type": "function"
    },
    {
      "inputs": [
        {
          "internalType": "address",
          "name": "account",
          "type": "address"
        },
        {
          "internalType": "uint256",
          "name": "amount",
          "type": "uint256"
        }
      ],
      "name": "removeLiquidity",
      "outputs": [],
      "stateMutability": "nonpayable",
      "type": "function"
    },
    {
      "inputs": [
        {
          "internalType": "address",
          "name": "account",
          "type": "address"
        },
        {
          "internalType": "uint256",
          "name": "tentativeVQuoteAmount",
          "type": "uint256"
        }
      ],
      "name": "settleAndWithdrawLiquidity",
      "outputs": [
        {
          "internalType": "int256",
          "name": "profit",
          "type": "int256"
        }
      ],
      "stateMutability": "nonpayable",
      "type": "function"
    },
    {
      "inputs": [],
      "name": "updateGenericProtocolState",
      "outputs": [],
      "stateMutability": "nonpayable",
      "type": "function"
    },
    {
      "inputs": [],
      "name": "updateTwap",
      "outputs": [],
      "stateMutability": "nonpayable",
      "type": "function"
    },
    {
      "inputs": [],
      "name": "vBase",
      "outputs": [
        {
          "internalType": "contract IVBase",
          "name": "",
          "type": "address"
        }
      ],
      "stateMutability": "view",
      "type": "function"
    },
    {
      "inputs": [],
      "name": "vQuote",
      "outputs": [
        {
          "internalType": "contract IVQuote",
          "name": "",
          "type": "address"
        }
      ],
      "stateMutability": "view",
      "type": "function"
    }
  ],
  "transactionHash": "0xa41ae5db90098439d292e68fbcbf87103fedc347447d03434165d248c9247331",
  "args": [
    "0x457939907dfd28cF59290b0bad4eb6f9744d83Bf",
    "0x02B8844089624c8D6d65610a4f5b7947b35d316A",
    "0xFD9bE7281B67A9B2D8A85e83c507a846561E1900",
    "0xfA4A9F6852afD342581F2c59A3c9897C6b090Fa9"
  ],
  "solcInputHash": "5aae07588bd28a3dafa9abd2bee6c482",
  "bytecode": "0x60806040523480156200001157600080fd5b5060405162002e0e38038062002e0e8339810160408190526200003491620003fa565b600080546001600160a01b03199081166001600160a01b03878116918217909355600180548316878516179055600380548316868516908117909155600280549093169385169390931790915560405163095ea7b360e01b8152600481019290925260001960248301529063095ea7b390604401602060405180830381600087803b158015620000c357600080fd5b505af1158015620000d8573d6000803e3d6000fd5b505050506040513d601f19601f82011682018060405250810190620000fe9190620003d1565b6200016a5760405162461bcd60e51b815260206004820152603160248201527f4e4f20415050524f56414c2e20544f444f3a20504c5a204348414e47452054486044820152701254c81513c8111554925391c810d05313607a1b60648201526084015b60405180910390fd5b60015460035460405163095ea7b360e01b81526001600160a01b039182166004820152600019602482015291169063095ea7b390604401602060405180830381600087803b158015620001bc57600080fd5b505af1158015620001d1573d6000803e3d6000fd5b505050506040513d601f19601f82011682018060405250810190620001f79190620003d1565b620002335760405162461bcd60e51b815260206004820152600b60248201526a1393c81054141493d5905360aa1b604482015260640162000161565b6000846001600160a01b03166358c0994a6040518163ffffffff1660e01b815260040160206040518083038186803b1580156200026f57600080fd5b505afa15801562000284573d6000803e3d6000fd5b505050506040513d601f19601f82011682018060405250810190620002aa919062000461565b9050600062000338846001600160a01b031663c146bf946040518163ffffffff1660e01b815260040160206040518083038186803b158015620002ec57600080fd5b505afa15801562000301573d6000803e3d6000fd5b505050506040513d601f19601f8201168201806040525081019062000327919062000461565b6200036160201b620017de1760201c565b600a9290925550600d5550505050426001600160801b0316600160801b81021760045562000493565b60006001600160ff1b03821115620003cd5760405162461bcd60e51b815260206004820152602860248201527f53616665436173743a2076616c756520646f65736e27742066697420696e2061604482015267371034b73a191a9b60c11b606482015260840162000161565b5090565b600060208284031215620003e3578081fd5b81518015158114620003f3578182fd5b9392505050565b6000806000806080858703121562000410578283fd5b84516200041d816200047a565b602086015190945062000430816200047a565b604086015190935062000443816200047a565b606086015190925062000456816200047a565b939692955090935050565b60006020828403121562000473578081fd5b5051919050565b6001600160a01b03811681146200049057600080fd5b50565b61296b80620004a36000396000f3fe608060405234801561001057600080fd5b506004361061021c5760003560e01c80638516e6dc11610125578063bad5e0e6116100ad578063cefc49931161007c578063cefc499314610487578063d57ba73c1461049a578063db884c0d146104a2578063dd027c1c146104aa578063f7d245da146104b357600080fd5b8063bad5e0e614610450578063bcbaf48714610458578063bf02e92f1461046b578063c5f1916c1461047457600080fd5b8063a201ccf6116100f4578063a201ccf61461040a578063a42d8b6b1461041d578063acdb520814610430578063b0aae7231461043e578063b888a8791461044757600080fd5b80638516e6dc146103855780639027b59e1461038f5780639b497ec8146103f8578063a1c5a4901461040157600080fd5b80635fea6120116101a85780637532792d116101775780637532792d14610302578063793962d8146103155780637a8f15eb1461035b5780637f564fea1461036a57806380f556051461037257600080fd5b80635fea6120146102cc57806360551d5f146102df5780636eea8dab146102e7578063704a0c70146102fa57600080fd5b806345a15388116101ef57806345a15388146102785780634bc36bd6146102805780634fa9c4db14610293578063508fbda6146102a6578063544305bf146102b957600080fd5b80630af968001461022157806310bace8c14610251578063214c302e146102675780632fda593c1461026f575b600080fd5b600254610234906001600160a01b031681565b6040516001600160a01b0390911681526020015b60405180910390f35b6102596104db565b604051908152602001610248565b600754610259565b610259600c5481565b610259610567565b600154610234906001600160a01b031681565b6102596102a1366004612695565b6105ac565b6102596102b436600461260a565b61066a565b6102596102c736600461260a565b6106f6565b6102596102da366004612624565b610773565b610259610b76565b6102596102f5366004612624565b610bbb565b610259600181565b6102596103103660046126df565b610c4e565b61032861032336600461260a565b610cda565b60405161024891908151815260208083015190820152604080830151908201526060918201519181019190915260800190565b610259670de0b6b3a764000081565b600a54610259565b600354610234906001600160a01b031681565b61038d610d53565b005b60408051606080820183526000808352602080840182905292840152825180820184526004546001600160801b03808216808452600160801b90920481168386019081526005549387019384528651928352511693810193909352519282019290925201610248565b610259600d5481565b61025960095481565b61038d610418366004612624565b610eb7565b61025961042b3660046126df565b6114a2565b61025966b1a2bc2ec5000081565b61025960085481565b610259600b5481565b61038d6114e2565b610259610466366004612624565b61150e565b610259600a5481565b600054610234906001600160a01b031681565b61032861049536600461260a565b611575565b600d54610259565b610259600081565b61025961038481565b6104c66104c136600461264d565b6115ee565b60408051928352602083019190915201610248565b60008060009054906101000a90046001600160a01b03166001600160a01b03166358c0994a6040518163ffffffff1660e01b815260040160206040518083038186803b15801561052a57600080fd5b505afa15801561053e573d6000803e3d6000fd5b505050506040513d601f19601f8201168201806040525081019061056291906126c7565b905090565b60035460408051633051afe560e21b815290516000926001600160a01b03169163c146bf94916004808301926020929190829003018186803b15801561052a57600080fd5b6001600160a01b0383166000908152600e60205260408120805460049061061a5760405162461bcd60e51b815260206004820152601c60248201527f4e6f20706f736974696f6e2063757272656e746c79206f70656e65640000000060448201526064015b60405180910390fd5b6106226114e2565b60006106308383888861184c565b6001600160a01b0388166000908152600e6020526040812081815560018101829055600281018290556003015593505050505b9392505050565b6001600160a01b0381166000908152600e60209081526040808320815160808101835281548152600182015481850152600282015481840152600390910154606080830191909152825190810183526004546001600160801b038082168352600160801b909104169381019390935260055491830191909152906106ee8282611983565b949350505050565b6001600160a01b0381166000908152600e6020908152604080832081516080810183528154815260018201549381019390935260028101549183019190915260030154606082015281610748600d5490565b9050600061075a836020015183611a0b565b835190915061076a908290612799565b95945050505050565b6002546000906001600160a01b031633146107a05760405162461bcd60e51b81526004016106119061273b565b816107db5760405162461bcd60e51b815260206004820152600b60248201526a16995c9bc8185b5bdd5b9d60aa1b6044820152606401610611565b6001600160a01b0383166000908152600f6020526040902060030154156108445760405162461bcd60e51b815260206004820152601d60248201527f4861732070726f7669646564206c6971756964697479206265666f72650000006044820152606401610611565b60006006546000141561086857610859610567565b90506108636114e2565b61096b565b600354604051634903b0d160e01b815260006004820152610968916001600160a01b031690634903b0d19060240160206040518083038186803b1580156108ae57600080fd5b505afa1580156108c2573d6000803e3d6000fd5b505050506040513d601f19601f820116820180604052508101906108e691906126c7565b600354604051634903b0d160e01b8152600160048201526001600160a01b0390911690634903b0d1906024015b60206040518083038186803b15801561092b57600080fd5b505afa15801561093f573d6000803e3d6000fd5b505050506040513d601f19601f8201168201806040525081019061096391906126c7565b611a17565b90505b60006109778483611a17565b60015460405163140e25ad60e31b8152600481018790529192506001600160a01b03169063a0712d6890602401600060405180830381600087803b1580156109be57600080fd5b505af11580156109d2573d6000803e3d6000fd5b505060005460405163140e25ad60e31b8152600481018590526001600160a01b03909116925063a0712d689150602401600060405180830381600087803b158015610a1c57600080fd5b505af1158015610a30573d6000803e3d6000fd5b5050600354604080518082018252888152602081018690529051630b4c7e4d60e01b8152600094506001600160a01b039092169250630b4c7e4d91610a7a91908590600401612720565b602060405180830381600087803b158015610a9457600080fd5b505af1158015610aa8573d6000803e3d6000fd5b505050506040513d601f19601f82011682018060405250810190610acc91906126c7565b90506040518060800160405280610ae2876117de565b610aeb90612905565b8152602001610af9846117de565b610b0290612905565b815260055460208083019190915260409182018490526001600160a01b0389166000908152600f82528281208451815591840151600183015591830151600282015560609092015160039092019190915560068054839290610b659084906127da565b909155509193505050505b92915050565b600354604080516386fc88d360e01b815290516000926001600160a01b0316916386fc88d3916004808301926020929190829003018186803b15801561052a57600080fd5b6002546000906001600160a01b03163314610be85760405162461bcd60e51b81526004016106119061273b565b6001600160a01b0383166000908152600f602052604090206004610c0a6114e2565b610c17828286600061184c565b6001600160a01b039095166000908152600f6020526040812081815560018101829055600281018290556003015550929392505050565b60035460405163556d6e9f60e01b81526000600482018190526001602483015260448201849052916001600160a01b03169063556d6e9f906064015b60206040518083038186803b158015610ca257600080fd5b505afa158015610cb6573d6000803e3d6000fd5b505050506040513d601f19601f82011682018060405250810190610b7091906126c7565b610d056040518060800160405280600081526020016000815260200160008152602001600081525090565b506001600160a01b03166000908152600e6020908152604091829020825160808101845281548152600182015492810192909252600281015492820192909252600390910154606082015290565b6004544290600090610d7790610d72906001600160801b0316846128ee565b6117de565b90506000610d836104db565b9050610d8f828261282c565b600854610d9c9190612799565b6008556000610dac610d72610567565b9050610db8838261282c565b600b54610dc59190612799565b600b55600454600090610de890600160801b90046001600160801b0316426128ee565b90506103848110610eb057610dfc816117de565b600954600854610e0c91906128af565b610e1691906127f2565b600a55610e22816117de565b600c54600b54610e3291906128af565b610e3c91906127f2565b600d819055600854600955600b54600c55600480546001600160801b03908116600160801b429283160217909155600a546040805192835260208301919091528101919091527f2da2327ef0b8399af5cbcc8efd04003d712631ecc4c1eb11231cc6d840f5275e9060600160405180910390a15b5050505050565b6002546001600160a01b03163314610ee15760405162461bcd60e51b81526004016106119061273b565b6001600160a01b0382166000908152600f602052604090206003810154821115610f4d5760405162461bcd60e51b815260206004820152601d60248201527f4e6f7420656e6f756768206c69717569646974792070726f76696465640000006044820152606401610611565b81816003016000828254610f6191906128ee565b925050819055508160066000828254610f7a91906128ee565b90915550506001546040516370a0823160e01b8152306004820152600091829182916001600160a01b0316906370a082319060240160206040518083038186803b158015610fc757600080fd5b505afa158015610fdb573d6000803e3d6000fd5b505050506040513d601f19601f82011682018060405250810190610fff91906126c7565b600080546040516370a0823160e01b815230600482015292935090916001600160a01b03909116906370a082319060240160206040518083038186803b15801561104857600080fd5b505afa15801561105c573d6000803e3d6000fd5b505050506040513d601f19601f8201168201806040525081019061108091906126c7565b6003546040805180820182526000808252602082015290516316cd8e2760e21b81529293506001600160a01b0390911691635b36389c916110c6918a9190600401612785565b600060405180830381600087803b1580156110e057600080fd5b505af11580156110f4573d6000803e3d6000fd5b50506001546003546040516370a0823160e01b81526001600160a01b03918216600482015260009450911691506370a082319060240160206040518083038186803b15801561114257600080fd5b505afa158015611156573d6000803e3d6000fd5b505050506040513d601f19601f8201168201806040525081019061117a91906126c7565b116111be5760405162461bcd60e51b8152602060048201526014602482015273165bdd48189c9bdad9481d1a19481b585c9ad95d60621b6044820152606401610611565b600080546003546040516370a0823160e01b81526001600160a01b0391821660048201529116906370a082319060240160206040518083038186803b15801561120657600080fd5b505afa15801561121a573d6000803e3d6000fd5b505050506040513d601f19601f8201168201806040525081019061123e91906126c7565b116112825760405162461bcd60e51b8152602060048201526014602482015273165bdd48189c9bdad9481d1a19481b585c9ad95d60621b6044820152606401610611565b6001546040516370a0823160e01b81523060048201526000916001600160a01b0316906370a082319060240160206040518083038186803b1580156112c657600080fd5b505afa1580156112da573d6000803e3d6000fd5b505050506040513d601f19601f820116820180604052508101906112fe91906126c7565b600080546040516370a0823160e01b815230600482015292935090916001600160a01b03909116906370a082319060240160206040518083038186803b15801561134757600080fd5b505afa15801561135b573d6000803e3d6000fd5b505050506040513d601f19601f8201168201806040525081019061137f91906126c7565b905061138b84836128ee565b945061139783826128ee565b600154604051630852cd8d60e31b8152600481018890529197506001600160a01b0316906342966c6890602401600060405180830381600087803b1580156113de57600080fd5b505af11580156113f2573d6000803e3d6000fd5b5050600054604051630852cd8d60e31b8152600481018a90526001600160a01b0390911692506342966c689150602401600060405180830381600087803b15801561143c57600080fd5b505af1158015611450573d6000803e3d6000fd5b5050505050505050611461816117de565b8360000160008282546114749190612799565b909155506114839050826117de565b8360010160008282546114969190612799565b90915550505050505050565b60035460405163556d6e9f60e01b81526001600482015260006024820181905260448201849052916001600160a01b03169063556d6e9f90606401610c8a565b6004805442906001600160801b03168082111561150957611501610d53565b611509611a23565b505050565b6002546000906001600160a01b0316331461153b5760405162461bcd60e51b81526004016106119061273b565b6115436114e2565b6001600160a01b0383166000908152600e602052604081209060049061156b8383878461184c565b9695505050505050565b6115a06040518060800160405280600081526020016000815260200160008152602001600081525090565b506001600160a01b03166000908152600f6020908152604091829020825160808101845281548152600182015492810192909252600281015492820192909252600390910154606082015290565b60025460009081906001600160a01b0316331461161d5760405162461bcd60e51b81526004016106119061273b565b6000851161166d5760405162461bcd60e51b815260206004820152601860248201527f54686520616d6f756e742063616e2774206265206e756c6c00000000000000006044820152606401610611565b6001600160a01b0386166000908152600e6020526040902054156117075760405162461bcd60e51b8152602060048201526044602482018190527f43616e6e6f74206f70656e206120706f736974696f6e2077697468206f6e6520908201527f616c7265616479206f70656e6564206f72206c69717569646974792070726f766064820152631a59195960e21b608482015260a401610611565b61170f6114e2565b60008085600181111561173257634e487b7160e01b600052602160045260246000fd5b1461173e576000611741565b60015b9050600080611751888488611af0565b91509150604051806080016040528083815260200182815260200160046001015481526020016000815250600e60008b6001600160a01b03166001600160a01b031681526020019081526020016000206000820151816000015560208201518160010155604082015181600201556060820151816003015590505081819450945050505094509492505050565b60006001600160ff1b038211156118485760405162461bcd60e51b815260206004820152602860248201527f53616665436173743a2076616c756520646f65736e27742066697420696e2061604482015267371034b73a191a9b60c11b6064820152608401610611565b5090565b6000806000866001015412611862576000611865565b60015b90508015611945576000611878600d5490565b90506000876001015461188a90612905565b905060006118988383611a0b565b905060006118c16118bb836118ac8b6117de565b6118b691906128af565b611c0f565b83611c1a565b90506706f05b59d3b2000081126119405760405162461bcd60e51b815260206004820152603e60248201527f416d6f756e74207375626d697474656420746f6f206661722066726f6d20746860448201527f65206d61726b6574207072696365206f662074686520706f736974696f6e00006064820152608401610611565b505050505b61194f8686611c26565b6119599083612799565b9150856000015461196f87600101548686611ce9565b6119799190612799565b61156b9083612799565b6000806000905060008085602001511361199e5760006119a1565b60015b90508360400151856040015114611a035780156119d357836040015185604001516119cc91906128af565b91506119ea565b846040015184604001516119e791906128af565b91505b611a00826119fb8760000151611c0f565b611a0b565b92505b505092915050565b60006106638383611e75565b60006106638383611f3a565b6004426000611a31600d5490565b90506000611a3e600a5490565b90506000611a4f6118bb83856128af565b8554909150600090611a6e90610d72906001600160801b0316876128ee565b90506000611a7c838361282c565b90506201518082611a95670de0b6b3a764000084611a0b565b611a9f919061282c565b611aa991906127f2565b876001016000828254611abc9190612799565b909155505086546fffffffffffffffffffffffffffffffff19166001600160801b0396909616959095179095555050505050565b6000808315611b825766b1a2bc2ec50000611b0c866000611f4f565b1115611b5a5760405162461bcd60e51b815260206004820152601a60248201527f54726164652073697a652065786365656473206d6178696d756d0000000000006044820152606401610611565b611b63856117de565b611b6c90612905565b9150611b7b610d728685611f87565b9050611c07565b66b1a2bc2ec50000611b95866001611f4f565b1115611be35760405162461bcd60e51b815260206004820152601a60248201527f54726164652073697a652065786365656473206d6178696d756d0000000000006044820152606401610611565b611bf0610d7286856120e4565b9150611bfb856117de565b611c0490612905565b90505b935093915050565b6000610b708261220b565b60006106638383612247565b815460009015611cd757604080516080810182528454815260018086015460208084019190915260028701548385015260038701546060808501919091528451908101855286546001600160801b038082168352600160801b90910416918101919091529085015492810192909252611c9e91611983565b60405181815290915033907f80e0390293518f32f7dd0263110e1ad3993a790da199ee8d2d931eb66265bd9b9060200160405180910390a25b60019091015460029092019190915590565b60008060008513611cfb576000611cfe565b60015b9050600081611d1d57611d18611d1387612905565b61230d565b611d26565b611d268661230d565b90508115611d4d576000611d3a82866120e4565b9050611d45816117de565b935050611e6c565b6000611d598686611f87565b905081811015611dc05760405162461bcd60e51b815260206004820152602c60248201527f4e6f7420656e6f7567682072657475726e65642c2070726f706f73656420616d60448201526b6f756e7420746f6f206c6f7760a01b6064820152608401610611565b6000611dcc83836128ee565b905060008115611e4157611ddf8261235f565b15611df657611def8260006120e4565b9050611e41565b6040518281527f56dd3b38618f9202d3cd3e3b1b0b979b53c56ca0b3847420ce3b2f2cc2cff7df9060200160405180910390a18160076000828254611e3b91906127da565b90915550505b611e4a816117de565b611e53896117de565b611e5c90612905565b611e669190612799565b95505050505b50509392505050565b6000600160ff1b831480611e8c5750600160ff1b82145b15611eaa57604051630d01a11b60e21b815260040160405180910390fd5b60008060008512611ebb5784611ec0565b846000035b915060008412611ed05783611ed5565b836000035b90506000611ee38383612455565b90506001600160ff1b03811115611f105760405163bf79e8d960e01b815260048101829052602401610611565b600019808713908613808218600114611f295782611f2e565b826000035b98975050505050505050565b600061066383670de0b6b3a764000084612517565b600354604051634903b0d160e01b8152600481018390526000916106639185916001600160a01b031690634903b0d190602401610913565b60015460405163140e25ad60e31b8152600481018490526000916001600160a01b03169063a0712d6890602401600060405180830381600087803b158015611fce57600080fd5b505af1158015611fe2573d6000803e3d6000fd5b5050600354604051630b68372160e31b815260006004820181905260016024830152604482018890526064820187905293506001600160a01b039091169150635b41b90890608401602060405180830381600087803b15801561204457600080fd5b505af1158015612058573d6000803e3d6000fd5b505050506040513d601f19601f8201168201806040525081019061207c91906126c7565b600054604051630852cd8d60e31b8152600481018390529192506001600160a01b0316906342966c68906024015b600060405180830381600087803b1580156120c457600080fd5b505af11580156120d8573d6000803e3d6000fd5b50929695505050505050565b6000805460405163140e25ad60e31b8152600481018590526001600160a01b039091169063a0712d6890602401600060405180830381600087803b15801561212b57600080fd5b505af115801561213f573d6000803e3d6000fd5b5050600354604051630b68372160e31b815260016004820152600060248201819052604482018890526064820187905293506001600160a01b039091169150635b41b90890608401602060405180830381600087803b1580156121a157600080fd5b505af11580156121b5573d6000803e3d6000fd5b505050506040513d601f19601f820116820180604052508101906121d991906126c7565b600154604051630852cd8d60e31b8152600481018390529192506001600160a01b0316906342966c68906024016120aa565b6000600160ff1b82141561223257604051631d0742e360e21b815260040160405180910390fd5b600082126122405781610b70565b5060000390565b6000600160ff1b83148061225e5750600160ff1b82145b1561227c5760405163b3c754a360e01b815260040160405180910390fd5b6000806000851261228d5784612292565b846000035b9150600084126122a257836122a7565b836000035b905060006122be83670de0b6b3a764000084612517565b90506001600160ff1b038111156122eb57604051637cb4bef560e01b815260048101829052602401610611565b6000198087139086138082186001146123045782611f2e565b611f2e83612905565b6000808212156118485760405162461bcd60e51b815260206004820181905260248201527f53616665436173743a2076616c7565206d75737420626520706f7369746976656044820152606401610611565b60035460405163556d6e9f60e01b81526001600482015260006024820181905260448201849052916001600160a01b03169063556d6e9f9060640160206040518083038186803b1580156123b257600080fd5b505afa9250505080156123e2575060408051601f3d908101601f191682019092526123df918101906126c7565b60015b612447577fcf34ef537ac33ee1ac626ca1587a0a7e8e51561e5514f8cb36afa1c5102b3bab604051612437906020808252600f908201526e5377617020696d706f737369626c6560881b604082015260600190565b60405180910390a1506000919050565b50600192915050565b919050565b60008080600019848609848602925082811083820303915050670de0b6b3a764000081106124995760405163698d9a0160e11b815260048101829052602401610611565b600080670de0b6b3a76400008688099150506706f05b59d3b1ffff8111826124d35780670de0b6b3a7640000850401945050505050610b70565b620400008285030493909111909103600160ee1b02919091177faccb18165bd6fe31ae1cf318dc5b51eee0e1ba569b88cd74c1773b91fac106690201905092915050565b6000808060001985870985870292508281108382030391505080600014156125605783828161255657634e487b7160e01b600052601260045260246000fd5b0492505050610663565b83811061258a57604051631dcf306360e21b81526004810182905260248101859052604401610611565b60008486880960026001871981018816978890046003810283188082028403028082028403028082028403028082028403028082028403029081029092039091026000889003889004909101858311909403939093029303949094049190911702949350505050565b80356001600160a01b038116811461245057600080fd5b60006020828403121561261b578081fd5b610663826125f3565b60008060408385031215612636578081fd5b61263f836125f3565b946020939093013593505050565b60008060008060808587031215612662578182fd5b61266b856125f3565b935060208501359250604085013560028110612685578283fd5b9396929550929360600135925050565b6000806000606084860312156126a9578283fd5b6126b2846125f3565b95602085013595506040909401359392505050565b6000602082840312156126d8578081fd5b5051919050565b6000602082840312156126f0578081fd5b5035919050565b8060005b600281101561271a5781518452602093840193909101906001016126fb565b50505050565b6060810161272e82856126f7565b8260408301529392505050565b6020808252602a908201527f4f6e6c7920636c656172696e6720686f7573652063616e2063616c6c207468696040820152693990333ab731ba34b7b760b11b606082015260800190565b8281526060810161066360208301846126f7565b600080821280156001600160ff1b03849003851316156127bb576127bb61291f565b600160ff1b83900384128116156127d4576127d461291f565b50500190565b600082198211156127ed576127ed61291f565b500190565b60008261280d57634e487b7160e01b81526012600452602481fd5b600160ff1b8214600019841416156128275761282761291f565b500590565b60006001600160ff1b03818413828413808216868404861116156128525761285261291f565b600160ff1b848712828116878305891216156128705761287061291f565b85871292508782058712848416161561288b5761288b61291f565b878505871281841616156128a1576128a161291f565b505050929093029392505050565b60008083128015600160ff1b8501841216156128cd576128cd61291f565b6001600160ff1b03840183138116156128e8576128e861291f565b50500390565b6000828210156129005761290061291f565b500390565b6000600160ff1b82141561291b5761291b61291f565b0390565b634e487b7160e01b600052601160045260246000fdfea2646970667358221220a1b21284d49f9f55ad396d8877ad80bdbe7ef3674512cb721f3e7ea70c2ebfa264736f6c63430008040033",
  "devdoc": {
    "kind": "dev",
    "methods": {
      "closePosition(address,uint256,uint256)": {
        "params": {
          "tentativeVQuoteAmount": "Amount of vQuote tokens to be sold for SHORT positions (anything works for LONG position)"
        }
      },
      "getExpectedVBaseAmount(uint256)": {
        "details": "It's up to the client to apply a reduction of this amount (e.g. -1%) to then use it as `minAmount` in `openPosition`"
      },
      "getExpectedVQuoteAmount(uint256)": {
        "details": "It's up to the client to apply a reduction of this amount (e.g. -1%) to then use it as `minAmount` in `openPosition`"
      },
      "liquidate(address,uint256)": {
        "params": {
          "tentativeVQuoteAmount": "Amount of vQuote tokens to be sold for SHORT positions (anything works for LONG position)"
        }
      },
      "openPosition(address,uint256,uint8,uint256)": {
        "details": "No number for the leverage is given but the amount in the vault must be bigger than MIN_MARGIN_AT_CREATIONNo checks are done if bought amount exceeds allowance",
        "params": {
          "amount": "to be sold, in vQuote (if long) or vBase (if short)"
        }
      },
      "provideLiquidity(address,uint256)": {
        "params": {
          "account": "liquidity provider",
          "wadAmount": "amount of vQuote provided with 1e18 precision"
        }
      },
      "removeLiquidity(address,uint256)": {
        "params": {
          "amount": "of liquidity to be removed from the pool (with 18 decimals)"
        }
      },
      "settleAndWithdrawLiquidity(address,uint256)": {
        "params": {
          "tentativeVQuoteAmount": "at which to buy the LP position (if it looks like a short, more vQuote than vBase). 18 decimals"
        }
      }
    },
    "version": 1
  },
  "userdoc": {
    "errors": {
      "PRBMathSD59x18__AbsInputTooSmall()": [
        {
          "notice": "Emitted when the input is MIN_SD59x18."
        }
      ],
      "PRBMathSD59x18__DivInputTooSmall()": [
        {
          "notice": "Emitted when one of the inputs is MIN_SD59x18."
        }
      ],
      "PRBMathSD59x18__DivOverflow(uint256)": [
        {
          "notice": "Emitted when one of the intermediary unsigned results overflows SD59x18."
        }
      ],
      "PRBMathSD59x18__MulInputTooSmall()": [
        {
          "notice": "Emitted when one of the inputs is MIN_SD59x18."
        }
      ],
      "PRBMathSD59x18__MulOverflow(uint256)": [
        {
          "notice": "Emitted when the intermediary absolute result overflows SD59x18."
        }
      ],
      "PRBMath__MulDivFixedPointOverflow(uint256)": [
        {
          "notice": "Emitted when the result overflows uint256."
        }
      ],
      "PRBMath__MulDivOverflow(uint256,uint256)": [
        {
          "notice": "Emitted when the result overflows uint256."
        }
      ]
    },
    "kind": "user",
    "methods": {
      "closePosition(address,uint256,uint256)": {
        "notice": "Closes position from account holder"
      },
      "getBaseDust()": {
        "notice": "TODO: find a way to withdraw the dust"
      },
      "getExpectedVBaseAmount(uint256)": {
        "notice": "Return amount for vBase one would receive for exchanging `vQuoteAmountToSpend` (excluding slippage)"
      },
      "getExpectedVQuoteAmount(uint256)": {
        "notice": "Return amount for vQuote one would receive for exchanging `vBaseAmountToSpend` (excluding slippage)"
      },
      "indexPrice()": {
        "notice": "Return the current off-chain exchange rate for vBase/vQuote"
      },
      "marketPrice()": {
        "notice": "Return the last traded price (used for TWAP)"
      },
      "marketPriceOracle()": {
        "notice": "Return the curve price oracle"
      },
      "openPosition(address,uint256,uint8,uint256)": {
        "notice": "Open position, long or short"
      },
      "provideLiquidity(address,uint256)": {
        "notice": "Provide liquidity to the pool"
      },
      "removeLiquidity(address,uint256)": {
        "notice": "Remove liquidity from the pool (but don't close LP position and withdraw amount)"
      },
      "settleAndWithdrawLiquidity(address,uint256)": {
        "notice": "Remove liquidity from the pool (but don't close LP position and withdraw amount).Separated from `removeLiquidity` because `tentativeVQuoteAmount` can't guessed at the moment when user calls `removeLiquidity`"
      }
    },
    "version": 1
  },
  "storageLayout": {
    "storage": [
      {
        "astId": 3346,
        "contract": "contracts/Perpetual.sol:Perpetual",
        "label": "vBase",
        "offset": 0,
        "slot": "0",
        "type": "t_contract(IVBase)6003"
      },
      {
        "astId": 3350,
        "contract": "contracts/Perpetual.sol:Perpetual",
        "label": "vQuote",
        "offset": 0,
        "slot": "1",
        "type": "t_contract(IVQuote)6010"
      },
      {
        "astId": 3354,
        "contract": "contracts/Perpetual.sol:Perpetual",
        "label": "clearingHouse",
        "offset": 0,
        "slot": "2",
        "type": "t_contract(IClearingHouse)5594"
      },
      {
        "astId": 3358,
        "contract": "contracts/Perpetual.sol:Perpetual",
        "label": "market",
        "offset": 0,
        "slot": "3",
        "type": "t_contract(ICryptoSwap)5669"
      },
      {
        "astId": 3361,
        "contract": "contracts/Perpetual.sol:Perpetual",
        "label": "globalPosition",
        "offset": 0,
        "slot": "4",
        "type": "t_struct(GlobalPosition)6330_storage"
      },
      {
        "astId": 3363,
        "contract": "contracts/Perpetual.sol:Perpetual",
        "label": "totalLiquidityProvided",
        "offset": 0,
        "slot": "6",
        "type": "t_uint256"
      },
      {
        "astId": 3365,
        "contract": "contracts/Perpetual.sol:Perpetual",
        "label": "vBaseDust",
        "offset": 0,
        "slot": "7",
        "type": "t_uint256"
      },
      {
        "astId": 3367,
        "contract": "contracts/Perpetual.sol:Perpetual",
        "label": "oracleCumulativeAmount",
        "offset": 0,
        "slot": "8",
        "type": "t_int256"
      },
      {
        "astId": 3369,
        "contract": "contracts/Perpetual.sol:Perpetual",
        "label": "oracleCumulativeAmountAtBeginningOfPeriod",
        "offset": 0,
        "slot": "9",
        "type": "t_int256"
      },
      {
        "astId": 3371,
        "contract": "contracts/Perpetual.sol:Perpetual",
        "label": "oracleTwap",
        "offset": 0,
        "slot": "10",
        "type": "t_int256"
      },
      {
        "astId": 3373,
        "contract": "contracts/Perpetual.sol:Perpetual",
        "label": "marketCumulativeAmount",
        "offset": 0,
        "slot": "11",
        "type": "t_int256"
      },
      {
        "astId": 3375,
        "contract": "contracts/Perpetual.sol:Perpetual",
        "label": "marketCumulativeAmountAtBeginningOfPeriod",
        "offset": 0,
        "slot": "12",
        "type": "t_int256"
      },
      {
        "astId": 3377,
        "contract": "contracts/Perpetual.sol:Perpetual",
        "label": "marketTwap",
        "offset": 0,
        "slot": "13",
        "type": "t_int256"
      },
      {
        "astId": 3382,
        "contract": "contracts/Perpetual.sol:Perpetual",
        "label": "traderPosition",
        "offset": 0,
        "slot": "14",
        "type": "t_mapping(t_address,t_struct(UserPosition)6323_storage)"
      },
      {
        "astId": 3387,
        "contract": "contracts/Perpetual.sol:Perpetual",
        "label": "lpPosition",
        "offset": 0,
        "slot": "15",
        "type": "t_mapping(t_address,t_struct(UserPosition)6323_storage)"
      }
    ],
    "types": {
      "t_address": {
        "encoding": "inplace",
        "label": "address",
        "numberOfBytes": "20"
      },
      "t_contract(IClearingHouse)5594": {
        "encoding": "inplace",
        "label": "contract IClearingHouse",
        "numberOfBytes": "20"
      },
      "t_contract(ICryptoSwap)5669": {
        "encoding": "inplace",
        "label": "contract ICryptoSwap",
        "numberOfBytes": "20"
      },
      "t_contract(IVBase)6003": {
        "encoding": "inplace",
        "label": "contract IVBase",
        "numberOfBytes": "20"
      },
      "t_contract(IVQuote)6010": {
        "encoding": "inplace",
        "label": "contract IVQuote",
        "numberOfBytes": "20"
      },
      "t_int256": {
        "encoding": "inplace",
        "label": "int256",
        "numberOfBytes": "32"
      },
      "t_mapping(t_address,t_struct(UserPosition)6323_storage)": {
        "encoding": "mapping",
        "key": "t_address",
        "label": "mapping(address => struct LibPerpetual.UserPosition)",
        "numberOfBytes": "32",
        "value": "t_struct(UserPosition)6323_storage"
      },
      "t_struct(GlobalPosition)6330_storage": {
        "encoding": "inplace",
        "label": "struct LibPerpetual.GlobalPosition",
        "members": [
          {
            "astId": 6325,
            "contract": "contracts/Perpetual.sol:Perpetual",
            "label": "timeOfLastTrade",
            "offset": 0,
            "slot": "0",
            "type": "t_uint128"
          },
          {
            "astId": 6327,
            "contract": "contracts/Perpetual.sol:Perpetual",
            "label": "timeOfLastFunding",
            "offset": 16,
            "slot": "0",
            "type": "t_uint128"
          },
          {
            "astId": 6329,
            "contract": "contracts/Perpetual.sol:Perpetual",
            "label": "cumFundingRate",
            "offset": 0,
            "slot": "1",
            "type": "t_int256"
          }
        ],
        "numberOfBytes": "64"
      },
      "t_struct(UserPosition)6323_storage": {
        "encoding": "inplace",
        "label": "struct LibPerpetual.UserPosition",
        "members": [
          {
            "astId": 6316,
            "contract": "contracts/Perpetual.sol:Perpetual",
            "label": "openNotional",
            "offset": 0,
            "slot": "0",
            "type": "t_int256"
          },
          {
            "astId": 6318,
            "contract": "contracts/Perpetual.sol:Perpetual",
            "label": "positionSize",
            "offset": 0,
            "slot": "1",
            "type": "t_int256"
          },
          {
            "astId": 6320,
            "contract": "contracts/Perpetual.sol:Perpetual",
            "label": "cumFundingRate",
            "offset": 0,
            "slot": "2",
            "type": "t_int256"
          },
          {
            "astId": 6322,
            "contract": "contracts/Perpetual.sol:Perpetual",
            "label": "liquidityBalance",
            "offset": 0,
            "slot": "3",
            "type": "t_uint256"
          }
        ],
        "numberOfBytes": "128"
      },
      "t_uint128": {
        "encoding": "inplace",
        "label": "uint128",
        "numberOfBytes": "16"
      },
      "t_uint256": {
        "encoding": "inplace",
        "label": "uint256",
        "numberOfBytes": "32"
      }
    }
  }
}