{
  "address": "0xE11B31F25128d2475373bbDd79eb74e789F481Eb",
  "abi": [
    {
      "inputs": [
        {
          "internalType": "contract IVBase",
          "name": "_vBase",
          "type": "address"
        },
        {
          "internalType": "contract IVQuote",
          "name": "_vQuote",
          "type": "address"
        },
        {
          "internalType": "contract ICryptoSwap",
          "name": "_market",
          "type": "address"
        },
        {
          "internalType": "contract IClearingHouse",
          "name": "_clearingHouse",
          "type": "address"
        }
      ],
      "stateMutability": "nonpayable",
      "type": "constructor"
    },
    {
      "inputs": [],
      "name": "PRBMathSD59x18__AbsInputTooSmall",
      "type": "error"
    },
    {
      "inputs": [],
      "name": "PRBMathSD59x18__DivInputTooSmall",
      "type": "error"
    },
    {
      "inputs": [
        {
          "internalType": "uint256",
          "name": "rAbs",
          "type": "uint256"
        }
      ],
      "name": "PRBMathSD59x18__DivOverflow",
      "type": "error"
    },
    {
      "inputs": [],
      "name": "PRBMathSD59x18__MulInputTooSmall",
      "type": "error"
    },
    {
      "inputs": [
        {
          "internalType": "uint256",
          "name": "rAbs",
          "type": "uint256"
        }
      ],
      "name": "PRBMathSD59x18__MulOverflow",
      "type": "error"
    },
    {
      "inputs": [
        {
          "internalType": "uint256",
          "name": "prod1",
          "type": "uint256"
        }
      ],
      "name": "PRBMath__MulDivFixedPointOverflow",
      "type": "error"
    },
    {
      "inputs": [
        {
          "internalType": "uint256",
          "name": "prod1",
          "type": "uint256"
        },
        {
          "internalType": "uint256",
          "name": "denominator",
          "type": "uint256"
        }
      ],
      "name": "PRBMath__MulDivOverflow",
      "type": "error"
    },
    {
      "anonymous": false,
      "inputs": [
        {
          "indexed": false,
          "internalType": "uint256",
          "name": "vBaseAmount",
          "type": "uint256"
        }
      ],
      "name": "DustGenerated",
      "type": "event"
    },
    {
      "anonymous": false,
      "inputs": [
        {
          "indexed": true,
          "internalType": "uint256",
          "name": "blockNumber",
          "type": "uint256"
        },
        {
          "indexed": false,
          "internalType": "uint256",
          "name": "value",
          "type": "uint256"
        },
        {
          "indexed": false,
          "internalType": "bool",
          "name": "isPositive",
          "type": "bool"
        }
      ],
      "name": "FundingPayment",
      "type": "event"
    },
    {
      "anonymous": false,
      "inputs": [
        {
          "indexed": true,
          "internalType": "address",
          "name": "liquidatee",
          "type": "address"
        },
        {
          "indexed": true,
          "internalType": "address",
          "name": "liquidator",
          "type": "address"
        },
        {
          "indexed": false,
          "internalType": "uint128",
          "name": "timestamp",
          "type": "uint128"
        },
        {
          "indexed": false,
          "internalType": "uint256",
          "name": "notional",
          "type": "uint256"
        }
      ],
      "name": "LiquidationCall",
      "type": "event"
    },
    {
      "anonymous": false,
      "inputs": [
        {
          "indexed": true,
          "internalType": "address",
          "name": "liquidityProvider",
          "type": "address"
        },
        {
          "indexed": true,
          "internalType": "address",
          "name": "asset",
          "type": "address"
        },
        {
          "indexed": false,
          "internalType": "uint256",
          "name": "amount",
          "type": "uint256"
        }
      ],
      "name": "LiquidityProvided",
      "type": "event"
    },
    {
      "anonymous": false,
      "inputs": [
        {
          "indexed": true,
          "internalType": "address",
          "name": "liquidityProvider",
          "type": "address"
        },
        {
          "indexed": false,
          "internalType": "uint256",
          "name": "amount",
          "type": "uint256"
        }
      ],
      "name": "LiquidityRemoved",
      "type": "event"
    },
    {
      "anonymous": false,
      "inputs": [
        {
          "indexed": true,
          "internalType": "address",
          "name": "liquidityProvider",
          "type": "address"
        }
      ],
      "name": "LiquidityWithdrawn",
      "type": "event"
    },
    {
      "anonymous": false,
      "inputs": [
        {
          "indexed": false,
          "internalType": "string",
          "name": "errorMessage",
          "type": "string"
        }
      ],
      "name": "Log",
      "type": "event"
    },
    {
      "anonymous": false,
      "inputs": [
        {
          "indexed": true,
          "internalType": "address",
          "name": "burner",
          "type": "address"
        },
        {
          "indexed": false,
          "internalType": "uint256",
          "name": "vBaseAmount",
          "type": "uint256"
        },
        {
          "indexed": false,
          "internalType": "uint256",
          "name": "liquidity",
          "type": "uint256"
        }
      ],
      "name": "TokenDonated",
      "type": "event"
    },
    {
      "anonymous": false,
      "inputs": [
        {
          "indexed": false,
          "internalType": "uint256",
          "name": "timeStamp",
          "type": "uint256"
        },
        {
          "indexed": false,
          "internalType": "int256",
          "name": "newOracleTwap",
          "type": "int256"
        },
        {
          "indexed": false,
          "internalType": "int256",
          "name": "newMarketTwap",
          "type": "int256"
        }
      ],
      "name": "TwapUpdated",
      "type": "event"
    },
    {
      "inputs": [],
      "name": "MAX_TRADE_SIZE",
      "outputs": [
        {
          "internalType": "uint256",
          "name": "",
          "type": "uint256"
        }
      ],
      "stateMutability": "view",
      "type": "function"
    },
    {
      "inputs": [],
      "name": "SENSITIVITY",
      "outputs": [
        {
          "internalType": "int256",
          "name": "",
          "type": "int256"
        }
      ],
      "stateMutability": "view",
      "type": "function"
    },
    {
      "inputs": [],
      "name": "TWAP_FREQUENCY",
      "outputs": [
        {
          "internalType": "uint256",
          "name": "",
          "type": "uint256"
        }
      ],
      "stateMutability": "view",
      "type": "function"
    },
    {
      "inputs": [],
      "name": "VBASE_INDEX",
      "outputs": [
        {
          "internalType": "uint256",
          "name": "",
          "type": "uint256"
        }
      ],
      "stateMutability": "view",
      "type": "function"
    },
    {
      "inputs": [],
      "name": "VQUOTE_INDEX",
      "outputs": [
        {
          "internalType": "uint256",
          "name": "",
          "type": "uint256"
        }
      ],
      "stateMutability": "view",
      "type": "function"
    },
    {
      "inputs": [],
      "name": "clearingHouse",
      "outputs": [
        {
          "internalType": "contract IClearingHouse",
          "name": "",
          "type": "address"
        }
      ],
      "stateMutability": "view",
      "type": "function"
    },
    {
      "inputs": [
        {
          "internalType": "address",
          "name": "account",
          "type": "address"
        },
        {
          "internalType": "uint256",
          "name": "amount",
          "type": "uint256"
        },
        {
          "internalType": "enum LibPerpetual.Side",
          "name": "direction",
          "type": "uint8"
        },
        {
          "internalType": "uint256",
          "name": "minAmount",
          "type": "uint256"
        }
      ],
      "name": "extendPosition",
      "outputs": [
        {
          "internalType": "int256",
          "name": "",
          "type": "int256"
        },
        {
          "internalType": "int256",
          "name": "",
          "type": "int256"
        },
        {
          "internalType": "int256",
          "name": "",
          "type": "int256"
        }
      ],
      "stateMutability": "nonpayable",
      "type": "function"
    },
    {
      "inputs": [],
      "name": "getBaseDust",
      "outputs": [
        {
          "internalType": "uint256",
          "name": "",
          "type": "uint256"
        }
      ],
      "stateMutability": "view",
      "type": "function"
    },
    {
      "inputs": [
        {
          "internalType": "uint256",
          "name": "vQuoteAmountToSpend",
          "type": "uint256"
        }
      ],
      "name": "getExpectedVBaseAmount",
      "outputs": [
        {
          "internalType": "uint256",
          "name": "",
          "type": "uint256"
        }
      ],
      "stateMutability": "view",
      "type": "function"
    },
    {
      "inputs": [
        {
          "internalType": "uint256",
          "name": "vBaseAmountToSpend",
          "type": "uint256"
        }
      ],
      "name": "getExpectedVQuoteAmount",
      "outputs": [
        {
          "internalType": "uint256",
          "name": "",
          "type": "uint256"
        }
      ],
      "stateMutability": "view",
      "type": "function"
    },
    {
      "inputs": [
        {
          "internalType": "address",
          "name": "account",
          "type": "address"
        }
      ],
      "name": "getFundingPayments",
      "outputs": [
        {
          "internalType": "int256",
          "name": "",
          "type": "int256"
        }
      ],
      "stateMutability": "view",
      "type": "function"
    },
    {
      "inputs": [],
      "name": "getGlobalPosition",
      "outputs": [
        {
          "components": [
            {
              "internalType": "uint128",
              "name": "timeOfLastTrade",
              "type": "uint128"
            },
            {
              "internalType": "uint128",
              "name": "timeOfLastFunding",
              "type": "uint128"
            },
            {
              "internalType": "int256",
              "name": "cumFundingRate",
              "type": "int256"
            }
          ],
          "internalType": "struct LibPerpetual.GlobalPosition",
          "name": "",
          "type": "tuple"
        }
      ],
      "stateMutability": "view",
      "type": "function"
    },
    {
      "inputs": [
        {
          "internalType": "address",
          "name": "account",
          "type": "address"
        }
      ],
      "name": "getLpPosition",
      "outputs": [
        {
          "components": [
            {
              "internalType": "int256",
              "name": "openNotional",
              "type": "int256"
            },
            {
              "internalType": "int256",
              "name": "positionSize",
              "type": "int256"
            },
            {
              "internalType": "int256",
              "name": "cumFundingRate",
              "type": "int256"
            },
            {
              "internalType": "uint256",
              "name": "liquidityBalance",
              "type": "uint256"
            }
          ],
          "internalType": "struct LibPerpetual.UserPosition",
          "name": "",
          "type": "tuple"
        }
      ],
      "stateMutability": "view",
      "type": "function"
    },
    {
      "inputs": [],
      "name": "getMarketTwap",
      "outputs": [
        {
          "internalType": "int256",
          "name": "",
          "type": "int256"
        }
      ],
      "stateMutability": "view",
      "type": "function"
    },
    {
      "inputs": [],
      "name": "getOracleTwap",
      "outputs": [
        {
          "internalType": "int256",
          "name": "",
          "type": "int256"
        }
      ],
      "stateMutability": "view",
      "type": "function"
    },
    {
      "inputs": [
        {
          "internalType": "address",
          "name": "account",
          "type": "address"
        }
      ],
      "name": "getTraderPosition",
      "outputs": [
        {
          "components": [
            {
              "internalType": "int256",
              "name": "openNotional",
              "type": "int256"
            },
            {
              "internalType": "int256",
              "name": "positionSize",
              "type": "int256"
            },
            {
              "internalType": "int256",
              "name": "cumFundingRate",
              "type": "int256"
            },
            {
              "internalType": "uint256",
              "name": "liquidityBalance",
              "type": "uint256"
            }
          ],
          "internalType": "struct LibPerpetual.UserPosition",
          "name": "",
          "type": "tuple"
        }
      ],
      "stateMutability": "view",
      "type": "function"
    },
    {
      "inputs": [
        {
          "internalType": "address",
          "name": "account",
          "type": "address"
        }
      ],
      "name": "getUnrealizedPnL",
      "outputs": [
        {
          "internalType": "int256",
          "name": "",
          "type": "int256"
        }
      ],
      "stateMutability": "view",
      "type": "function"
    },
    {
      "inputs": [],
      "name": "indexPrice",
      "outputs": [
        {
          "internalType": "int256",
          "name": "",
          "type": "int256"
        }
      ],
      "stateMutability": "view",
      "type": "function"
    },
    {
      "inputs": [],
      "name": "market",
      "outputs": [
        {
          "internalType": "contract ICryptoSwap",
          "name": "",
          "type": "address"
        }
      ],
      "stateMutability": "view",
      "type": "function"
    },
    {
      "inputs": [],
      "name": "marketCumulativeAmount",
      "outputs": [
        {
          "internalType": "int256",
          "name": "",
          "type": "int256"
        }
      ],
      "stateMutability": "view",
      "type": "function"
    },
    {
      "inputs": [],
      "name": "marketCumulativeAmountAtBeginningOfPeriod",
      "outputs": [
        {
          "internalType": "int256",
          "name": "",
          "type": "int256"
        }
      ],
      "stateMutability": "view",
      "type": "function"
    },
    {
      "inputs": [],
      "name": "marketPrice",
      "outputs": [
        {
          "internalType": "uint256",
          "name": "",
          "type": "uint256"
        }
      ],
      "stateMutability": "view",
      "type": "function"
    },
    {
      "inputs": [],
      "name": "marketPriceOracle",
      "outputs": [
        {
          "internalType": "uint256",
          "name": "",
          "type": "uint256"
        }
      ],
      "stateMutability": "view",
      "type": "function"
    },
    {
      "inputs": [],
      "name": "marketTwap",
      "outputs": [
        {
          "internalType": "int256",
          "name": "",
          "type": "int256"
        }
      ],
      "stateMutability": "view",
      "type": "function"
    },
    {
      "inputs": [],
      "name": "oracleCumulativeAmount",
      "outputs": [
        {
          "internalType": "int256",
          "name": "",
          "type": "int256"
        }
      ],
      "stateMutability": "view",
      "type": "function"
    },
    {
      "inputs": [],
      "name": "oracleCumulativeAmountAtBeginningOfPeriod",
      "outputs": [
        {
          "internalType": "int256",
          "name": "",
          "type": "int256"
        }
      ],
      "stateMutability": "view",
      "type": "function"
    },
    {
      "inputs": [],
      "name": "oracleTwap",
      "outputs": [
        {
          "internalType": "int256",
          "name": "",
          "type": "int256"
        }
      ],
      "stateMutability": "view",
      "type": "function"
    },
    {
      "inputs": [
        {
          "internalType": "address",
          "name": "account",
          "type": "address"
        },
        {
          "internalType": "uint256",
          "name": "wadAmount",
          "type": "uint256"
        }
      ],
      "name": "provideLiquidity",
      "outputs": [
        {
          "internalType": "uint256",
          "name": "",
          "type": "uint256"
        }
      ],
      "stateMutability": "nonpayable",
      "type": "function"
    },
    {
      "inputs": [
        {
          "internalType": "address",
          "name": "account",
          "type": "address"
        },
        {
          "internalType": "uint256",
          "name": "proposedAmount",
          "type": "uint256"
        },
        {
          "internalType": "uint256",
          "name": "minAmount",
          "type": "uint256"
        }
      ],
      "name": "reducePosition",
      "outputs": [
        {
          "internalType": "int256",
          "name": "",
          "type": "int256"
        },
        {
          "internalType": "int256",
          "name": "",
          "type": "int256"
        },
        {
          "internalType": "int256",
          "name": "",
          "type": "int256"
        }
      ],
      "stateMutability": "nonpayable",
      "type": "function"
    },
    {
      "inputs": [
        {
          "internalType": "address",
          "name": "account",
          "type": "address"
        },
        {
          "internalType": "uint256",
          "name": "amount",
          "type": "uint256"
        }
      ],
      "name": "removeLiquidity",
      "outputs": [],
      "stateMutability": "nonpayable",
      "type": "function"
    },
    {
      "inputs": [
        {
          "internalType": "address",
          "name": "account",
          "type": "address"
        },
        {
          "internalType": "uint256",
          "name": "proposedAmount",
          "type": "uint256"
        },
        {
          "internalType": "uint256",
          "name": "minAmount",
          "type": "uint256"
        }
      ],
      "name": "settleAndWithdrawLiquidity",
      "outputs": [
        {
          "internalType": "int256",
          "name": "",
          "type": "int256"
        }
      ],
      "stateMutability": "nonpayable",
      "type": "function"
    },
    {
      "inputs": [],
      "name": "updateGenericProtocolState",
      "outputs": [],
      "stateMutability": "nonpayable",
      "type": "function"
    },
    {
      "inputs": [],
      "name": "updateTwap",
      "outputs": [],
      "stateMutability": "nonpayable",
      "type": "function"
    },
    {
      "inputs": [],
      "name": "vBase",
      "outputs": [
        {
          "internalType": "contract IVBase",
          "name": "",
          "type": "address"
        }
      ],
      "stateMutability": "view",
      "type": "function"
    },
    {
      "inputs": [],
      "name": "vQuote",
      "outputs": [
        {
          "internalType": "contract IVQuote",
          "name": "",
          "type": "address"
        }
      ],
      "stateMutability": "view",
      "type": "function"
    }
  ],
  "transactionHash": "0x8fbfea010cc2ed7b053df0414b009bbb40257340e6c8bd1e22b02d5c8eeda5c4",
  "args": [
    "0x9ed546A4B7095096CE8CDCe73220DfA28A60e142",
    "0x2fA318b78ba325b3Ccc94ACce320F3ed95D6e694",
    "0x96417f07476C214369C4C44d342235cEF4348c41",
    "0xE56aDD8c1C9f53Bc47141b136c0f355554D48ccA"
  ],
  "solcInputHash": "fa57e4a8fe8aef0df7b595e938f6a827",
  "bytecode": "0x60806040523480156200001157600080fd5b5060405162002e4938038062002e498339810160408190526200003491620003fa565b600080546001600160a01b03199081166001600160a01b03878116918217909355600180548316878516179055600380548316868516908117909155600280549093169385169390931790915560405163095ea7b360e01b8152600481019290925260001960248301529063095ea7b390604401602060405180830381600087803b158015620000c357600080fd5b505af1158015620000d8573d6000803e3d6000fd5b505050506040513d601f19601f82011682018060405250810190620000fe9190620003d1565b6200016a5760405162461bcd60e51b815260206004820152603160248201527f4e4f20415050524f56414c2e20544f444f3a20504c5a204348414e47452054486044820152701254c81513c8111554925391c810d05313607a1b60648201526084015b60405180910390fd5b60015460035460405163095ea7b360e01b81526001600160a01b039182166004820152600019602482015291169063095ea7b390604401602060405180830381600087803b158015620001bc57600080fd5b505af1158015620001d1573d6000803e3d6000fd5b505050506040513d601f19601f82011682018060405250810190620001f79190620003d1565b620002335760405162461bcd60e51b815260206004820152600b60248201526a1393c81054141493d5905360aa1b604482015260640162000161565b6000846001600160a01b03166358c0994a6040518163ffffffff1660e01b815260040160206040518083038186803b1580156200026f57600080fd5b505afa15801562000284573d6000803e3d6000fd5b505050506040513d601f19601f82011682018060405250810190620002aa919062000461565b9050600062000338846001600160a01b031663c146bf946040518163ffffffff1660e01b815260040160206040518083038186803b158015620002ec57600080fd5b505afa15801562000301573d6000803e3d6000fd5b505050506040513d601f19601f8201168201806040525081019062000327919062000461565b6200036160201b620018db1760201c565b60099290925550600c5550505050426001600160801b0316600160801b81021760045562000493565b60006001600160ff1b03821115620003cd5760405162461bcd60e51b815260206004820152602860248201527f53616665436173743a2076616c756520646f65736e27742066697420696e2061604482015267371034b73a191a9b60c11b606482015260840162000161565b5090565b600060208284031215620003e3578081fd5b81518015158114620003f3578182fd5b9392505050565b6000806000806080858703121562000410578283fd5b84516200041d816200047a565b602086015190945062000430816200047a565b604086015190935062000443816200047a565b606086015190925062000456816200047a565b939692955090935050565b60006020828403121562000473578081fd5b5051919050565b6001600160a01b03811681146200049057600080fd5b50565b6129a680620004a36000396000f3fe608060405234801561001057600080fd5b50600436106102115760003560e01c806380f5560511610125578063b0aae723116100ad578063c5f1916c1161007c578063c5f1916c14610484578063cefc499314610497578063d57ba73c146104aa578063db884c0d146104b2578063dd027c1c146104ba57600080fd5b8063b0aae72314610461578063b888a8791461046a578063bad5e0e614610473578063bf02e92f1461047b57600080fd5b8063a1c5a490116100f4578063a1c5a49014610411578063a201ccf61461041a578063a42d8b6b1461042d578063acdb520814610440578063afa905bc1461044e57600080fd5b806380f55605146103825780638516e6dc146103955780639027b59e1461039f5780639b497ec81461040857600080fd5b8063544305bf116101a8578063704a0c7011610177578063704a0c701461030a5780637532792d14610312578063793962d8146103255780637a8f15eb1461036b5780637f564fea1461037a57600080fd5b8063544305bf146102c95780635b57398c146102dc5780635fea6120146102ef57806360551d5f1461030257600080fd5b80632fda593c116101e45780632fda593c1461029257806345a153881461029b5780634bc36bd6146102a3578063508fbda6146102b657600080fd5b80630af968001461021657806310bace8c1461024657806316d183f01461025c578063214c302e1461028a575b600080fd5b600254610229906001600160a01b031681565b6040516001600160a01b0390911681526020015b60405180910390f35b61024e6104c3565b60405190815260200161023d565b61026f61026a3660046126d0565b61054f565b6040805193845260208401929092529082015260600161023d565b61024e61067f565b61024e600b5481565b61024e6106a6565b600154610229906001600160a01b031681565b61024e6102c4366004612645565b6106eb565b61024e6102d7366004612645565b6107a7565b61026f6102ea366004612688565b61081b565b61024e6102fd36600461265f565b610a54565b61024e610e57565b61024e600181565b61024e61032036600461271a565b610e9c565b610338610333366004612645565b610f28565b60405161023d91908151815260208083015190820152604080830151908201526060918201519181019190915260800190565b61024e670de0b6b3a764000081565b60095461024e565b600354610229906001600160a01b031681565b61039d610fa1565b005b60408051606080820183526000808352602080840182905292840152825180820184526004546001600160801b03808216808452600160801b9092048116838601908152600554938701938452865192835251169381019390935251928201929092520161023d565b61024e600c5481565b61024e60085481565b61039d61042836600461265f565b611105565b61024e61043b36600461271a565b6116f0565b61024e66b1a2bc2ec5000081565b61024e61045c3660046126d0565b611730565b61024e60075481565b61024e600a5481565b61039d611836565b61024e60095481565b600054610229906001600160a01b031681565b6103386104a5366004612645565b611862565b600c5461024e565b61024e600081565b61024e61038481565b60008060009054906101000a90046001600160a01b03166001600160a01b03166358c0994a6040518163ffffffff1660e01b815260040160206040518083038186803b15801561051257600080fd5b505afa158015610526573d6000803e3d6000fd5b505050506040513d601f19601f8201168201806040525081019061054a9190612702565b905090565b6001600160a01b0383166000908152600d602052604081208054829182916004901515806105805750600182015415155b6105e55760405162461bcd60e51b815260206004820152602b60248201527f4e6f20706f736974696f6e2063757272656e746c79206f70656e656420696e2060448201526a1d1a1a5cc81b585c9ad95d60aa1b60648201526084015b60405180910390fd5b6105ed611836565b60008060006105fe85858c8c611949565b9250925092508185600001600082825461061891906127d4565b925050819055508285600101600082825461063391906127d4565b9091555050600185015461066f576001600160a01b038b166000908152600d602052604081208181556001810182905560028101829055600301555b909a919950975095505050505050565b6002546001600160a01b03166000908152600d602052604081206001015461054a90611a78565b60035460408051633051afe560e21b815290516000926001600160a01b03169163c146bf94916004808301926020929190829003018186803b15801561051257600080fd5b6001600160a01b0381166000908152600d602090815260408083208151608081018352815481526001820154818501908152600283015482850152600390920154606080830191909152835190810184526004546001600160801b038082168352600160801b909104169481019490945260055492840192909252519091908390811261077957600061077c565b60015b905061079e81846040015184604001516107998760200151611aca565b611ad5565b95945050505050565b6001600160a01b0381166000908152600d60209081526040808320815160808101835281548152600182015493810193909352600281015491830191909152600301546060820152816107f9600c5490565b9050600061080b836020015183611b1a565b835190915061079e9082906127d4565b600254600090819081906001600160a01b0316331461084c5760405162461bcd60e51b81526004016105dc90612776565b6001600160a01b0387166000908152600d60205260408120906004908088600181111561088957634e487b7160e01b600052602160045260246000fd5b14610895576000610898565b60015b90508015610935576001600160a01b038a166000908152600d602052604081206001015412156109305760405162461bcd60e51b815260206004820152603f60248201527f43616e6e6f74207265647563652f636c6f736520612053484f525420706f736960448201527f74696f6e206279206f70656e696e672061204c4f4e4720706f736974696f6e0060648201526084016105dc565b6109c5565b6001600160a01b038a166000908152600d602052604081206001015413156109c55760405162461bcd60e51b815260206004820152603f60248201527f43616e6e6f74207265647563652f636c6f73652061204c4f4e4720706f73697460448201527f696f6e206279206f70656e696e6720612053484f525420706f736974696f6e0060648201526084016105dc565b6109cd611836565b60006109ea82856002015485600101546107998860010154611aca565b90506000806109fa8c858c611b26565b9150915081866000016000828254610a1291906127d4565b9250508190555080866001016000828254610a2d91906127d4565b90915550506001949094015460029590950194909455929a91995091975095505050505050565b6002546000906001600160a01b03163314610a815760405162461bcd60e51b81526004016105dc90612776565b81610abc5760405162461bcd60e51b815260206004820152600b60248201526a16995c9bc8185b5bdd5b9d60aa1b60448201526064016105dc565b6001600160a01b0383166000908152600e602052604090206003015415610b255760405162461bcd60e51b815260206004820152601d60248201527f4861732070726f7669646564206c6971756964697479206265666f726500000060448201526064016105dc565b600060065460001415610b4957610b3a6106a6565b9050610b44611836565b610c4c565b600354604051634903b0d160e01b815260006004820152610c49916001600160a01b031690634903b0d19060240160206040518083038186803b158015610b8f57600080fd5b505afa158015610ba3573d6000803e3d6000fd5b505050506040513d601f19601f82011682018060405250810190610bc79190612702565b600354604051634903b0d160e01b8152600160048201526001600160a01b0390911690634903b0d1906024015b60206040518083038186803b158015610c0c57600080fd5b505afa158015610c20573d6000803e3d6000fd5b505050506040513d601f19601f82011682018060405250810190610c449190612702565b611c45565b90505b6000610c588483611c45565b60015460405163140e25ad60e31b8152600481018790529192506001600160a01b03169063a0712d6890602401600060405180830381600087803b158015610c9f57600080fd5b505af1158015610cb3573d6000803e3d6000fd5b505060005460405163140e25ad60e31b8152600481018590526001600160a01b03909116925063a0712d689150602401600060405180830381600087803b158015610cfd57600080fd5b505af1158015610d11573d6000803e3d6000fd5b5050600354604080518082018252888152602081018690529051630b4c7e4d60e01b8152600094506001600160a01b039092169250630b4c7e4d91610d5b9190859060040161275b565b602060405180830381600087803b158015610d7557600080fd5b505af1158015610d89573d6000803e3d6000fd5b505050506040513d601f19601f82011682018060405250810190610dad9190612702565b90506040518060800160405280610dc3876118db565b610dcc90612940565b8152602001610dda846118db565b610de390612940565b815260055460208083019190915260409182018490526001600160a01b0389166000908152600e82528281208451815591840151600183015591830151600282015560609092015160039092019190915560068054839290610e46908490612815565b909155509193505050505b92915050565b600354604080516386fc88d360e01b815290516000926001600160a01b0316916386fc88d3916004808301926020929190829003018186803b15801561051257600080fd5b60035460405163556d6e9f60e01b81526000600482018190526001602483015260448201849052916001600160a01b03169063556d6e9f906064015b60206040518083038186803b158015610ef057600080fd5b505afa158015610f04573d6000803e3d6000fd5b505050506040513d601f19601f82011682018060405250810190610e519190612702565b610f536040518060800160405280600081526020016000815260200160008152602001600081525090565b506001600160a01b03166000908152600d6020908152604091829020825160808101845281548152600182015492810192909252600281015492820192909252600390910154606082015290565b6004544290600090610fc590610fc0906001600160801b031684612929565b6118db565b90506000610fd16104c3565b9050610fdd8282612867565b600754610fea91906127d4565b6007556000610ffa610fc06106a6565b90506110068382612867565b600a5461101391906127d4565b600a5560045460009061103690600160801b90046001600160801b031642612929565b905061038481106110fe5761104a816118db565b60085460075461105a91906128ea565b611064919061282d565b600955611070816118db565b600b54600a5461108091906128ea565b61108a919061282d565b600c819055600754600855600a54600b55600480546001600160801b03908116600160801b4292831602179091556009546040805192835260208301919091528101919091527f2da2327ef0b8399af5cbcc8efd04003d712631ecc4c1eb11231cc6d840f5275e9060600160405180910390a15b5050505050565b6002546001600160a01b0316331461112f5760405162461bcd60e51b81526004016105dc90612776565b6001600160a01b0382166000908152600e60205260409020600381015482111561119b5760405162461bcd60e51b815260206004820152601d60248201527f4e6f7420656e6f756768206c69717569646974792070726f766964656400000060448201526064016105dc565b818160030160008282546111af9190612929565b9250508190555081600660008282546111c89190612929565b90915550506001546040516370a0823160e01b8152306004820152600091829182916001600160a01b0316906370a082319060240160206040518083038186803b15801561121557600080fd5b505afa158015611229573d6000803e3d6000fd5b505050506040513d601f19601f8201168201806040525081019061124d9190612702565b600080546040516370a0823160e01b815230600482015292935090916001600160a01b03909116906370a082319060240160206040518083038186803b15801561129657600080fd5b505afa1580156112aa573d6000803e3d6000fd5b505050506040513d601f19601f820116820180604052508101906112ce9190612702565b6003546040805180820182526000808252602082015290516316cd8e2760e21b81529293506001600160a01b0390911691635b36389c91611314918a91906004016127c0565b600060405180830381600087803b15801561132e57600080fd5b505af1158015611342573d6000803e3d6000fd5b50506001546003546040516370a0823160e01b81526001600160a01b03918216600482015260009450911691506370a082319060240160206040518083038186803b15801561139057600080fd5b505afa1580156113a4573d6000803e3d6000fd5b505050506040513d601f19601f820116820180604052508101906113c89190612702565b1161140c5760405162461bcd60e51b8152602060048201526014602482015273165bdd48189c9bdad9481d1a19481b585c9ad95d60621b60448201526064016105dc565b600080546003546040516370a0823160e01b81526001600160a01b0391821660048201529116906370a082319060240160206040518083038186803b15801561145457600080fd5b505afa158015611468573d6000803e3d6000fd5b505050506040513d601f19601f8201168201806040525081019061148c9190612702565b116114d05760405162461bcd60e51b8152602060048201526014602482015273165bdd48189c9bdad9481d1a19481b585c9ad95d60621b60448201526064016105dc565b6001546040516370a0823160e01b81523060048201526000916001600160a01b0316906370a082319060240160206040518083038186803b15801561151457600080fd5b505afa158015611528573d6000803e3d6000fd5b505050506040513d601f19601f8201168201806040525081019061154c9190612702565b600080546040516370a0823160e01b815230600482015292935090916001600160a01b03909116906370a082319060240160206040518083038186803b15801561159557600080fd5b505afa1580156115a9573d6000803e3d6000fd5b505050506040513d601f19601f820116820180604052508101906115cd9190612702565b90506115d98483612929565b94506115e58382612929565b600154604051630852cd8d60e31b8152600481018890529197506001600160a01b0316906342966c6890602401600060405180830381600087803b15801561162c57600080fd5b505af1158015611640573d6000803e3d6000fd5b5050600054604051630852cd8d60e31b8152600481018a90526001600160a01b0390911692506342966c689150602401600060405180830381600087803b15801561168a57600080fd5b505af115801561169e573d6000803e3d6000fd5b50505050505050506116af816118db565b8360000160008282546116c291906127d4565b909155506116d19050826118db565b8360010160008282546116e491906127d4565b90915550505050505050565b60035460405163556d6e9f60e01b81526001600482015260006024820181905260448201849052916001600160a01b03169063556d6e9f90606401610ed8565b6002546000906001600160a01b0316331461175d5760405162461bcd60e51b81526004016105dc90612776565b6001600160a01b0384166000908152600e60205260409020600461177f611836565b60008061178e84848989611949565b92505091508184600101546117a391906127d4565b156117fc5760405162461bcd60e51b815260206004820152602360248201527f46756c6c20706f736974696f6e2068617320746f20626520636c6f736564206860448201526265726560e81b60648201526084016105dc565b6001600160a01b0388166000908152600e6020526040812081815560018101829055600281018290556003015593505050505b9392505050565b6004805442906001600160801b03168082111561185d57611855610fa1565b61185d611c51565b505050565b61188d6040518060800160405280600081526020016000815260200160008152602001600081525090565b506001600160a01b03166000908152600e6020908152604091829020825160808101845281548152600182015492810192909252600281015492820192909252600390910154606082015290565b60006001600160ff1b038211156119455760405162461bcd60e51b815260206004820152602860248201527f53616665436173743a2076616c756520646f65736e27742066697420696e2061604482015267371034b73a191a9b60c11b60648201526084016105dc565b5090565b6000806000806000886001015413611962576000611965565b60015b905061197681896001015488611d24565b6119e85760405162461bcd60e51b815260206004820152603e60248201527f416d6f756e74207375626d697474656420746f6f206661722066726f6d20746860448201527f65206d61726b6574207072696365206f662074686520706f736974696f6e000060648201526084016105dc565b60018801546119f8818888611d8d565b90955093506000611a11611a0c8784611eb8565b611aca565b90506000611a2b611a258c60010154611aca565b83611b1a565b90506000611a43858d600201548d6001015485611ad5565b9050611a538c6000015484611b1a565b611a5d82896127d4565b611a6791906127d4565b955050505050509450945094915050565b6000808212156119455760405162461bcd60e51b815260206004820181905260248201527f53616665436173743a2076616c7565206d75737420626520706f73697469766560448201526064016105dc565b6000610e5182611ec4565b6000828414611b125760008515611af757611af084866128ea565b9050611b04565b611b0185856128ea565b90505b611b0e8184611b1a565b9150505b949350505050565b600061182f8383611f00565b6000808315611bb85766b1a2bc2ec50000611b42866000611fc5565b1115611b905760405162461bcd60e51b815260206004820152601a60248201527f54726164652073697a652065786365656473206d6178696d756d00000000000060448201526064016105dc565b611b99856118db565b611ba290612940565b9150611bb1610fc08685611ffd565b9050611c3d565b66b1a2bc2ec50000611bcb866001611fc5565b1115611c195760405162461bcd60e51b815260206004820152601a60248201527f54726164652073697a652065786365656473206d6178696d756d00000000000060448201526064016105dc565b611c26610fc0868561215a565b9150611c31856118db565b611c3a90612940565b90505b935093915050565b600061182f8383612281565b6004426000611c5f600c5490565b90506000611c6c60095490565b90506000611c83611c7d83856128ea565b83611eb8565b8554909150600090611ca290610fc0906001600160801b031687612929565b90506000611cb08383612867565b90506201518082611cc9670de0b6b3a764000084611b1a565b611cd39190612867565b611cdd919061282d565b876001016000828254611cf091906127d4565b909155505086546fffffffffffffffffffffffffffffffff19166001600160801b0396909616959095179095555050505050565b60008315611d3f57611d3583611a78565b821115905061182f565b6000611d4a84612940565b90506000611d5a600c5483611b1a565b90506000611d78611c7d83611d6e886118db565b611a0c91906128ea565b6706f05b59d3b2000013935061182f92505050565b6000806000808613611da0576000611da3565b60015b90508015611dde576000611db7868661215a565b9050611dc2816118db565b9250611dcd866118db565b611dd690612940565b935050611eaf565b6000611df1611dec88612940565b611a78565b90506000611dff8787611ffd565b905060008083831115611e7457611e168484612929565b9050611e2181612296565b15611e3857611e3181600061215a565b9150611e74565b6040518181527f56dd3b38618f9202d3cd3e3b1b0b979b53c56ca0b3847420ce3b2f2cc2cff7df9060200160405180910390a1611e748161238c565b611e7d826118db565b611e868a6118db565b611e8f90612940565b611e9991906127d4565b9550611ea8610fc08285612929565b9650505050505b50935093915050565b600061182f83836123ca565b6000600160ff1b821415611eeb57604051631d0742e360e21b815260040160405180910390fd5b60008212611ef95781610e51565b5060000390565b6000600160ff1b831480611f175750600160ff1b82145b15611f3557604051630d01a11b60e21b815260040160405180910390fd5b60008060008512611f465784611f4b565b846000035b915060008412611f5b5783611f60565b836000035b90506000611f6e8383612490565b90506001600160ff1b03811115611f9b5760405163bf79e8d960e01b8152600481018290526024016105dc565b600019808713908613808218600114611fb45782611fb9565b826000035b98975050505050505050565b600354604051634903b0d160e01b81526004810183905260009161182f9185916001600160a01b031690634903b0d190602401610bf4565b60015460405163140e25ad60e31b8152600481018490526000916001600160a01b03169063a0712d6890602401600060405180830381600087803b15801561204457600080fd5b505af1158015612058573d6000803e3d6000fd5b5050600354604051630b68372160e31b815260006004820181905260016024830152604482018890526064820187905293506001600160a01b039091169150635b41b90890608401602060405180830381600087803b1580156120ba57600080fd5b505af11580156120ce573d6000803e3d6000fd5b505050506040513d601f19601f820116820180604052508101906120f29190612702565b600054604051630852cd8d60e31b8152600481018390529192506001600160a01b0316906342966c68906024015b600060405180830381600087803b15801561213a57600080fd5b505af115801561214e573d6000803e3d6000fd5b50929695505050505050565b6000805460405163140e25ad60e31b8152600481018590526001600160a01b039091169063a0712d6890602401600060405180830381600087803b1580156121a157600080fd5b505af11580156121b5573d6000803e3d6000fd5b5050600354604051630b68372160e31b815260016004820152600060248201819052604482018890526064820187905293506001600160a01b039091169150635b41b90890608401602060405180830381600087803b15801561221757600080fd5b505af115801561222b573d6000803e3d6000fd5b505050506040513d601f19601f8201168201806040525081019061224f9190612702565b600154604051630852cd8d60e31b8152600481018390529192506001600160a01b0316906342966c6890602401612120565b600061182f83670de0b6b3a764000084612552565b60035460405163556d6e9f60e01b81526001600482015260006024820181905260448201849052916001600160a01b03169063556d6e9f9060640160206040518083038186803b1580156122e957600080fd5b505afa925050508015612319575060408051601f3d908101601f1916820190925261231691810190612702565b60015b61237e577fcf34ef537ac33ee1ac626ca1587a0a7e8e51561e5514f8cb36afa1c5102b3bab60405161236e906020808252600f908201526e5377617020696d706f737369626c6560881b604082015260600190565b60405180910390a1506000919050565b50600192915050565b919050565b612395816118db565b6002546001600160a01b03166000908152600d6020526040812060010180549091906123c29084906127d4565b909155505050565b6000600160ff1b8314806123e15750600160ff1b82145b156123ff5760405163b3c754a360e01b815260040160405180910390fd5b600080600085126124105784612415565b846000035b915060008412612425578361242a565b836000035b9050600061244183670de0b6b3a764000084612552565b90506001600160ff1b0381111561246e57604051637cb4bef560e01b8152600481018290526024016105dc565b6000198087139086138082186001146124875782611fb9565b611fb983612940565b60008080600019848609848602925082811083820303915050670de0b6b3a764000081106124d45760405163698d9a0160e11b8152600481018290526024016105dc565b600080670de0b6b3a76400008688099150506706f05b59d3b1ffff81118261250e5780670de0b6b3a7640000850401945050505050610e51565b620400008285030493909111909103600160ee1b02919091177faccb18165bd6fe31ae1cf318dc5b51eee0e1ba569b88cd74c1773b91fac106690201905092915050565b60008080600019858709858702925082811083820303915050806000141561259b5783828161259157634e487b7160e01b600052601260045260246000fd5b049250505061182f565b8381106125c557604051631dcf306360e21b815260048101829052602481018590526044016105dc565b60008486880960026001871981018816978890046003810283188082028403028082028403028082028403028082028403028082028403029081029092039091026000889003889004909101858311909403939093029303949094049190911702949350505050565b80356001600160a01b038116811461238757600080fd5b600060208284031215612656578081fd5b61182f8261262e565b60008060408385031215612671578081fd5b61267a8361262e565b946020939093013593505050565b6000806000806080858703121561269d578182fd5b6126a68561262e565b9350602085013592506040850135600281106126c0578283fd5b9396929550929360600135925050565b6000806000606084860312156126e4578283fd5b6126ed8461262e565b95602085013595506040909401359392505050565b600060208284031215612713578081fd5b5051919050565b60006020828403121561272b578081fd5b5035919050565b8060005b6002811015612755578151845260209384019390910190600101612736565b50505050565b606081016127698285612732565b8260408301529392505050565b6020808252602a908201527f4f6e6c7920636c656172696e6720686f7573652063616e2063616c6c207468696040820152693990333ab731ba34b7b760b11b606082015260800190565b8281526060810161182f6020830184612732565b600080821280156001600160ff1b03849003851316156127f6576127f661295a565b600160ff1b839003841281161561280f5761280f61295a565b50500190565b600082198211156128285761282861295a565b500190565b60008261284857634e487b7160e01b81526012600452602481fd5b600160ff1b8214600019841416156128625761286261295a565b500590565b60006001600160ff1b038184138284138082168684048611161561288d5761288d61295a565b600160ff1b848712828116878305891216156128ab576128ab61295a565b8587129250878205871284841616156128c6576128c661295a565b878505871281841616156128dc576128dc61295a565b505050929093029392505050565b60008083128015600160ff1b8501841216156129085761290861295a565b6001600160ff1b03840183138116156129235761292361295a565b50500390565b60008282101561293b5761293b61295a565b500390565b6000600160ff1b8214156129565761295661295a565b0390565b634e487b7160e01b600052601160045260246000fdfea26469706673582212204663b755de151894f156efea7c7e7461ca2b5b8a4fdf69d3634d8631771c49e364736f6c63430008040033",
  "devdoc": {
    "kind": "dev",
    "methods": {
      "extendPosition(address,uint256,uint8,uint256)": {
        "details": "No number for the leverage is given but the amount in the vault must be bigger than MIN_MARGIN_AT_CREATIONNo checks are done if bought amount exceeds allowance",
        "params": {
          "amount": "to be sold, in vQuote (if long) or vBase (if short)"
        }
      },
      "getExpectedVBaseAmount(uint256)": {
        "details": "It's up to the client to apply a reduction of this amount (e.g. -1%) to then use it as `minAmount` in `extendPosition`"
      },
      "getExpectedVQuoteAmount(uint256)": {
        "details": "It's up to the client to apply a reduction of this amount (e.g. -1%) to then use it as `minAmount` in `extendPosition`"
      },
      "provideLiquidity(address,uint256)": {
        "params": {
          "account": "liquidity provider",
          "wadAmount": "amount of vQuote provided with 1e18 precision"
        }
      },
      "reducePosition(address,uint256,uint256)": {
        "params": {
          "account": "Trader account to close position for.",
          "minAmount": "Minimum amount that the user is willing to accept, in vQuote if LONG, in vBase if SHORT. 18 decimals",
          "proposedAmount": "Amount of tokens to be sold, in vBase if LONG, in vQuote if SHORT. 18 decimals"
        }
      },
      "removeLiquidity(address,uint256)": {
        "params": {
          "amount": "of liquidity to be removed from the pool (with 18 decimals)"
        }
      },
      "settleAndWithdrawLiquidity(address,uint256,uint256)": {
        "params": {
          "minAmount": "Minimum amount that the user is willing to accept, in vQuote if LONG, in vBase if SHORT. 18 decimals",
          "proposedAmount": "Amount of tokens to be sold, in vBase if LONG, in vQuote if SHORT. 18 decimals"
        }
      }
    },
    "version": 1
  },
  "userdoc": {
    "errors": {
      "PRBMathSD59x18__AbsInputTooSmall()": [
        {
          "notice": "Emitted when the input is MIN_SD59x18."
        }
      ],
      "PRBMathSD59x18__DivInputTooSmall()": [
        {
          "notice": "Emitted when one of the inputs is MIN_SD59x18."
        }
      ],
      "PRBMathSD59x18__DivOverflow(uint256)": [
        {
          "notice": "Emitted when one of the intermediary unsigned results overflows SD59x18."
        }
      ],
      "PRBMathSD59x18__MulInputTooSmall()": [
        {
          "notice": "Emitted when one of the inputs is MIN_SD59x18."
        }
      ],
      "PRBMathSD59x18__MulOverflow(uint256)": [
        {
          "notice": "Emitted when the intermediary absolute result overflows SD59x18."
        }
      ],
      "PRBMath__MulDivFixedPointOverflow(uint256)": [
        {
          "notice": "Emitted when the result overflows uint256."
        }
      ],
      "PRBMath__MulDivOverflow(uint256,uint256)": [
        {
          "notice": "Emitted when the result overflows uint256."
        }
      ]
    },
    "kind": "user",
    "methods": {
      "extendPosition(address,uint256,uint8,uint256)": {
        "notice": "Open or increase a position, either long or short"
      },
      "getBaseDust()": {
        "notice": "TODO: find a way to withdraw the dust"
      },
      "getExpectedVBaseAmount(uint256)": {
        "notice": "Return amount for vBase one would receive for exchanging `vQuoteAmountToSpend` (excluding slippage)"
      },
      "getExpectedVQuoteAmount(uint256)": {
        "notice": "Return amount for vQuote one would receive for exchanging `vBaseAmountToSpend` (excluding slippage)"
      },
      "indexPrice()": {
        "notice": "Return the current off-chain exchange rate for vBase/vQuote"
      },
      "marketPrice()": {
        "notice": "Return the last traded price (used for TWAP)"
      },
      "marketPriceOracle()": {
        "notice": "Return the curve price oracle"
      },
      "provideLiquidity(address,uint256)": {
        "notice": "Provide liquidity to the pool"
      },
      "reducePosition(address,uint256,uint256)": {
        "notice": "Closes position from account holder"
      },
      "removeLiquidity(address,uint256)": {
        "notice": "Remove liquidity from the pool (but don't close LP position and withdraw amount)"
      },
      "settleAndWithdrawLiquidity(address,uint256,uint256)": {
        "notice": "Remove liquidity from the pool (but don't close LP position and withdraw amount).A LP wishing to cash out from his position entirely should first call `removeLiquidity` then `settleAndWithdrawLiquidity`Separated from `removeLiquidity` because `proposedAmount` (for SHORT like positions) can't guessed at the moment when user calls `removeLiquidity`"
      }
    },
    "version": 1
  },
  "storageLayout": {
    "storage": [
      {
        "astId": 3696,
        "contract": "contracts/Perpetual.sol:Perpetual",
        "label": "vBase",
        "offset": 0,
        "slot": "0",
        "type": "t_contract(IVBase)6764"
      },
      {
        "astId": 3700,
        "contract": "contracts/Perpetual.sol:Perpetual",
        "label": "vQuote",
        "offset": 0,
        "slot": "1",
        "type": "t_contract(IVQuote)6771"
      },
      {
        "astId": 3704,
        "contract": "contracts/Perpetual.sol:Perpetual",
        "label": "clearingHouse",
        "offset": 0,
        "slot": "2",
        "type": "t_contract(IClearingHouse)6369"
      },
      {
        "astId": 3708,
        "contract": "contracts/Perpetual.sol:Perpetual",
        "label": "market",
        "offset": 0,
        "slot": "3",
        "type": "t_contract(ICryptoSwap)6444"
      },
      {
        "astId": 3711,
        "contract": "contracts/Perpetual.sol:Perpetual",
        "label": "globalPosition",
        "offset": 0,
        "slot": "4",
        "type": "t_struct(GlobalPosition)7096_storage"
      },
      {
        "astId": 3713,
        "contract": "contracts/Perpetual.sol:Perpetual",
        "label": "totalLiquidityProvided",
        "offset": 0,
        "slot": "6",
        "type": "t_uint256"
      },
      {
        "astId": 3715,
        "contract": "contracts/Perpetual.sol:Perpetual",
        "label": "oracleCumulativeAmount",
        "offset": 0,
        "slot": "7",
        "type": "t_int256"
      },
      {
        "astId": 3717,
        "contract": "contracts/Perpetual.sol:Perpetual",
        "label": "oracleCumulativeAmountAtBeginningOfPeriod",
        "offset": 0,
        "slot": "8",
        "type": "t_int256"
      },
      {
        "astId": 3719,
        "contract": "contracts/Perpetual.sol:Perpetual",
        "label": "oracleTwap",
        "offset": 0,
        "slot": "9",
        "type": "t_int256"
      },
      {
        "astId": 3721,
        "contract": "contracts/Perpetual.sol:Perpetual",
        "label": "marketCumulativeAmount",
        "offset": 0,
        "slot": "10",
        "type": "t_int256"
      },
      {
        "astId": 3723,
        "contract": "contracts/Perpetual.sol:Perpetual",
        "label": "marketCumulativeAmountAtBeginningOfPeriod",
        "offset": 0,
        "slot": "11",
        "type": "t_int256"
      },
      {
        "astId": 3725,
        "contract": "contracts/Perpetual.sol:Perpetual",
        "label": "marketTwap",
        "offset": 0,
        "slot": "12",
        "type": "t_int256"
      },
      {
        "astId": 3730,
        "contract": "contracts/Perpetual.sol:Perpetual",
        "label": "traderPosition",
        "offset": 0,
        "slot": "13",
        "type": "t_mapping(t_address,t_struct(UserPosition)7089_storage)"
      },
      {
        "astId": 3735,
        "contract": "contracts/Perpetual.sol:Perpetual",
        "label": "lpPosition",
        "offset": 0,
        "slot": "14",
        "type": "t_mapping(t_address,t_struct(UserPosition)7089_storage)"
      }
    ],
    "types": {
      "t_address": {
        "encoding": "inplace",
        "label": "address",
        "numberOfBytes": "20"
      },
      "t_contract(IClearingHouse)6369": {
        "encoding": "inplace",
        "label": "contract IClearingHouse",
        "numberOfBytes": "20"
      },
      "t_contract(ICryptoSwap)6444": {
        "encoding": "inplace",
        "label": "contract ICryptoSwap",
        "numberOfBytes": "20"
      },
      "t_contract(IVBase)6764": {
        "encoding": "inplace",
        "label": "contract IVBase",
        "numberOfBytes": "20"
      },
      "t_contract(IVQuote)6771": {
        "encoding": "inplace",
        "label": "contract IVQuote",
        "numberOfBytes": "20"
      },
      "t_int256": {
        "encoding": "inplace",
        "label": "int256",
        "numberOfBytes": "32"
      },
      "t_mapping(t_address,t_struct(UserPosition)7089_storage)": {
        "encoding": "mapping",
        "key": "t_address",
        "label": "mapping(address => struct LibPerpetual.UserPosition)",
        "numberOfBytes": "32",
        "value": "t_struct(UserPosition)7089_storage"
      },
      "t_struct(GlobalPosition)7096_storage": {
        "encoding": "inplace",
        "label": "struct LibPerpetual.GlobalPosition",
        "members": [
          {
            "astId": 7091,
            "contract": "contracts/Perpetual.sol:Perpetual",
            "label": "timeOfLastTrade",
            "offset": 0,
            "slot": "0",
            "type": "t_uint128"
          },
          {
            "astId": 7093,
            "contract": "contracts/Perpetual.sol:Perpetual",
            "label": "timeOfLastFunding",
            "offset": 16,
            "slot": "0",
            "type": "t_uint128"
          },
          {
            "astId": 7095,
            "contract": "contracts/Perpetual.sol:Perpetual",
            "label": "cumFundingRate",
            "offset": 0,
            "slot": "1",
            "type": "t_int256"
          }
        ],
        "numberOfBytes": "64"
      },
      "t_struct(UserPosition)7089_storage": {
        "encoding": "inplace",
        "label": "struct LibPerpetual.UserPosition",
        "members": [
          {
            "astId": 7082,
            "contract": "contracts/Perpetual.sol:Perpetual",
            "label": "openNotional",
            "offset": 0,
            "slot": "0",
            "type": "t_int256"
          },
          {
            "astId": 7084,
            "contract": "contracts/Perpetual.sol:Perpetual",
            "label": "positionSize",
            "offset": 0,
            "slot": "1",
            "type": "t_int256"
          },
          {
            "astId": 7086,
            "contract": "contracts/Perpetual.sol:Perpetual",
            "label": "cumFundingRate",
            "offset": 0,
            "slot": "2",
            "type": "t_int256"
          },
          {
            "astId": 7088,
            "contract": "contracts/Perpetual.sol:Perpetual",
            "label": "liquidityBalance",
            "offset": 0,
            "slot": "3",
            "type": "t_uint256"
          }
        ],
        "numberOfBytes": "128"
      },
      "t_uint128": {
        "encoding": "inplace",
        "label": "uint128",
        "numberOfBytes": "16"
      },
      "t_uint256": {
        "encoding": "inplace",
        "label": "uint256",
        "numberOfBytes": "32"
      }
    }
  }
}