{
  "address": "0x3B8e0E3C0ed49e59D2aEaa2976c1A65dac6B95ac",
  "abi": [
    {
      "inputs": [
        {
          "internalType": "contract IChainlinkOracle",
          "name": "_chainlinkOracle",
          "type": "address"
        }
      ],
      "stateMutability": "nonpayable",
      "type": "constructor"
    },
    {
      "inputs": [],
      "name": "PRBMathSD59x18__DivInputTooSmall",
      "type": "error"
    },
    {
      "inputs": [
        {
          "internalType": "uint256",
          "name": "rAbs",
          "type": "uint256"
        }
      ],
      "name": "PRBMathSD59x18__DivOverflow",
      "type": "error"
    },
    {
      "inputs": [
        {
          "internalType": "uint256",
          "name": "prod1",
          "type": "uint256"
        }
      ],
      "name": "PRBMath__MulDivFixedPointOverflow",
      "type": "error"
    },
    {
      "inputs": [
        {
          "internalType": "uint256",
          "name": "prod1",
          "type": "uint256"
        },
        {
          "internalType": "uint256",
          "name": "denominator",
          "type": "uint256"
        }
      ],
      "name": "PRBMath__MulDivOverflow",
      "type": "error"
    },
    {
      "anonymous": false,
      "inputs": [],
      "name": "TWAPUpdated",
      "type": "event"
    },
    {
      "inputs": [],
      "name": "PERIOD",
      "outputs": [
        {
          "internalType": "uint256",
          "name": "",
          "type": "uint256"
        }
      ],
      "stateMutability": "view",
      "type": "function"
    },
    {
      "inputs": [],
      "name": "VBASE_INDEX",
      "outputs": [
        {
          "internalType": "uint256",
          "name": "",
          "type": "uint256"
        }
      ],
      "stateMutability": "view",
      "type": "function"
    },
    {
      "inputs": [],
      "name": "VQUOTE_INDEX",
      "outputs": [
        {
          "internalType": "uint256",
          "name": "",
          "type": "uint256"
        }
      ],
      "stateMutability": "view",
      "type": "function"
    },
    {
      "inputs": [],
      "name": "chainlinkOracle",
      "outputs": [
        {
          "internalType": "contract IChainlinkOracle",
          "name": "",
          "type": "address"
        }
      ],
      "stateMutability": "view",
      "type": "function"
    },
    {
      "inputs": [],
      "name": "cumulativeAmount",
      "outputs": [
        {
          "internalType": "uint256",
          "name": "",
          "type": "uint256"
        }
      ],
      "stateMutability": "view",
      "type": "function"
    },
    {
      "inputs": [],
      "name": "cumulativeAmountAtBeginningOfPeriod",
      "outputs": [
        {
          "internalType": "uint256",
          "name": "",
          "type": "uint256"
        }
      ],
      "stateMutability": "view",
      "type": "function"
    },
    {
      "inputs": [],
      "name": "cumulativeAmountAtBeginningOfPeriodTmp",
      "outputs": [
        {
          "internalType": "uint256",
          "name": "",
          "type": "uint256"
        }
      ],
      "stateMutability": "view",
      "type": "function"
    },
    {
      "inputs": [],
      "name": "currentEURUSDTWAP",
      "outputs": [
        {
          "internalType": "int256",
          "name": "",
          "type": "int256"
        }
      ],
      "stateMutability": "view",
      "type": "function"
    },
    {
      "inputs": [],
      "name": "getEURUSDTWAP",
      "outputs": [
        {
          "internalType": "int256",
          "name": "",
          "type": "int256"
        }
      ],
      "stateMutability": "view",
      "type": "function"
    },
    {
      "inputs": [],
      "name": "timeOfCumulativeAmount",
      "outputs": [
        {
          "internalType": "uint256",
          "name": "",
          "type": "uint256"
        }
      ],
      "stateMutability": "view",
      "type": "function"
    },
    {
      "inputs": [],
      "name": "timeOfCumulativeAmountAtBeginningOfPeriod",
      "outputs": [
        {
          "internalType": "uint256",
          "name": "",
          "type": "uint256"
        }
      ],
      "stateMutability": "view",
      "type": "function"
    },
    {
      "inputs": [],
      "name": "timeOfCumulativeAmountAtBeginningOfPeriodTmp",
      "outputs": [
        {
          "internalType": "uint256",
          "name": "",
          "type": "uint256"
        }
      ],
      "stateMutability": "view",
      "type": "function"
    },
    {
      "inputs": [],
      "name": "updateEURUSDTWAP",
      "outputs": [],
      "stateMutability": "nonpayable",
      "type": "function"
    }
  ],
  "transactionHash": "0x3c586f3e29a460a5b78a9d6f97e760ca5602170b6cb7e36aba1f831dc13f21ca",
  "args": [
    "0x050E4F2c2033635408b8677029c100C8Ea3A6592"
  ],
  "solcInputHash": "6cc19c32fd6f00ae55276f55201b9520",
  "bytecode": "0x60a060405234801561001057600080fd5b5060405161080438038061080483398101604081905261002f91610044565b60601b6001600160601b031916608052610072565b600060208284031215610055578081fd5b81516001600160a01b038116811461006b578182fd5b9392505050565b60805160601c61076d6100976000396000818161015601526101ab015261076d6000f3fe608060405234801561001057600080fd5b50600436106100cf5760003560e01c80639ff4d5651161008c578063d4b36be611610066578063d4b36be614610136578063db884c0d1461013f578063e3ad64c814610147578063ef06e72c1461015157600080fd5b80639ff4d5651461011b578063b24d9bdf14610124578063b4d1d7951461012d57600080fd5b80632d7b476c146100d45780633c210449146100f057806352c54e82146100f95780635fd85ee214610102578063704a0c701461010a5780637305731814610112575b600080fd5b6100dd60025481565b6040519081526020015b60405180910390f35b6100dd60045481565b6100dd60005481565b6006546100dd565b6100dd600181565b6100dd60015481565b6100dd60065481565b6100dd60055481565b6100dd61038481565b6100dd60035481565b6100dd600081565b61014f610190565b005b6101787f000000000000000000000000000000000000000000000000000000000000000081565b6040516001600160a01b0390911681526020016100e7565b60015442906000906101a290836106f0565b9050600061023f7f00000000000000000000000000000000000000000000000000000000000000006001600160a01b03166358c0994a6040518163ffffffff1660e01b815260040160206040518083038186803b15801561020257600080fd5b505afa158015610216573d6000803e3d6000fd5b505050506040513d601f19601f8201168201806040525081019061023a9190610681565b610319565b905061024b8183610374565b6000546102589190610699565b6000908155600184905560055461026f90856106f0565b905061038481106102bc5760048054600255600580546003556000805490925560015490556040517f2f55e3ddefd45099e59edd68c7f2eb1d279ba3ae04378f6db2752f9c2223313e9190a15b60006102c9600254610389565b6102d4600054610389565b6102de91906106b1565b905060006102ed600354610389565b6102f8600154610389565b61030291906106b1565b905061030e82826103f3565b600655505050505050565b6000808212156103705760405162461bcd60e51b815260206004820181905260248201527f53616665436173743a2076616c7565206d75737420626520706f73697469766560448201526064015b60405180910390fd5b5090565b600061038083836103ff565b90505b92915050565b60006001600160ff1b038211156103705760405162461bcd60e51b815260206004820152602860248201527f53616665436173743a2076616c756520646f65736e27742066697420696e2061604482015267371034b73a191a9b60c11b6064820152608401610367565b6000610380838361040b565b600061038083836104dd565b6000600160ff1b8314806104225750600160ff1b82145b156104405760405163b3c754a360e01b815260040160405180910390fd5b600080600085126104515784610456565b846000035b915060008412610466578361046b565b836000035b9050600061048283670de0b6b3a76400008461059f565b90506001600160ff1b038111156104af57604051637cb4bef560e01b815260048101829052602401610367565b6000198087139086138082186001146104c857826104d1565b6104d183610707565b98975050505050505050565b60008080600019848609848602925082811083820303915050670de0b6b3a764000081106105215760405163698d9a0160e11b815260048101829052602401610367565b600080670de0b6b3a76400008688099150506706f05b59d3b1ffff81118261055b5780670de0b6b3a7640000850401945050505050610383565b620400008285030493909111909103600160ee1b02919091177faccb18165bd6fe31ae1cf318dc5b51eee0e1ba569b88cd74c1773b91fac106690201905092915050565b6000808060001985870985870292508281108382030391505080600014156105e8578382816105de57634e487b7160e01b600052601260045260246000fd5b049250505061067a565b83811061061257604051631dcf306360e21b81526004810182905260248101859052604401610367565b600084868809851960019081018716968790049682860381900495909211909303600082900391909104909201919091029190911760038402600290811880860282030280860282030280860282030280860282030280860282030280860290910302029150505b9392505050565b600060208284031215610692578081fd5b5051919050565b600082198211156106ac576106ac610721565b500190565b60008083128015600160ff1b8501841216156106cf576106cf610721565b6001600160ff1b03840183138116156106ea576106ea610721565b50500390565b60008282101561070257610702610721565b500390565b6000600160ff1b82141561071d5761071d610721565b0390565b634e487b7160e01b600052601160045260246000fdfea26469706673582212204ebe0ff1b4bc515d71e25291f9c79a03f2205c4347a790c65934aeaa30f7a10564736f6c63430008040033",
  "devdoc": {
    "kind": "dev",
    "methods": {},
    "version": 1
  },
  "userdoc": {
    "errors": {
      "PRBMathSD59x18__DivInputTooSmall()": [
        {
          "notice": "Emitted when one of the inputs is MIN_SD59x18."
        }
      ],
      "PRBMathSD59x18__DivOverflow(uint256)": [
        {
          "notice": "Emitted when one of the intermediary unsigned results overflows SD59x18."
        }
      ],
      "PRBMath__MulDivFixedPointOverflow(uint256)": [
        {
          "notice": "Emitted when the result overflows uint256."
        }
      ],
      "PRBMath__MulDivOverflow(uint256,uint256)": [
        {
          "notice": "Emitted when the result overflows uint256."
        }
      ]
    },
    "kind": "user",
    "methods": {},
    "version": 1
  },
  "storageLayout": {
    "storage": [
      {
        "astId": 6986,
        "contract": "contracts/oracles/ChainlinkTWAPOracle.sol:ChainlinkTWAPOracle",
        "label": "cumulativeAmount",
        "offset": 0,
        "slot": "0",
        "type": "t_uint256"
      },
      {
        "astId": 6988,
        "contract": "contracts/oracles/ChainlinkTWAPOracle.sol:ChainlinkTWAPOracle",
        "label": "timeOfCumulativeAmount",
        "offset": 0,
        "slot": "1",
        "type": "t_uint256"
      },
      {
        "astId": 6990,
        "contract": "contracts/oracles/ChainlinkTWAPOracle.sol:ChainlinkTWAPOracle",
        "label": "cumulativeAmountAtBeginningOfPeriod",
        "offset": 0,
        "slot": "2",
        "type": "t_uint256"
      },
      {
        "astId": 6992,
        "contract": "contracts/oracles/ChainlinkTWAPOracle.sol:ChainlinkTWAPOracle",
        "label": "timeOfCumulativeAmountAtBeginningOfPeriod",
        "offset": 0,
        "slot": "3",
        "type": "t_uint256"
      },
      {
        "astId": 6994,
        "contract": "contracts/oracles/ChainlinkTWAPOracle.sol:ChainlinkTWAPOracle",
        "label": "cumulativeAmountAtBeginningOfPeriodTmp",
        "offset": 0,
        "slot": "4",
        "type": "t_uint256"
      },
      {
        "astId": 6996,
        "contract": "contracts/oracles/ChainlinkTWAPOracle.sol:ChainlinkTWAPOracle",
        "label": "timeOfCumulativeAmountAtBeginningOfPeriodTmp",
        "offset": 0,
        "slot": "5",
        "type": "t_uint256"
      },
      {
        "astId": 6998,
        "contract": "contracts/oracles/ChainlinkTWAPOracle.sol:ChainlinkTWAPOracle",
        "label": "currentEURUSDTWAP",
        "offset": 0,
        "slot": "6",
        "type": "t_int256"
      }
    ],
    "types": {
      "t_int256": {
        "encoding": "inplace",
        "label": "int256",
        "numberOfBytes": "32"
      },
      "t_uint256": {
        "encoding": "inplace",
        "label": "uint256",
        "numberOfBytes": "32"
      }
    }
  }
}