{
  "address": "0xb937721839095bc0F67101c24cc11E9Afa552634",
  "abi": [
    {
      "inputs": [
        {
          "internalType": "contract IVault",
          "name": "_vault",
          "type": "address"
        },
        {
          "internalType": "contract IInsurance",
          "name": "_insurance",
          "type": "address"
        }
      ],
      "stateMutability": "nonpayable",
      "type": "constructor"
    },
    {
      "inputs": [],
      "name": "PRBMathSD59x18__AbsInputTooSmall",
      "type": "error"
    },
    {
      "inputs": [],
      "name": "PRBMathSD59x18__DivInputTooSmall",
      "type": "error"
    },
    {
      "inputs": [
        {
          "internalType": "uint256",
          "name": "rAbs",
          "type": "uint256"
        }
      ],
      "name": "PRBMathSD59x18__DivOverflow",
      "type": "error"
    },
    {
      "inputs": [],
      "name": "PRBMathSD59x18__MulInputTooSmall",
      "type": "error"
    },
    {
      "inputs": [
        {
          "internalType": "uint256",
          "name": "rAbs",
          "type": "uint256"
        }
      ],
      "name": "PRBMathSD59x18__MulOverflow",
      "type": "error"
    },
    {
      "inputs": [
        {
          "internalType": "uint256",
          "name": "prod1",
          "type": "uint256"
        }
      ],
      "name": "PRBMath__MulDivFixedPointOverflow",
      "type": "error"
    },
    {
      "inputs": [
        {
          "internalType": "uint256",
          "name": "prod1",
          "type": "uint256"
        },
        {
          "internalType": "uint256",
          "name": "denominator",
          "type": "uint256"
        }
      ],
      "name": "PRBMath__MulDivOverflow",
      "type": "error"
    },
    {
      "anonymous": false,
      "inputs": [
        {
          "indexed": true,
          "internalType": "uint256",
          "name": "idx",
          "type": "uint256"
        },
        {
          "indexed": true,
          "internalType": "address",
          "name": "user",
          "type": "address"
        },
        {
          "indexed": true,
          "internalType": "address",
          "name": "asset",
          "type": "address"
        },
        {
          "indexed": false,
          "internalType": "uint256",
          "name": "amount",
          "type": "uint256"
        }
      ],
      "name": "Deposit",
      "type": "event"
    },
    {
      "anonymous": false,
      "inputs": [
        {
          "indexed": true,
          "internalType": "uint256",
          "name": "idx",
          "type": "uint256"
        },
        {
          "indexed": false,
          "internalType": "int256",
          "name": "profit",
          "type": "int256"
        }
      ],
      "name": "DustSold",
      "type": "event"
    },
    {
      "anonymous": false,
      "inputs": [
        {
          "indexed": true,
          "internalType": "uint256",
          "name": "idx",
          "type": "uint256"
        },
        {
          "indexed": true,
          "internalType": "address",
          "name": "user",
          "type": "address"
        },
        {
          "indexed": false,
          "internalType": "enum LibPerpetual.Side",
          "name": "direction",
          "type": "uint8"
        },
        {
          "indexed": false,
          "internalType": "int256",
          "name": "addedOpenNotional",
          "type": "int256"
        },
        {
          "indexed": false,
          "internalType": "int256",
          "name": "addedPositionSize",
          "type": "int256"
        }
      ],
      "name": "ExtendPosition",
      "type": "event"
    },
    {
      "anonymous": false,
      "inputs": [
        {
          "indexed": false,
          "internalType": "uint256",
          "name": "amount",
          "type": "uint256"
        }
      ],
      "name": "InsuranceRemoved",
      "type": "event"
    },
    {
      "anonymous": false,
      "inputs": [
        {
          "indexed": true,
          "internalType": "uint256",
          "name": "idx",
          "type": "uint256"
        },
        {
          "indexed": true,
          "internalType": "address",
          "name": "liquidatee",
          "type": "address"
        },
        {
          "indexed": true,
          "internalType": "address",
          "name": "liquidator",
          "type": "address"
        },
        {
          "indexed": false,
          "internalType": "uint256",
          "name": "notional",
          "type": "uint256"
        }
      ],
      "name": "LiquidationCall",
      "type": "event"
    },
    {
      "anonymous": false,
      "inputs": [
        {
          "indexed": true,
          "internalType": "uint256",
          "name": "idx",
          "type": "uint256"
        },
        {
          "indexed": true,
          "internalType": "address",
          "name": "liquidityProvider",
          "type": "address"
        },
        {
          "indexed": true,
          "internalType": "address",
          "name": "asset",
          "type": "address"
        },
        {
          "indexed": false,
          "internalType": "uint256",
          "name": "amount",
          "type": "uint256"
        }
      ],
      "name": "LiquidityProvided",
      "type": "event"
    },
    {
      "anonymous": false,
      "inputs": [
        {
          "indexed": true,
          "internalType": "uint256",
          "name": "idx",
          "type": "uint256"
        },
        {
          "indexed": true,
          "internalType": "address",
          "name": "liquidityProvider",
          "type": "address"
        },
        {
          "indexed": false,
          "internalType": "uint256",
          "name": "removedLiquidity",
          "type": "uint256"
        },
        {
          "indexed": false,
          "internalType": "int256",
          "name": "vQuoteProceeds",
          "type": "int256"
        },
        {
          "indexed": false,
          "internalType": "int256",
          "name": "vBaseAmount",
          "type": "int256"
        },
        {
          "indexed": false,
          "internalType": "int256",
          "name": "profit",
          "type": "int256"
        },
        {
          "indexed": true,
          "internalType": "address",
          "name": "asset",
          "type": "address"
        }
      ],
      "name": "LiquidityRemoved",
      "type": "event"
    },
    {
      "anonymous": false,
      "inputs": [
        {
          "indexed": true,
          "internalType": "contract IPerpetual",
          "name": "perpetual",
          "type": "address"
        },
        {
          "indexed": false,
          "internalType": "uint256",
          "name": "numPerpetuals",
          "type": "uint256"
        }
      ],
      "name": "MarketAdded",
      "type": "event"
    },
    {
      "anonymous": false,
      "inputs": [
        {
          "indexed": false,
          "internalType": "address",
          "name": "account",
          "type": "address"
        }
      ],
      "name": "Paused",
      "type": "event"
    },
    {
      "anonymous": false,
      "inputs": [
        {
          "indexed": true,
          "internalType": "uint256",
          "name": "idx",
          "type": "uint256"
        },
        {
          "indexed": true,
          "internalType": "address",
          "name": "user",
          "type": "address"
        },
        {
          "indexed": false,
          "internalType": "int256",
          "name": "reducedOpenNotional",
          "type": "int256"
        },
        {
          "indexed": false,
          "internalType": "int256",
          "name": "reducedPositionSize",
          "type": "int256"
        }
      ],
      "name": "ReducePosition",
      "type": "event"
    },
    {
      "anonymous": false,
      "inputs": [
        {
          "indexed": true,
          "internalType": "address",
          "name": "sender",
          "type": "address"
        },
        {
          "indexed": true,
          "internalType": "address",
          "name": "recipient",
          "type": "address"
        }
      ],
      "name": "TransferOwner",
      "type": "event"
    },
    {
      "anonymous": false,
      "inputs": [
        {
          "indexed": true,
          "internalType": "address",
          "name": "sender",
          "type": "address"
        },
        {
          "indexed": true,
          "internalType": "address",
          "name": "recipient",
          "type": "address"
        }
      ],
      "name": "TransferOwnerClaim",
      "type": "event"
    },
    {
      "anonymous": false,
      "inputs": [
        {
          "indexed": false,
          "internalType": "address",
          "name": "account",
          "type": "address"
        }
      ],
      "name": "Unpaused",
      "type": "event"
    },
    {
      "anonymous": false,
      "inputs": [
        {
          "indexed": true,
          "internalType": "uint256",
          "name": "idx",
          "type": "uint256"
        },
        {
          "indexed": true,
          "internalType": "address",
          "name": "user",
          "type": "address"
        },
        {
          "indexed": true,
          "internalType": "address",
          "name": "asset",
          "type": "address"
        },
        {
          "indexed": false,
          "internalType": "uint256",
          "name": "amount",
          "type": "uint256"
        }
      ],
      "name": "Withdraw",
      "type": "event"
    },
    {
      "inputs": [],
      "name": "INSURANCE_FEE",
      "outputs": [
        {
          "internalType": "int256",
          "name": "",
          "type": "int256"
        }
      ],
      "stateMutability": "view",
      "type": "function"
    },
    {
      "inputs": [],
      "name": "INSURANCE_RATIO",
      "outputs": [
        {
          "internalType": "uint256",
          "name": "",
          "type": "uint256"
        }
      ],
      "stateMutability": "view",
      "type": "function"
    },
    {
      "inputs": [],
      "name": "LIQUIDATION_REWARD",
      "outputs": [
        {
          "internalType": "uint256",
          "name": "",
          "type": "uint256"
        }
      ],
      "stateMutability": "view",
      "type": "function"
    },
    {
      "inputs": [],
      "name": "MIN_MARGIN",
      "outputs": [
        {
          "internalType": "int256",
          "name": "",
          "type": "int256"
        }
      ],
      "stateMutability": "view",
      "type": "function"
    },
    {
      "inputs": [],
      "name": "MIN_MARGIN_AT_CREATION",
      "outputs": [
        {
          "internalType": "int256",
          "name": "",
          "type": "int256"
        }
      ],
      "stateMutability": "view",
      "type": "function"
    },
    {
      "inputs": [
        {
          "internalType": "contract IPerpetual",
          "name": "perp",
          "type": "address"
        }
      ],
      "name": "allowListPerpetual",
      "outputs": [],
      "stateMutability": "nonpayable",
      "type": "function"
    },
    {
      "inputs": [],
      "name": "claimOwner",
      "outputs": [],
      "stateMutability": "nonpayable",
      "type": "function"
    },
    {
      "inputs": [
        {
          "internalType": "uint256",
          "name": "idx",
          "type": "uint256"
        },
        {
          "internalType": "uint256",
          "name": "proposedAmount",
          "type": "uint256"
        },
        {
          "internalType": "uint256",
          "name": "minAmount",
          "type": "uint256"
        },
        {
          "internalType": "contract IERC20",
          "name": "token",
          "type": "address"
        }
      ],
      "name": "closePositionWithdrawCollateral",
      "outputs": [],
      "stateMutability": "nonpayable",
      "type": "function"
    },
    {
      "inputs": [
        {
          "internalType": "uint256",
          "name": "idx",
          "type": "uint256"
        },
        {
          "internalType": "uint256",
          "name": "amount",
          "type": "uint256"
        },
        {
          "internalType": "contract IERC20",
          "name": "token",
          "type": "address"
        }
      ],
      "name": "deposit",
      "outputs": [],
      "stateMutability": "nonpayable",
      "type": "function"
    },
    {
      "inputs": [
        {
          "internalType": "uint256",
          "name": "idx",
          "type": "uint256"
        },
        {
          "internalType": "uint256",
          "name": "amount",
          "type": "uint256"
        },
        {
          "internalType": "enum LibPerpetual.Side",
          "name": "direction",
          "type": "uint8"
        },
        {
          "internalType": "uint256",
          "name": "minAmount",
          "type": "uint256"
        }
      ],
      "name": "extendPosition",
      "outputs": [
        {
          "internalType": "int256",
          "name": "addedOpenNotional",
          "type": "int256"
        },
        {
          "internalType": "int256",
          "name": "addedPositionSize",
          "type": "int256"
        }
      ],
      "stateMutability": "nonpayable",
      "type": "function"
    },
    {
      "inputs": [
        {
          "internalType": "uint256",
          "name": "idx",
          "type": "uint256"
        },
        {
          "internalType": "uint256",
          "name": "collateralAmount",
          "type": "uint256"
        },
        {
          "internalType": "contract IERC20",
          "name": "token",
          "type": "address"
        },
        {
          "internalType": "uint256",
          "name": "positionAmount",
          "type": "uint256"
        },
        {
          "internalType": "enum LibPerpetual.Side",
          "name": "direction",
          "type": "uint8"
        },
        {
          "internalType": "uint256",
          "name": "minAmount",
          "type": "uint256"
        }
      ],
      "name": "extendPositionWithCollateral",
      "outputs": [
        {
          "internalType": "int256",
          "name": "",
          "type": "int256"
        },
        {
          "internalType": "int256",
          "name": "",
          "type": "int256"
        }
      ],
      "stateMutability": "nonpayable",
      "type": "function"
    },
    {
      "inputs": [],
      "name": "getNumMarkets",
      "outputs": [
        {
          "internalType": "uint256",
          "name": "",
          "type": "uint256"
        }
      ],
      "stateMutability": "view",
      "type": "function"
    },
    {
      "inputs": [],
      "name": "insurance",
      "outputs": [
        {
          "internalType": "contract IInsurance",
          "name": "",
          "type": "address"
        }
      ],
      "stateMutability": "view",
      "type": "function"
    },
    {
      "inputs": [
        {
          "internalType": "uint256",
          "name": "idx",
          "type": "uint256"
        },
        {
          "internalType": "address",
          "name": "liquidatee",
          "type": "address"
        },
        {
          "internalType": "uint256",
          "name": "proposedAmount",
          "type": "uint256"
        }
      ],
      "name": "liquidate",
      "outputs": [],
      "stateMutability": "nonpayable",
      "type": "function"
    },
    {
      "inputs": [
        {
          "internalType": "uint256",
          "name": "idx",
          "type": "uint256"
        },
        {
          "internalType": "address",
          "name": "account",
          "type": "address"
        },
        {
          "internalType": "int256",
          "name": "ratio",
          "type": "int256"
        }
      ],
      "name": "marginIsValid",
      "outputs": [
        {
          "internalType": "bool",
          "name": "",
          "type": "bool"
        }
      ],
      "stateMutability": "view",
      "type": "function"
    },
    {
      "inputs": [
        {
          "internalType": "uint256",
          "name": "idx",
          "type": "uint256"
        },
        {
          "internalType": "address",
          "name": "account",
          "type": "address"
        }
      ],
      "name": "marginRatio",
      "outputs": [
        {
          "internalType": "int256",
          "name": "",
          "type": "int256"
        }
      ],
      "stateMutability": "view",
      "type": "function"
    },
    {
      "inputs": [],
      "name": "owner",
      "outputs": [
        {
          "internalType": "address",
          "name": "",
          "type": "address"
        }
      ],
      "stateMutability": "view",
      "type": "function"
    },
    {
      "inputs": [],
      "name": "pause",
      "outputs": [],
      "stateMutability": "nonpayable",
      "type": "function"
    },
    {
      "inputs": [],
      "name": "paused",
      "outputs": [
        {
          "internalType": "bool",
          "name": "",
          "type": "bool"
        }
      ],
      "stateMutability": "view",
      "type": "function"
    },
    {
      "inputs": [],
      "name": "pendingOwner",
      "outputs": [
        {
          "internalType": "address",
          "name": "",
          "type": "address"
        }
      ],
      "stateMutability": "view",
      "type": "function"
    },
    {
      "inputs": [
        {
          "internalType": "uint256",
          "name": "",
          "type": "uint256"
        }
      ],
      "name": "perpetuals",
      "outputs": [
        {
          "internalType": "contract IPerpetual",
          "name": "",
          "type": "address"
        }
      ],
      "stateMutability": "view",
      "type": "function"
    },
    {
      "inputs": [
        {
          "internalType": "uint256",
          "name": "idx",
          "type": "uint256"
        },
        {
          "internalType": "uint256",
          "name": "amount",
          "type": "uint256"
        },
        {
          "internalType": "contract IERC20",
          "name": "token",
          "type": "address"
        }
      ],
      "name": "provideLiquidity",
      "outputs": [
        {
          "internalType": "uint256",
          "name": "wadAmount",
          "type": "uint256"
        },
        {
          "internalType": "uint256",
          "name": "baseAmount",
          "type": "uint256"
        }
      ],
      "stateMutability": "nonpayable",
      "type": "function"
    },
    {
      "inputs": [
        {
          "internalType": "uint256",
          "name": "idx",
          "type": "uint256"
        },
        {
          "internalType": "uint256",
          "name": "reductionRatio",
          "type": "uint256"
        },
        {
          "internalType": "uint256",
          "name": "proposedAmount",
          "type": "uint256"
        },
        {
          "internalType": "uint256",
          "name": "minAmount",
          "type": "uint256"
        }
      ],
      "name": "reducePosition",
      "outputs": [],
      "stateMutability": "nonpayable",
      "type": "function"
    },
    {
      "inputs": [
        {
          "internalType": "uint256",
          "name": "amount",
          "type": "uint256"
        },
        {
          "internalType": "contract IERC20",
          "name": "token",
          "type": "address"
        }
      ],
      "name": "removeInsurance",
      "outputs": [],
      "stateMutability": "nonpayable",
      "type": "function"
    },
    {
      "inputs": [
        {
          "internalType": "uint256",
          "name": "idx",
          "type": "uint256"
        },
        {
          "internalType": "uint256",
          "name": "liquidityAmountToRemove",
          "type": "uint256"
        },
        {
          "internalType": "uint256",
          "name": "reductionRatio",
          "type": "uint256"
        },
        {
          "internalType": "uint256",
          "name": "proposedAmount",
          "type": "uint256"
        },
        {
          "internalType": "uint256",
          "name": "minAmount",
          "type": "uint256"
        },
        {
          "internalType": "contract IERC20",
          "name": "token",
          "type": "address"
        }
      ],
      "name": "removeLiquidity",
      "outputs": [],
      "stateMutability": "nonpayable",
      "type": "function"
    },
    {
      "inputs": [
        {
          "internalType": "uint256",
          "name": "idx",
          "type": "uint256"
        },
        {
          "internalType": "uint256",
          "name": "proposedAmount",
          "type": "uint256"
        },
        {
          "internalType": "uint256",
          "name": "minAmount",
          "type": "uint256"
        },
        {
          "internalType": "contract IERC20",
          "name": "token",
          "type": "address"
        }
      ],
      "name": "sellDust",
      "outputs": [],
      "stateMutability": "nonpayable",
      "type": "function"
    },
    {
      "inputs": [
        {
          "internalType": "address",
          "name": "recipient",
          "type": "address"
        },
        {
          "internalType": "bool",
          "name": "direct",
          "type": "bool"
        }
      ],
      "name": "transferOwner",
      "outputs": [],
      "stateMutability": "nonpayable",
      "type": "function"
    },
    {
      "inputs": [],
      "name": "unpause",
      "outputs": [],
      "stateMutability": "nonpayable",
      "type": "function"
    },
    {
      "inputs": [],
      "name": "vault",
      "outputs": [
        {
          "internalType": "contract IVault",
          "name": "",
          "type": "address"
        }
      ],
      "stateMutability": "view",
      "type": "function"
    },
    {
      "inputs": [
        {
          "internalType": "uint256",
          "name": "idx",
          "type": "uint256"
        },
        {
          "internalType": "uint256",
          "name": "amount",
          "type": "uint256"
        },
        {
          "internalType": "contract IERC20",
          "name": "token",
          "type": "address"
        }
      ],
      "name": "withdraw",
      "outputs": [],
      "stateMutability": "nonpayable",
      "type": "function"
    }
  ],
  "transactionHash": "0xf7d9ca569832369b97f6cbc837b1ebf11a2d8c9a985dfad01ac7396e1f52355a",
  "args": [
    "0x7b3D01F5Fc537E8758e50d4cBAb89e93d4fDbea0",
    "0xF6016Ff1946b054D29278F85697bc1c5edc84df1"
  ],
  "solcInputHash": "cb098641b37ae582345c84cb881fcf38",
  "bytecode": "0x60806040523480156200001157600080fd5b506040516200313338038062003133833981016040819052620000349162000166565b600080546001600160a01b0319163390811782556040519091907f5bb496b3f951b55d3a1d8e479725a4d25bdc7644fc355f0b71c540354820a1c5908290a36001805460ff60a01b191690556001600160a01b038216620000dc5760405162461bcd60e51b815260206004820152601960248201527f5661756c7420616464726573732063616e6e6f7420626520300000000000000060448201526064015b60405180910390fd5b6001600160a01b038116620001345760405162461bcd60e51b815260206004820152601d60248201527f496e737572616e636520616464726573732063616e6e6f7420626520300000006044820152606401620000d3565b600280546001600160a01b039384166001600160a01b03199182161790915560038054929093169116179055620001bd565b6000806040838503121562000179578182fd5b82516200018681620001a4565b60208401519092506200019981620001a4565b809150509250929050565b6001600160a01b0381168114620001ba57600080fd5b50565b612f6680620001cd6000396000f3fe608060405234801561001057600080fd5b50600436106101da5760003560e01c806379bd1eac11610104578063c63ec8ff116100a2578063e1b034cb11610071578063e1b034cb146103d9578063e30c3978146103ec578063eee8a168146103ff578063fbfa77cf1461040d57600080fd5b8063c63ec8ff14610398578063c8401fd3146103ab578063ce1d8747146103b3578063cf81afaa146103c657600080fd5b806389cf3204116100de57806389cf3204146103515780638da5cb5b146103645780638dbdbe6d14610377578063ad0d75941461038a57600080fd5b806379bd1eac14610323578063813b118b146103365780638456cb591461034957600080fd5b80633aa75d421161017c5780634d175c9c1161014b5780634d175c9c146102c457806359a1ecaa146102d357806359f77e2d146102fe5780635c975abb1461031157600080fd5b80633aa75d421461027e5780633bd1adec146102a15780633f4ba83a146102a957806345301eda146102b157600080fd5b80631d48cd96116101b85780631d48cd96146102285780632046cc2e1461023b578063295c39a51461024e578063302137021461025657600080fd5b80630ad58d2f146101df5780630d48c4cb146101f45780631573b57714610207575b600080fd5b6101f26101ed366004612b0c565b610420565b005b6101f2610202366004612bd9565b610592565b61021566038d7ea4c6800081565b6040519081526020015b60405180910390f35b6101f26102363660046129a4565b610857565b6101f2610249366004612bd9565b610906565b600454610215565b610269610264366004612b0c565b610a2f565b6040805192835260208301919091520161021f565b61029161028c366004612ab2565b610ca6565b604051901515815260200161021f565b6101f2610cbf565b6101f2610d65565b6102156102bf366004612a8e565b610d99565b61021567016345785d8a000081565b6102e66102e1366004612a76565b610e02565b6040516001600160a01b03909116815260200161021f565b61026961030c366004612b44565b610e2c565b600154600160a01b900460ff16610291565b6101f2610331366004612ab2565b610e86565b610269610344366004612b9d565b61120d565b6101f26114fc565b6003546102e6906001600160a01b031681565b6000546102e6906001600160a01b031681565b6101f2610385366004612b0c565b61152e565b61021566354a6ba7a1800081565b6101f26103a6366004612a8e565b611641565b610215611922565b6101f26103c1366004612c19565b61193d565b6101f26103d4366004612950565b611b2d565b6101f26103e7366004612c4a565b611c3b565b6001546102e6906001600160a01b031681565b6102156658d15e1762800081565b6002546102e6906001600160a01b031681565b600154600160a01b900460ff16156104535760405162461bcd60e51b815260040161044a90612ddd565b60405180910390fd5b600254604051637a8b6cad60e01b81526000916001600160a01b031690637a8b6cad9061048d908790339088908890600190600401612d7a565b602060405180830381600087803b1580156104a757600080fd5b505af11580156104bb573d6000803e3d6000fd5b505050506040513d601f19601f820116820180604052508101906104df91906129c0565b90506104fe843361028c6658d15e1762800066c3663566a58000612e2a565b61053e5760405162461bcd60e51b81526020600482015260116024820152702737ba1032b737bab3b41036b0b933b4b760791b604482015260640161044a565b816001600160a01b0316336001600160a01b0316857ffeb2000dca3e617cd6f3a8bbb63014bb54a124aac6ccbf73ee7229b4cd01f1208460405161058491815260200190565b60405180910390a450505050565b6000546001600160a01b031633146105bc5760405162461bcd60e51b815260040161044a90612e07565b6000600485815481106105df57634e487b7160e01b600052603260045260246000fd5b60009182526020909120015460405163b3a8cc0560e01b81526001600160a01b039091169063b3a8cc0590610626903090670de0b6b3a76400009089908990600401612d0f565b606060405180830381600087803b15801561064057600080fd5b505af1158015610654573d6000803e3d6000fd5b505050506040513d601f19601f8201168201806040525081019061067891906129d8565b600254604051631b27ecdd60e21b81529194506001600160a01b03169250636c9fb37491506106b290600190309086908390600401612d54565b600060405180830381600087803b1580156106cc57600080fd5b505af11580156106e0573d6000803e3d6000fd5b505060025460405163da77cedb60e01b81526001600482018190523060248301526001600160a01b038781166044840152606483019190915260009450909116915063da77cedb90608401602060405180830381600087803b15801561074557600080fd5b505af1158015610759573d6000803e3d6000fd5b505050506040513d601f19601f8201168201806040525081019061077d91906129c0565b1161078757600080fd5b6040516370a0823160e01b81523060048201526108169033906001600160a01b038516906370a08231906024015b60206040518083038186803b1580156107cd57600080fd5b505afa1580156107e1573d6000803e3d6000fd5b505050506040513d601f19601f8201168201806040525081019061080591906129c0565b6001600160a01b0385169190611edd565b847f96d0284e042317c02550d6522426b8938bc365bc6c2fd42594b358ff2fbdd5e68260405161084891815260200190565b60405180910390a25050505050565b6000546001600160a01b031633146108815760405162461bcd60e51b815260040161044a90612e07565b6004805460018101825560008290527f8a35acfbc15ff81a39ae7d344fd709f28e8600b4aa8c65c6b64bfe7fe36bd19b0180546001600160a01b0319166001600160a01b03841690811790915590546040519081527fa64754291535175942be6f35fba8deab36d97ea608b17d06cc5efb985e17215f9060200160405180910390a250565b600154600160a01b900460ff16156109305760405162461bcd60e51b815260040161044a90612ddd565b61094484670de0b6b3a7640000858561193d565b60025460405163da77cedb60e01b8152600481018690523360248201526001600160a01b03838116604483015260016064830152600092169063da77cedb90608401602060405180830381600087803b1580156109a057600080fd5b505af11580156109b4573d6000803e3d6000fd5b505050506040513d601f19601f820116820180604052508101906109d891906129c0565b9050816001600160a01b0316336001600160a01b0316867ffeb2000dca3e617cd6f3a8bbb63014bb54a124aac6ccbf73ee7229b4cd01f12084604051610a2091815260200190565b60405180910390a45050505050565b600080610a4660015460ff600160a01b9091041690565b15610a635760405162461bcd60e51b815260040161044a90612ddd565b83610a9e5760405162461bcd60e51b815260206004820152600b60248201526a16995c9bc8185b5bdd5b9d60aa1b604482015260640161044a565b60025460405163a45052c960e01b81526001600160a01b039091169063a45052c990610ad7908890339089908990600090600401612d7a565b602060405180830381600087803b158015610af157600080fd5b505af1158015610b05573d6000803e3d6000fd5b505050506040513d601f19601f82011682018060405250810190610b2991906129c0565b9150600060048681548110610b4e57634e487b7160e01b600052603260045260246000fd5b6000918252602090912001546040516302ff530960e51b8152336004820152602481018590526001600160a01b0390911690635fea6120906044016040805180830381600087803b158015610ba257600080fd5b505af1158015610bb6573d6000803e3d6000fd5b505050506040513d601f19601f82011682018060405250810190610bda9190612ae9565b90925090508015610c4f57600254604051631b27ecdd60e21b81526001600160a01b0390911690636c9fb37490610c1c90899033908690600090600401612d54565b600060405180830381600087803b158015610c3657600080fd5b505af1158015610c4a573d6000803e3d6000fd5b505050505b836001600160a01b0316336001600160a01b0316877ff2460e83503d3438ae777542c8cce71cd5e03aa2e741d95ebcf23afe0bb1728a88604051610c9591815260200190565b60405180910390a450935093915050565b600081610cb38585610d99565b121590505b9392505050565b6001546001600160a01b03163314610d0d5760405162461bcd60e51b81526020600482015260116024820152702727aa2fa822a72224a723afa7aba722a960791b604482015260640161044a565b6000805460405133926001600160a01b03909216917f5bb496b3f951b55d3a1d8e479725a4d25bdc7644fc355f0b71c540354820a1c591a3600080546001600160a01b03199081163317909155600180549091169055565b6000546001600160a01b03163314610d8f5760405162461bcd60e51b815260040161044a90612e07565b610d97611f34565b565b600080610da68484611fd1565b51905080610dbf57670de0b6b3a7640000915050610dfc565b6000610dcb85856120a3565b90506000610dd98686612129565b90506000610de78787612187565b9050610df5838284876121e5565b9450505050505b92915050565b60048181548110610e1257600080fd5b6000918252602090912001546001600160a01b0316905081565b600080610e4360015460ff600160a01b9091041690565b15610e605760405162461bcd60e51b815260040161044a90612ddd565b610e6b88888861152e565b610e778886868661120d565b91509150965096945050505050565b600154600160a01b900460ff1615610eb05760405162461bcd60e51b815260040161044a90612ddd565b336000610ec6610ec08686611fd1565b51612217565b905080610f155760405162461bcd60e51b815260206004820152601c60248201527f4e6f20706f736974696f6e2063757272656e746c79206f70656e656400000000604482015260640161044a565b610f2785856658d15e17628000610ca6565b15610f665760405162461bcd60e51b815260206004820152600f60248201526e13585c99da5b881a5cc81d985b1a59608a1b604482015260640161044a565b600060048681548110610f8957634e487b7160e01b600052603260045260246000fd5b600091825260208220015460405163b3a8cc0560e01b81526001600160a01b039091169163b3a8cc0591610fcd918991670de0b6b3a7640000918a91600401612d0f565b606060405180830381600087803b158015610fe757600080fd5b505af1158015610ffb573d6000803e3d6000fd5b505050506040513d601f19601f8201168201806040525081019061101f91906129d8565b9250505061102d8686611fd1565b51156110b05760405162461bcd60e51b815260206004820152604660248201527f50726f706f73656420616d6f756e7420696e73756666696369656e7420746f2060448201527f6c69717569646174652074686520706f736974696f6e20696e2069747320656e60648201526574697265747960d01b608482015260a40161044a565b60006110c38366354a6ba7a18000612222565b905060006110d08261222e565b6110da9084612e6b565b600254604051631b27ecdd60e21b81529192506001600160a01b031690636c9fb37490611112908b908b908690600190600401612d54565b600060405180830381600087803b15801561112c57600080fd5b505af1158015611140573d6000803e3d6000fd5b50506002546001600160a01b03169150636c9fb374905089876111628661222e565b60016040518563ffffffff1660e01b81526004016111839493929190612d54565b600060405180830381600087803b15801561119d57600080fd5b505af11580156111b1573d6000803e3d6000fd5b50505050846001600160a01b0316876001600160a01b0316897f19a800bd1189221901c32c4ced18afe41c45969c0b5e97b8ebf4124e169339cc876040516111fb91815260200190565b60405180910390a45050505050505050565b60008061122460015460ff600160a01b9091041690565b156112415760405162461bcd60e51b815260040161044a90612ddd565b600085116112915760405162461bcd60e51b815260206004820152601860248201527f54686520616d6f756e742063616e2774206265206e756c6c0000000000000000604482015260640161044a565b6000600487815481106112b457634e487b7160e01b600052603260045260246000fd5b6000918252602090912001546040516316d5ce6360e21b81526001600160a01b0390911690635b57398c906112f39033908a908a908a90600401612cdc565b606060405180830381600087803b15801561130d57600080fd5b505af1158015611321573d6000803e3d6000fd5b505050506040513d601f19601f8201168201806040525081019061134591906129d8565b91945092509050600061136866038d7ea4c6800061136286612217565b90612239565b600254604051631b27ecdd60e21b81529192506001600160a01b031690636c9fb374906113a19060009030908690600190600401612d54565b600060405180830381600087803b1580156113bb57600080fd5b505af11580156113cf573d6000803e3d6000fd5b50505050600081836113e19190612e6b565b600254604051631b27ecdd60e21b81529192506001600160a01b031690636c9fb37490611419908c9033908690600190600401612d54565b600060405180830381600087803b15801561143357600080fd5b505af1158015611447573d6000803e3d6000fd5b5050505061146a89336658d15e1762800066c3663566a5800061028c9190612e2a565b6114aa5760405162461bcd60e51b81526020600482015260116024820152702737ba1032b737bab3b41036b0b933b4b760791b604482015260640161044a565b336001600160a01b0316897f0ae497e6575eb6790830f766dd54d34d4a0e47af179edbf7d13c2bbe51a6083b8988886040516114e893929190612d35565b60405180910390a350505094509492505050565b6000546001600160a01b031633146115265760405162461bcd60e51b815260040161044a90612e07565b610d97612245565b600154600160a01b900460ff16156115585760405162461bcd60e51b815260040161044a90612ddd565b60025460405163a45052c960e01b81526000916001600160a01b03169063a45052c990611592908790339088908890600190600401612d7a565b602060405180830381600087803b1580156115ac57600080fd5b505af11580156115c0573d6000803e3d6000fd5b505050506040513d601f19601f820116820180604052508101906115e491906129c0565b116115ee57600080fd5b806001600160a01b0316336001600160a01b0316847f2c0f148b435140de488c1b34647f1511c646f7077e87007bacf22ef9977a16d88560405161163491815260200190565b60405180910390a4505050565b6000546001600160a01b0316331461166b5760405162461bcd60e51b815260040161044a90612e07565b6002546040805163836d5e3760e01b815290516000926001600160a01b03169163836d5e37916004808301926020929190829003018186803b1580156116b057600080fd5b505afa1580156116c4573d6000803e3d6000fd5b505050506040513d601f19601f820116820180604052508101906116e891906129c0565b600254604051637a8b6cad60e01b81529192506000916001600160a01b0390911690637a8b6cad90611727908490309089908990600190600401612d7a565b602060405180830381600087803b15801561174157600080fd5b505af1158015611755573d6000803e3d6000fd5b505050506040513d601f19601f8201168201806040525081019061177991906129c0565b116117c65760405162461bcd60e51b815260206004820152601760248201527f556e7375636365737366756c207769746864726177616c000000000000000000604482015260640161044a565b6040516370a0823160e01b81523060048201526117f89033906001600160a01b038516906370a08231906024016107b5565b60025460405163a4a3ec5160e01b815260006004820181905230602483015291611886916001600160a01b039091169063a4a3ec519060440160206040518083038186803b15801561184957600080fd5b505afa15801561185d573d6000803e3d6000fd5b505050506040513d601f19601f8201168201806040525081019061188191906129c0565b6122aa565b905061189a8267016345785d8a0000612222565b8110156118e95760405162461bcd60e51b815260206004820152601760248201527f496e737572616e6365206973206e6f7420656e6f756768000000000000000000604482015260640161044a565b6040518481527f72bf0414a0ef58085c552e0481124322b66511733d37fa0482fd454ec21873d49060200160405180910390a150505050565b61193a6658d15e1762800066c3663566a58000612e2a565b81565b600154600160a01b900460ff16156119675760405162461bcd60e51b815260040161044a90612ddd565b600082116119c15760405162461bcd60e51b815260206004820152602160248201527f5468652070726f706f73656420616d6f756e742063616e2774206265206e756c6044820152601b60fa1b606482015260840161044a565b6000806000600487815481106119e757634e487b7160e01b600052603260045260246000fd5b60009182526020909120015460405163b3a8cc0560e01b81526001600160a01b039091169063b3a8cc0590611a269033908a908a908a90600401612d0f565b606060405180830381600087803b158015611a4057600080fd5b505af1158015611a54573d6000803e3d6000fd5b505050506040513d601f19601f82011682018060405250810190611a7891906129d8565b600254604051631b27ecdd60e21b815293965091945092506001600160a01b031690636c9fb37490611ab5908a9033908690600190600401612d54565b600060405180830381600087803b158015611acf57600080fd5b505af1158015611ae3573d6000803e3d6000fd5b505060408051868152602081018690523393508a92507f28aa9c84e84e65c4385164f79a05eef8f049be39030879697a3e251f74a3d474910160405180910390a350505050505050565b6000546001600160a01b03163314611b575760405162461bcd60e51b815260040161044a90612e07565b6001600160a01b038216611b9c5760405162461bcd60e51b815260206004820152600c60248201526b5a45524f5f4144445245535360a01b604482015260640161044a565b8015611bee57600080546001600160a01b0319166001600160a01b0384169081178255604051909133917f5bb496b3f951b55d3a1d8e479725a4d25bdc7644fc355f0b71c540354820a1c59190a35050565b600180546001600160a01b0319166001600160a01b03841690811790915560405133907f87f5c8846f4c51400fa448cfb84edcec5cc0f333b6d20a5b903e050823dcb66790600090a35050565b600154600160a01b900460ff1615611c655760405162461bcd60e51b815260040161044a90612ddd565b600080600060048981548110611c8b57634e487b7160e01b600052603260045260246000fd5b6000918252602090912001546040516309c9404160e11b8152336004820152602481018a90526044810189905260648101889052608481018790526001600160a01b039091169063139280829060a401606060405180830381600087803b158015611cf557600080fd5b505af1158015611d09573d6000803e3d6000fd5b505050506040513d601f19601f82011682018060405250810190611d2d91906129d8565b600254604051631b27ecdd60e21b815293965091945092506001600160a01b031690636c9fb37490611d6a908c9033908690600090600401612d54565b600060405180830381600087803b158015611d8457600080fd5b505af1158015611d98573d6000803e3d6000fd5b505060025460405163032a9bb760e01b8152600481018d90523360248201526001600160a01b038881166044830152606482018c90526000608483018190529450909116915063032a9bb79060a401602060405180830381600087803b158015611e0157600080fd5b505af1158015611e15573d6000803e3d6000fd5b505050506040513d601f19601f82011682018060405250810190611e3991906129c0565b11611e7b5760405162461bcd60e51b8152602060048201526012602482015271496e73756666696369656e742066756e647360701b604482015260640161044a565b6040805189815260208101859052908101839052606081018290526001600160a01b0385169033908b907f169611d70a3dba03ae2ea9d66c3e55dc18162395cacffb744b734cbca8ebd4de9060800160405180910390a4505050505050505050565b604080516001600160a01b038416602482015260448082018490528251808303909101815260649091019091526020810180516001600160e01b031663a9059cbb60e01b179052611f2f9084906122b5565b505050565b600154600160a01b900460ff16611f845760405162461bcd60e51b815260206004820152601460248201527314185d5cd8589b194e881b9bdd081c185d5cd95960621b604482015260640161044a565b6001805460ff60a01b191690557f5db9ee0a495bf2e6ff9c91a7834c1ba4fdd244a5e8aa4e537bd38aeae4b073aa335b6040516001600160a01b03909116815260200160405180910390a1565b611ffc6040518060800160405280600081526020016000815260200160008152602001600081525090565b6004838154811061201d57634e487b7160e01b600052603260045260246000fd5b600091825260209091200154604051630f272c5b60e31b81526001600160a01b0384811660048301529091169063793962d89060240160806040518083038186803b15801561206b57600080fd5b505afa15801561207f573d6000803e3d6000fd5b505050506040513d601f19601f82011682018060405250810190610cb89190612a05565b6002546040516387a9540160e01b8152600481018490526001600160a01b03838116602483015260009216906387a95401906044015b60206040518083038186803b1580156120f157600080fd5b505afa158015612105573d6000803e3d6000fd5b505050506040513d601f19601f82011682018060405250810190610cb891906129c0565b60006004838154811061214c57634e487b7160e01b600052603260045260246000fd5b600091825260209091200154604051632847ded360e11b81526001600160a01b0384811660048301529091169063508fbda6906024016120d9565b6000600483815481106121aa57634e487b7160e01b600052603260045260246000fd5b60009182526020909120015460405163544305bf60e01b81526001600160a01b0384811660048301529091169063544305bf906024016120d9565b600061220e6121f383612217565b856121fe8689612e2a565b6122089190612e2a565b90612387565b95945050505050565b6000610dfc82612393565b6000610cb883836123cf565b6000610dfc826123db565b6000610cb88383612449565b600154600160a01b900460ff161561226f5760405162461bcd60e51b815260040161044a90612ddd565b6001805460ff60a01b1916600160a01b1790557f62e78cea01bee320cd4e420270b5ea74000d11b0c9f74754ebdbfc544b05a258611fb43390565b6000610dfc8261250e565b600061230a826040518060400160405280602081526020017f5361666545524332303a206c6f772d6c6576656c2063616c6c206661696c6564815250856001600160a01b03166125609092919063ffffffff16565b805190915015611f2f57808060200190518101906123289190612988565b611f2f5760405162461bcd60e51b815260206004820152602a60248201527f5361666545524332303a204552433230206f7065726174696f6e20646964206e6044820152691bdd081cdd58d8d9595960b21b606482015260840161044a565b6000610cb88383612577565b6000600160ff1b8214156123ba57604051631d0742e360e21b815260040160405180910390fd5b600082126123c85781610dfc565b5060000390565b6000610cb8838361263d565b60006001600160ff1b038211156124455760405162461bcd60e51b815260206004820152602860248201527f53616665436173743a2076616c756520646f65736e27742066697420696e2061604482015267371034b73a191a9b60c11b606482015260840161044a565b5090565b6000600160ff1b8314806124605750600160ff1b82145b1561247e57604051630d01a11b60e21b815260040160405180910390fd5b6000806000851261248f5784612494565b846000035b9150600084126124a457836124a9565b836000035b905060006124b7838361263d565b90506001600160ff1b038111156124e45760405163bf79e8d960e01b81526004810182905260240161044a565b6000198087139086138082186001146124fd5782612502565b826000035b98975050505050505050565b6000808212156124455760405162461bcd60e51b815260206004820181905260248201527f53616665436173743a2076616c7565206d75737420626520706f736974697665604482015260640161044a565b606061256f84846000856126ff565b949350505050565b6000600160ff1b83148061258e5750600160ff1b82145b156125ac5760405163b3c754a360e01b815260040160405180910390fd5b600080600085126125bd57846125c2565b846000035b9150600084126125d257836125d7565b836000035b905060006125ee83670de0b6b3a764000084612827565b90506001600160ff1b0381111561261b57604051637cb4bef560e01b81526004810182905260240161044a565b6000198087139086138082186001146126345782612502565b61250283612eda565b60008080600019848609848602925082811083820303915050670de0b6b3a764000081106126815760405163698d9a0160e11b81526004810182905260240161044a565b600080670de0b6b3a76400008688099150506706f05b59d3b1ffff8111826126bb5780670de0b6b3a7640000850401945050505050610dfc565b620400008285030493909111909103600160ee1b02919091177faccb18165bd6fe31ae1cf318dc5b51eee0e1ba569b88cd74c1773b91fac106690201905092915050565b6060824710156127605760405162461bcd60e51b815260206004820152602660248201527f416464726573733a20696e73756666696369656e742062616c616e636520666f6044820152651c8818d85b1b60d21b606482015260840161044a565b843b6127ae5760405162461bcd60e51b815260206004820152601d60248201527f416464726573733a2063616c6c20746f206e6f6e2d636f6e7472616374000000604482015260640161044a565b600080866001600160a01b031685876040516127ca9190612cc0565b60006040518083038185875af1925050503d8060008114612807576040519150601f19603f3d011682016040523d82523d6000602084013e61280c565b606091505b509150915061281c828286612903565b979650505050505050565b6000808060001985870985870292508281108382030391505080600014156128705783828161286657634e487b7160e01b600052601260045260246000fd5b0492505050610cb8565b83811061289a57604051631dcf306360e21b8152600481018290526024810185905260440161044a565b60008486880960026001871981018816978890046003810283188082028403028082028403028082028403028082028403028082028403029081029092039091026000889003889004909101858311909403939093029303949094049190911702949350505050565b60608315612912575081610cb8565b8251156129225782518084602001fd5b8160405162461bcd60e51b815260040161044a9190612daa565b80356002811061294b57600080fd5b919050565b60008060408385031215612962578182fd5b823561296d81612f0a565b9150602083013561297d81612f22565b809150509250929050565b600060208284031215612999578081fd5b8151610cb881612f22565b6000602082840312156129b5578081fd5b8135610cb881612f0a565b6000602082840312156129d1578081fd5b5051919050565b6000806000606084860312156129ec578081fd5b8351925060208401519150604084015190509250925092565b600060808284031215612a16578081fd5b6040516080810181811067ffffffffffffffff82111715612a4557634e487b7160e01b83526041600452602483fd5b8060405250825181526020830151602082015260408301516040820152606083015160608201528091505092915050565b600060208284031215612a87578081fd5b5035919050565b60008060408385031215612aa0578182fd5b82359150602083013561297d81612f0a565b600080600060608486031215612ac6578283fd5b833592506020840135612ad881612f0a565b929592945050506040919091013590565b60008060408385031215612afb578182fd5b505080516020909101519092909150565b600080600060608486031215612b20578081fd5b83359250602084013591506040840135612b3981612f0a565b809150509250925092565b60008060008060008060c08789031215612b5c578384fd5b86359550602087013594506040870135612b7581612f0a565b935060608701359250612b8a6080880161293c565b915060a087013590509295509295509295565b60008060008060808587031215612bb2578182fd5b8435935060208501359250612bc96040860161293c565b9396929550929360600135925050565b60008060008060808587031215612bee578182fd5b8435935060208501359250604085013591506060850135612c0e81612f0a565b939692955090935050565b60008060008060808587031215612c2e578182fd5b5050823594602084013594506040840135936060013592509050565b60008060008060008060c08789031215612c62578384fd5b863595506020870135945060408701359350606087013592506080870135915060a0870135612c9081612f0a565b809150509295509295509295565b60028110612cbc57634e487b7160e01b600052602160045260246000fd5b9052565b60008251612cd2818460208701612eaa565b9190910192915050565b6001600160a01b03851681526020810184905260808101612d006040830185612c9e565b82606083015295945050505050565b6001600160a01b0394909416845260208401929092526040830152606082015260800190565b60608101612d438286612c9e565b602082019390935260400152919050565b9384526001600160a01b0392909216602084015260408301521515606082015260800190565b9485526001600160a01b039384166020860152604085019290925290911660608301521515608082015260a00190565b6020815260008251806020840152612dc9816040850160208701612eaa565b601f01601f19169190910160400192915050565b60208082526010908201526f14185d5cd8589b194e881c185d5cd95960821b604082015260600190565b6020808252600990820152682727aa2fa7aba722a960b91b604082015260600190565b600080821280156001600160ff1b0384900385131615612e4c57612e4c612ef4565b600160ff1b8390038412811615612e6557612e65612ef4565b50500190565b60008083128015600160ff1b850184121615612e8957612e89612ef4565b6001600160ff1b0384018313811615612ea457612ea4612ef4565b50500390565b60005b83811015612ec5578181015183820152602001612ead565b83811115612ed4576000848401525b50505050565b6000600160ff1b821415612ef057612ef0612ef4565b0390565b634e487b7160e01b600052601160045260246000fd5b6001600160a01b0381168114612f1f57600080fd5b50565b8015158114612f1f57600080fdfea2646970667358221220650ec0a384048c253c77fc45a76d3f151fc42dd219553e79409057ca68a1b77664736f6c63430008040033",
  "devdoc": {
    "events": {
      "Deposit(uint256,address,address,uint256)": {
        "params": {
          "amount": "Amount to be used as collateral. Might not be 18 decimals",
          "asset": "Token to be used for the collateral",
          "idx": "Index of the perpetual market",
          "user": "User who deposited collateral"
        }
      },
      "DustSold(uint256,int256)": {
        "params": {
          "idx": "Index of the perpetual market",
          "profit": "Amount of profit generated by the dust sale. 18 decimals"
        }
      },
      "ExtendPosition(uint256,address,uint8,int256,int256)": {
        "params": {
          "addedOpenNotional": "Notional (USD assets/debt) added to the position",
          "addedPositionSize": "positionSize (Base assets/debt) added to the position",
          "direction": "Whether the position is LONG or SHORT",
          "idx": "Index of the perpetual market",
          "user": "User who deposited collateral"
        }
      },
      "InsuranceRemoved(uint256)": {
        "params": {
          "amount": "Amount of insurance reserves withdrawn. 18 decimals"
        }
      },
      "LiquidationCall(uint256,address,address,uint256)": {
        "params": {
          "idx": "Index of the perpetual market",
          "liquidatee": "User who gets liquidated",
          "liquidator": "User who is liquidating",
          "notional": "Notional amount of the liquidatee"
        }
      },
      "LiquidityProvided(uint256,address,address,uint256)": {
        "params": {
          "amount": "Amount of token to be added to the pool. Might not have 18 decimals",
          "asset": "Token to be added to the pool",
          "idx": "Index of the perpetual market",
          "liquidityProvider": "User who provides liquidity"
        }
      },
      "LiquidityRemoved(uint256,address,uint256,int256,int256,int256,address)": {
        "params": {
          "asset": "Token to be added to the pool",
          "idx": "Index of the perpetual market",
          "liquidityProvider": "User who provides liquidity",
          "profit": "Profit generated by the liquidity provider. 18 decimals",
          "removedLiquidity": "Amount of liquidity (in LP tokens) to be removed from the pool. 18 decimals",
          "vBaseAmount": "Amount of vBase proceeds to be removed from the pool. 18 decimals",
          "vQuoteProceeds": "Amount of vQuote proceeds to be removed from the pool. 18 decimals"
        }
      },
      "MarketAdded(address,uint256)": {
        "params": {
          "numPerpetuals": "The number of perpetual markets",
          "perpetual": "The new perpetual market"
        }
      },
      "ReducePosition(uint256,address,int256,int256)": {
        "params": {
          "idx": "Index of the perpetual market",
          "reducedOpenNotional": "notional (USD assets/debt) removed from the position",
          "reducedPositionSize": "positionSize (Base assets/debt) removed from the position",
          "user": "User who deposited collateral"
        }
      },
      "Withdraw(uint256,address,address,uint256)": {
        "params": {
          "amount": "Token to be used for the collateral",
          "asset": "Amount to be used as collateral. Might not be 18 decimals",
          "idx": "Index of the perpetual market",
          "user": "User who deposited collateral"
        }
      }
    },
    "kind": "dev",
    "methods": {
      "allowListPerpetual(address)": {
        "params": {
          "perp": "Market to add to the list of supported market"
        }
      },
      "closePositionWithdrawCollateral(uint256,uint256,uint256,address)": {
        "params": {
          "idx": "Index of the perpetual market",
          "minAmount": "Minimum amount that the user is willing to accept, in vQuote if LONG, in vBase if SHORT. 18 decimals",
          "proposedAmount": "Amount of tokens to be sold, in vBase if LONG, in vQuote if SHORT. 18 decimals",
          "token": "Token used for the collateral"
        }
      },
      "deposit(uint256,uint256,address)": {
        "details": "Should only be called by the trader",
        "params": {
          "amount": "Amount to be used as collateral. Might not be 18 decimals",
          "idx": "Index of the perpetual market",
          "token": "Token to be used for the collateral"
        }
      },
      "extendPosition(uint256,uint256,uint8,uint256)": {
        "details": "No number for the leverage is given but the amount in the vault must be bigger than MIN_MARGIN_AT_CREATIONNo checks are done if bought amount exceeds allowance",
        "params": {
          "amount": "Represent amount in vQuote (if long) or vBase (if short) to sell. 18 decimals",
          "direction": "Whether the position is LONG or SHORT",
          "idx": "Index of the perpetual market",
          "minAmount": "Minimum amount that the user is willing to accept. 18 decimals"
        },
        "returns": {
          "addedOpenNotional": "Additional quote asset / liabilities accrued",
          "addedPositionSize": "Additional base asset / liabilities accrued"
        }
      },
      "extendPositionWithCollateral(uint256,uint256,address,uint256,uint8,uint256)": {
        "params": {
          "collateralAmount": "Amount to be used as the collateral of the position. Might not be 18 decimals",
          "direction": "Whether the position is LONG or SHORT",
          "idx": "Index of the perpetual market",
          "minAmount": "Minimum amount that the user is willing to accept. 18 decimals",
          "positionAmount": "Amount to be sold, in vQuote (if long) or vBase (if short). Must be 18 decimals",
          "token": "Token to be used for the collateral of the position"
        }
      },
      "getNumMarkets()": {
        "returns": {
          "_0": "Number of active markets"
        }
      },
      "liquidate(uint256,address,uint256)": {
        "params": {
          "idx": "Index of the perpetual market",
          "liquidatee": "Address of the trader to liquidate",
          "proposedAmount": "Amount of tokens to be sold, in vBase if LONG, in vQuote if SHORT. 18 decimals"
        }
      },
      "marginIsValid(uint256,address,int256)": {
        "params": {
          "account": "Account of the position to get the margin ratio from",
          "idx": "Index of the perpetual market",
          "ratio": "Proposed ratio to compare the position against"
        },
        "returns": {
          "_0": "True if the position exceeds margin ratio, false otherwise"
        }
      },
      "marginRatio(uint256,address)": {
        "params": {
          "account": "Account of the position to get the margin ratio from",
          "idx": "Index of the perpetual market"
        },
        "returns": {
          "_0": "Margin ratio of the position (in 1e18)"
        }
      },
      "paused()": {
        "details": "Returns true if the contract is paused, and false otherwise."
      },
      "provideLiquidity(uint256,uint256,address)": {
        "params": {
          "amount": "Amount of token to be added to the pool. Might not have 18 decimals",
          "idx": "Index of the perpetual market",
          "token": "Token to be added to the pool"
        },
        "returns": {
          "baseAmount": "Amount of baseTokens added to the pool",
          "wadAmount": "Amount of quoteTokens added to the pool"
        }
      },
      "reducePosition(uint256,uint256,uint256,uint256)": {
        "params": {
          "idx": "Index of the perpetual market",
          "minAmount": "Minimum amount that the user is willing to accept, in vQuote if LONG, in vBase if SHORT. 18 decimals",
          "proposedAmount": "Amount of tokens to be sold, in vBase if LONG, in vQuote if SHORT. 18 decimals",
          "reductionRatio": "Percentage of the position that the user wishes to close. Min: 0. Max: 1e18"
        }
      },
      "removeInsurance(uint256,address)": {
        "params": {
          "amount": "Token withdrawn. 18 decimals",
          "token": "Token to be withdrawn from the vault"
        }
      },
      "removeLiquidity(uint256,uint256,uint256,uint256,uint256,address)": {
        "params": {
          "idx": "Index of the perpetual market",
          "liquidityAmountToRemove": "Amount of liquidity (in LP tokens) to be removed from the pool. 18 decimals",
          "minAmount": "Minimum amount that the user is willing to accept, in vQuote if LONG, in vBase if SHORT. 18 decimals",
          "proposedAmount": "Amount at which to get the LP position (in vBase if LONG, in vQuote if SHORT). 18 decimals",
          "reductionRatio": "Percentage of the position that the user wishes to close. Min: 0. Max: 1e18",
          "token": "Token in which to perform the funds withdrawal"
        }
      },
      "sellDust(uint256,uint256,uint256,address)": {
        "params": {
          "idx": "Index of the perpetual market",
          "minAmount": "Minimum amount that the user is willing to accept, in vQuote if LONG, in vBase if SHORT. 18 decimals",
          "proposedAmount": "Amount of tokens to be sold, in vBase if LONG, in vQuote if SHORT. 18 decimals",
          "token": "Token of the collateral"
        }
      },
      "transferOwner(address,bool)": {
        "params": {
          "direct": "If 'true', ownership is directly transferred.",
          "recipient": "Account granted `owner` access control."
        }
      },
      "withdraw(uint256,uint256,address)": {
        "details": "Should only be called by the trader",
        "params": {
          "amount": "Amount of collateral to withdraw. Must be 18 decimals",
          "idx": "Index of the perpetual market",
          "token": "Token of the collateral"
        }
      }
    },
    "stateVariables": {
      "INSURANCE_FEE": {
        "details": "Paid on dollar value of an opened position(0.1%)"
      },
      "INSURANCE_RATIO": {
        "details": "Once the insurance reserve exceed 10% of the tvl, governance can withdraw the insurance fee(10%)"
      },
      "LIQUIDATION_REWARD": {
        "details": "Paid on dollar value of an trader position. important: LIQUIDATION_REWARD >> MIN_MARGIN or liquidations will result in protocol losses(1.5%)"
      },
      "MIN_MARGIN": {
        "details": "2.5%"
      },
      "MIN_MARGIN_AT_CREATION": {
        "details": "2.5% (maintenance margin) + 5.5% = 8%"
      }
    },
    "version": 1
  },
  "userdoc": {
    "errors": {
      "PRBMathSD59x18__AbsInputTooSmall()": [
        {
          "notice": "Emitted when the input is MIN_SD59x18."
        }
      ],
      "PRBMathSD59x18__DivInputTooSmall()": [
        {
          "notice": "Emitted when one of the inputs is MIN_SD59x18."
        }
      ],
      "PRBMathSD59x18__DivOverflow(uint256)": [
        {
          "notice": "Emitted when one of the intermediary unsigned results overflows SD59x18."
        }
      ],
      "PRBMathSD59x18__MulInputTooSmall()": [
        {
          "notice": "Emitted when one of the inputs is MIN_SD59x18."
        }
      ],
      "PRBMathSD59x18__MulOverflow(uint256)": [
        {
          "notice": "Emitted when the intermediary absolute result overflows SD59x18."
        }
      ],
      "PRBMath__MulDivFixedPointOverflow(uint256)": [
        {
          "notice": "Emitted when the result overflows uint256."
        }
      ],
      "PRBMath__MulDivOverflow(uint256,uint256)": [
        {
          "notice": "Emitted when the result overflows uint256."
        }
      ]
    },
    "events": {
      "Deposit(uint256,address,address,uint256)": {
        "notice": "Emitted when collateral is deposited into the vault"
      },
      "DustSold(uint256,int256)": {
        "notice": "Emitted when dust is sold by governance"
      },
      "ExtendPosition(uint256,address,uint8,int256,int256)": {
        "notice": "Emitted when a position is extended/opened"
      },
      "InsuranceRemoved(uint256)": {
        "notice": "Emitted when (exceeding) insurance reserves are withdrawn by governance"
      },
      "LiquidationCall(uint256,address,address,uint256)": {
        "notice": "Emitted when a trader position is liquidated"
      },
      "LiquidityProvided(uint256,address,address,uint256)": {
        "notice": "Emitted when a (additional) liquidity is provided"
      },
      "LiquidityRemoved(uint256,address,uint256,int256,int256,int256,address)": {
        "notice": "Emitted when a (additional) liquidity is removed"
      },
      "MarketAdded(address,uint256)": {
        "notice": "Emitted when new perpetual market is added"
      },
      "ReducePosition(uint256,address,int256,int256)": {
        "notice": "Emitted when a position is reduced/closed"
      },
      "Withdraw(uint256,address,address,uint256)": {
        "notice": "Emitted when collateral is withdrawn from the vault"
      }
    },
    "kind": "user",
    "methods": {
      "INSURANCE_FEE()": {
        "notice": "Insurance fee"
      },
      "INSURANCE_RATIO()": {
        "notice": "Insurance ratio"
      },
      "LIQUIDATION_REWARD()": {
        "notice": "minimum maintenance margin"
      },
      "MIN_MARGIN()": {
        "notice": "minimum maintenance margin"
      },
      "MIN_MARGIN_AT_CREATION()": {
        "notice": "minimum margin when opening a position"
      },
      "allowListPerpetual(address)": {
        "notice": "Add one perpetual market to the list of markets"
      },
      "claimOwner()": {
        "notice": "`pendingOwner` can claim `owner` account."
      },
      "closePositionWithdrawCollateral(uint256,uint256,uint256,address)": {
        "notice": "Single close position function, groups close position and withdraw collateralImportant: `proposedAmount` must be large enough to close the entire position else the function call will fail"
      },
      "deposit(uint256,uint256,address)": {
        "notice": "Deposit tokens into the vault"
      },
      "extendPosition(uint256,uint256,uint8,uint256)": {
        "notice": "Open or increase a position, either long or short"
      },
      "extendPositionWithCollateral(uint256,uint256,address,uint256,uint8,uint256)": {
        "notice": "Single open position function, group collateral deposit and extend position"
      },
      "getNumMarkets()": {
        "notice": "Return the number of active markets"
      },
      "insurance()": {
        "notice": "Insurance contract"
      },
      "liquidate(uint256,address,uint256)": {
        "notice": "Submit the address of a trader whose position is worth liquidating for a reward"
      },
      "marginIsValid(uint256,address,int256)": {
        "notice": "Determines whether or not a position is valid for a given margin ratio"
      },
      "marginRatio(uint256,address)": {
        "notice": "Get the margin ratio of a trading position (given that, for now, 1 trading position = 1 address)"
      },
      "pause()": {
        "notice": "Pause the contract"
      },
      "perpetuals(uint256)": {
        "notice": "Allowlisted Perpetual contracts"
      },
      "provideLiquidity(uint256,uint256,address)": {
        "notice": "Provide liquidity to the pool"
      },
      "reducePosition(uint256,uint256,uint256,uint256)": {
        "notice": "Reduces, or closes in full, a position from an account holder"
      },
      "removeInsurance(uint256,address)": {
        "notice": "Remove insurance fees exceeding 10% of the TVL from the vault"
      },
      "removeLiquidity(uint256,uint256,uint256,uint256,uint256,address)": {
        "notice": "Remove liquidity from the pool"
      },
      "sellDust(uint256,uint256,uint256,address)": {
        "notice": "Sell dust in market idx"
      },
      "transferOwner(address,bool)": {
        "notice": "Transfer `owner` account."
      },
      "unpause()": {
        "notice": "Unpause the contract"
      },
      "vault()": {
        "notice": "Vault contract"
      },
      "withdraw(uint256,uint256,address)": {
        "notice": "Withdraw tokens from the vault"
      }
    },
    "notice": "Entry point for users to vault and perpetual markets",
    "version": 1
  },
  "storageLayout": {
    "storage": [
      {
        "astId": 8814,
        "contract": "contracts/ClearingHouse.sol:ClearingHouse",
        "label": "owner",
        "offset": 0,
        "slot": "0",
        "type": "t_address"
      },
      {
        "astId": 8816,
        "contract": "contracts/ClearingHouse.sol:ClearingHouse",
        "label": "pendingOwner",
        "offset": 0,
        "slot": "1",
        "type": "t_address"
      },
      {
        "astId": 168,
        "contract": "contracts/ClearingHouse.sol:ClearingHouse",
        "label": "_paused",
        "offset": 20,
        "slot": "1",
        "type": "t_bool"
      },
      {
        "astId": 2219,
        "contract": "contracts/ClearingHouse.sol:ClearingHouse",
        "label": "vault",
        "offset": 0,
        "slot": "2",
        "type": "t_contract(IVault)7481"
      },
      {
        "astId": 2224,
        "contract": "contracts/ClearingHouse.sol:ClearingHouse",
        "label": "insurance",
        "offset": 0,
        "slot": "3",
        "type": "t_contract(IInsurance)7100"
      },
      {
        "astId": 2230,
        "contract": "contracts/ClearingHouse.sol:ClearingHouse",
        "label": "perpetuals",
        "offset": 0,
        "slot": "4",
        "type": "t_array(t_contract(IPerpetual)7259)dyn_storage"
      }
    ],
    "types": {
      "t_address": {
        "encoding": "inplace",
        "label": "address",
        "numberOfBytes": "20"
      },
      "t_array(t_contract(IPerpetual)7259)dyn_storage": {
        "base": "t_contract(IPerpetual)7259",
        "encoding": "dynamic_array",
        "label": "contract IPerpetual[]",
        "numberOfBytes": "32"
      },
      "t_bool": {
        "encoding": "inplace",
        "label": "bool",
        "numberOfBytes": "1"
      },
      "t_contract(IInsurance)7100": {
        "encoding": "inplace",
        "label": "contract IInsurance",
        "numberOfBytes": "20"
      },
      "t_contract(IPerpetual)7259": {
        "encoding": "inplace",
        "label": "contract IPerpetual",
        "numberOfBytes": "20"
      },
      "t_contract(IVault)7481": {
        "encoding": "inplace",
        "label": "contract IVault",
        "numberOfBytes": "20"
      }
    }
  }
}