{
  "address": "0x02549770AeE09b73Ca8B3C913f4cF0612F7A01f9",
  "abi": [
    {
      "inputs": [
        {
          "internalType": "contract IVault",
          "name": "_vault",
          "type": "address"
        },
        {
          "internalType": "contract IInsurance",
          "name": "_insurance",
          "type": "address"
        }
      ],
      "stateMutability": "nonpayable",
      "type": "constructor"
    },
    {
      "inputs": [],
      "name": "PRBMathSD59x18__AbsInputTooSmall",
      "type": "error"
    },
    {
      "inputs": [],
      "name": "PRBMathSD59x18__DivInputTooSmall",
      "type": "error"
    },
    {
      "inputs": [
        {
          "internalType": "uint256",
          "name": "rAbs",
          "type": "uint256"
        }
      ],
      "name": "PRBMathSD59x18__DivOverflow",
      "type": "error"
    },
    {
      "inputs": [],
      "name": "PRBMathSD59x18__MulInputTooSmall",
      "type": "error"
    },
    {
      "inputs": [
        {
          "internalType": "uint256",
          "name": "rAbs",
          "type": "uint256"
        }
      ],
      "name": "PRBMathSD59x18__MulOverflow",
      "type": "error"
    },
    {
      "inputs": [
        {
          "internalType": "uint256",
          "name": "prod1",
          "type": "uint256"
        }
      ],
      "name": "PRBMath__MulDivFixedPointOverflow",
      "type": "error"
    },
    {
      "inputs": [
        {
          "internalType": "uint256",
          "name": "prod1",
          "type": "uint256"
        },
        {
          "internalType": "uint256",
          "name": "denominator",
          "type": "uint256"
        }
      ],
      "name": "PRBMath__MulDivOverflow",
      "type": "error"
    },
    {
      "anonymous": false,
      "inputs": [
        {
          "indexed": false,
          "internalType": "uint256",
          "name": "idx",
          "type": "uint256"
        },
        {
          "indexed": true,
          "internalType": "address",
          "name": "user",
          "type": "address"
        },
        {
          "indexed": true,
          "internalType": "uint128",
          "name": "timeStamp",
          "type": "uint128"
        },
        {
          "indexed": false,
          "internalType": "enum LibPerpetual.Side",
          "name": "direction",
          "type": "uint8"
        },
        {
          "indexed": false,
          "internalType": "int256",
          "name": "notional",
          "type": "int256"
        },
        {
          "indexed": false,
          "internalType": "int256",
          "name": "amount",
          "type": "int256"
        }
      ],
      "name": "ClosePosition",
      "type": "event"
    },
    {
      "anonymous": false,
      "inputs": [
        {
          "indexed": false,
          "internalType": "uint256",
          "name": "idx",
          "type": "uint256"
        },
        {
          "indexed": true,
          "internalType": "address",
          "name": "user",
          "type": "address"
        },
        {
          "indexed": true,
          "internalType": "address",
          "name": "asset",
          "type": "address"
        },
        {
          "indexed": false,
          "internalType": "uint256",
          "name": "amount",
          "type": "uint256"
        }
      ],
      "name": "Deposit",
      "type": "event"
    },
    {
      "anonymous": false,
      "inputs": [
        {
          "indexed": false,
          "internalType": "uint256",
          "name": "idx",
          "type": "uint256"
        },
        {
          "indexed": true,
          "internalType": "uint256",
          "name": "blockNumber",
          "type": "uint256"
        },
        {
          "indexed": false,
          "internalType": "uint256",
          "name": "value",
          "type": "uint256"
        },
        {
          "indexed": false,
          "internalType": "bool",
          "name": "isPositive",
          "type": "bool"
        }
      ],
      "name": "FundingPayment",
      "type": "event"
    },
    {
      "anonymous": false,
      "inputs": [
        {
          "indexed": false,
          "internalType": "uint256",
          "name": "idx",
          "type": "uint256"
        },
        {
          "indexed": true,
          "internalType": "address",
          "name": "liquidatee",
          "type": "address"
        },
        {
          "indexed": true,
          "internalType": "address",
          "name": "liquidator",
          "type": "address"
        },
        {
          "indexed": false,
          "internalType": "uint128",
          "name": "timestamp",
          "type": "uint128"
        },
        {
          "indexed": false,
          "internalType": "uint256",
          "name": "notional",
          "type": "uint256"
        }
      ],
      "name": "LiquidationCall",
      "type": "event"
    },
    {
      "anonymous": false,
      "inputs": [
        {
          "indexed": false,
          "internalType": "uint256",
          "name": "idx",
          "type": "uint256"
        },
        {
          "indexed": true,
          "internalType": "address",
          "name": "liquidityProvider",
          "type": "address"
        },
        {
          "indexed": true,
          "internalType": "address",
          "name": "asset",
          "type": "address"
        },
        {
          "indexed": false,
          "internalType": "uint256",
          "name": "amount",
          "type": "uint256"
        }
      ],
      "name": "LiquidityProvided",
      "type": "event"
    },
    {
      "anonymous": false,
      "inputs": [
        {
          "indexed": false,
          "internalType": "uint256",
          "name": "idx",
          "type": "uint256"
        },
        {
          "indexed": true,
          "internalType": "address",
          "name": "liquidityProvider",
          "type": "address"
        },
        {
          "indexed": false,
          "internalType": "uint256",
          "name": "amount",
          "type": "uint256"
        }
      ],
      "name": "LiquidityRemoved",
      "type": "event"
    },
    {
      "anonymous": false,
      "inputs": [
        {
          "indexed": false,
          "internalType": "uint256",
          "name": "idx",
          "type": "uint256"
        },
        {
          "indexed": true,
          "internalType": "address",
          "name": "liquidityProvider",
          "type": "address"
        }
      ],
      "name": "LiquidityWithdrawn",
      "type": "event"
    },
    {
      "anonymous": false,
      "inputs": [
        {
          "indexed": false,
          "internalType": "string",
          "name": "errorMessage",
          "type": "string"
        }
      ],
      "name": "Log",
      "type": "event"
    },
    {
      "anonymous": false,
      "inputs": [
        {
          "indexed": false,
          "internalType": "uint256",
          "name": "numPerpetuals",
          "type": "uint256"
        },
        {
          "indexed": true,
          "internalType": "contract IPerpetual",
          "name": "perpetual",
          "type": "address"
        }
      ],
      "name": "MarketAdded",
      "type": "event"
    },
    {
      "anonymous": false,
      "inputs": [
        {
          "indexed": false,
          "internalType": "uint256",
          "name": "idx",
          "type": "uint256"
        },
        {
          "indexed": true,
          "internalType": "address",
          "name": "user",
          "type": "address"
        },
        {
          "indexed": true,
          "internalType": "uint128",
          "name": "timeStamp",
          "type": "uint128"
        },
        {
          "indexed": false,
          "internalType": "enum LibPerpetual.Side",
          "name": "direction",
          "type": "uint8"
        },
        {
          "indexed": false,
          "internalType": "int256",
          "name": "notional",
          "type": "int256"
        },
        {
          "indexed": false,
          "internalType": "int256",
          "name": "amount",
          "type": "int256"
        }
      ],
      "name": "OpenPosition",
      "type": "event"
    },
    {
      "anonymous": false,
      "inputs": [
        {
          "indexed": false,
          "internalType": "address",
          "name": "account",
          "type": "address"
        }
      ],
      "name": "Paused",
      "type": "event"
    },
    {
      "anonymous": false,
      "inputs": [
        {
          "indexed": false,
          "internalType": "uint256",
          "name": "idx",
          "type": "uint256"
        },
        {
          "indexed": true,
          "internalType": "address",
          "name": "user",
          "type": "address"
        },
        {
          "indexed": false,
          "internalType": "int256",
          "name": "amount",
          "type": "int256"
        }
      ],
      "name": "Settlement",
      "type": "event"
    },
    {
      "anonymous": false,
      "inputs": [
        {
          "indexed": true,
          "internalType": "address",
          "name": "sender",
          "type": "address"
        },
        {
          "indexed": true,
          "internalType": "address",
          "name": "recipient",
          "type": "address"
        }
      ],
      "name": "TransferOwner",
      "type": "event"
    },
    {
      "anonymous": false,
      "inputs": [
        {
          "indexed": true,
          "internalType": "address",
          "name": "sender",
          "type": "address"
        },
        {
          "indexed": true,
          "internalType": "address",
          "name": "recipient",
          "type": "address"
        }
      ],
      "name": "TransferOwnerClaim",
      "type": "event"
    },
    {
      "anonymous": false,
      "inputs": [
        {
          "indexed": false,
          "internalType": "address",
          "name": "account",
          "type": "address"
        }
      ],
      "name": "Unpaused",
      "type": "event"
    },
    {
      "anonymous": false,
      "inputs": [
        {
          "indexed": false,
          "internalType": "uint256",
          "name": "idx",
          "type": "uint256"
        },
        {
          "indexed": true,
          "internalType": "address",
          "name": "user",
          "type": "address"
        },
        {
          "indexed": true,
          "internalType": "address",
          "name": "asset",
          "type": "address"
        },
        {
          "indexed": false,
          "internalType": "uint256",
          "name": "amount",
          "type": "uint256"
        }
      ],
      "name": "Withdraw",
      "type": "event"
    },
    {
      "inputs": [],
      "name": "FEE",
      "outputs": [
        {
          "internalType": "int256",
          "name": "",
          "type": "int256"
        }
      ],
      "stateMutability": "view",
      "type": "function"
    },
    {
      "inputs": [],
      "name": "INSURANCE_FEE",
      "outputs": [
        {
          "internalType": "int256",
          "name": "",
          "type": "int256"
        }
      ],
      "stateMutability": "view",
      "type": "function"
    },
    {
      "inputs": [],
      "name": "LIQUIDATION_REWARD",
      "outputs": [
        {
          "internalType": "uint256",
          "name": "",
          "type": "uint256"
        }
      ],
      "stateMutability": "view",
      "type": "function"
    },
    {
      "inputs": [],
      "name": "MIN_MARGIN",
      "outputs": [
        {
          "internalType": "int256",
          "name": "",
          "type": "int256"
        }
      ],
      "stateMutability": "view",
      "type": "function"
    },
    {
      "inputs": [],
      "name": "MIN_MARGIN_AT_CREATION",
      "outputs": [
        {
          "internalType": "int256",
          "name": "",
          "type": "int256"
        }
      ],
      "stateMutability": "view",
      "type": "function"
    },
    {
      "inputs": [
        {
          "internalType": "contract IPerpetual",
          "name": "perp",
          "type": "address"
        }
      ],
      "name": "allowListPerpetual",
      "outputs": [],
      "stateMutability": "nonpayable",
      "type": "function"
    },
    {
      "inputs": [],
      "name": "claimOwner",
      "outputs": [],
      "stateMutability": "nonpayable",
      "type": "function"
    },
    {
      "inputs": [
        {
          "internalType": "uint256",
          "name": "idx",
          "type": "uint256"
        },
        {
          "internalType": "uint256",
          "name": "tentativeVQuoteAmount",
          "type": "uint256"
        }
      ],
      "name": "closePosition",
      "outputs": [],
      "stateMutability": "nonpayable",
      "type": "function"
    },
    {
      "inputs": [
        {
          "internalType": "uint256",
          "name": "idx",
          "type": "uint256"
        },
        {
          "internalType": "uint256",
          "name": "amount",
          "type": "uint256"
        },
        {
          "internalType": "contract IERC20",
          "name": "token",
          "type": "address"
        }
      ],
      "name": "deposit",
      "outputs": [],
      "stateMutability": "nonpayable",
      "type": "function"
    },
    {
      "inputs": [
        {
          "internalType": "uint256",
          "name": "idx",
          "type": "uint256"
        },
        {
          "internalType": "address",
          "name": "account",
          "type": "address"
        }
      ],
      "name": "getFundingPayments",
      "outputs": [
        {
          "internalType": "int256",
          "name": "upcomingFundingPayment",
          "type": "int256"
        }
      ],
      "stateMutability": "view",
      "type": "function"
    },
    {
      "inputs": [
        {
          "internalType": "uint256",
          "name": "idx",
          "type": "uint256"
        }
      ],
      "name": "getGlobalPosition",
      "outputs": [
        {
          "components": [
            {
              "internalType": "int256",
              "name": "cumTradePremium",
              "type": "int256"
            },
            {
              "internalType": "uint128",
              "name": "timeOfLastTrade",
              "type": "uint128"
            },
            {
              "internalType": "int256",
              "name": "premium",
              "type": "int256"
            },
            {
              "internalType": "int256",
              "name": "cumFundingRate",
              "type": "int256"
            }
          ],
          "internalType": "struct LibPerpetual.GlobalPosition",
          "name": "",
          "type": "tuple"
        }
      ],
      "stateMutability": "view",
      "type": "function"
    },
    {
      "inputs": [
        {
          "internalType": "uint256",
          "name": "idx",
          "type": "uint256"
        },
        {
          "internalType": "address",
          "name": "account",
          "type": "address"
        }
      ],
      "name": "getLpPosition",
      "outputs": [
        {
          "components": [
            {
              "internalType": "int256",
              "name": "openNotional",
              "type": "int256"
            },
            {
              "internalType": "int256",
              "name": "positionSize",
              "type": "int256"
            },
            {
              "internalType": "int256",
              "name": "cumFundingRate",
              "type": "int256"
            },
            {
              "internalType": "uint256",
              "name": "liquidityBalance",
              "type": "uint256"
            }
          ],
          "internalType": "struct LibPerpetual.UserPosition",
          "name": "",
          "type": "tuple"
        }
      ],
      "stateMutability": "view",
      "type": "function"
    },
    {
      "inputs": [
        {
          "internalType": "uint256",
          "name": "idx",
          "type": "uint256"
        },
        {
          "internalType": "address",
          "name": "account",
          "type": "address"
        }
      ],
      "name": "getReserveValue",
      "outputs": [
        {
          "internalType": "int256",
          "name": "",
          "type": "int256"
        }
      ],
      "stateMutability": "view",
      "type": "function"
    },
    {
      "inputs": [
        {
          "internalType": "uint256",
          "name": "idx",
          "type": "uint256"
        },
        {
          "internalType": "address",
          "name": "account",
          "type": "address"
        }
      ],
      "name": "getTraderPosition",
      "outputs": [
        {
          "components": [
            {
              "internalType": "int256",
              "name": "openNotional",
              "type": "int256"
            },
            {
              "internalType": "int256",
              "name": "positionSize",
              "type": "int256"
            },
            {
              "internalType": "int256",
              "name": "cumFundingRate",
              "type": "int256"
            },
            {
              "internalType": "uint256",
              "name": "liquidityBalance",
              "type": "uint256"
            }
          ],
          "internalType": "struct LibPerpetual.UserPosition",
          "name": "",
          "type": "tuple"
        }
      ],
      "stateMutability": "view",
      "type": "function"
    },
    {
      "inputs": [
        {
          "internalType": "uint256",
          "name": "idx",
          "type": "uint256"
        },
        {
          "internalType": "address",
          "name": "account",
          "type": "address"
        }
      ],
      "name": "getUnrealizedPnL",
      "outputs": [
        {
          "internalType": "int256",
          "name": "",
          "type": "int256"
        }
      ],
      "stateMutability": "view",
      "type": "function"
    },
    {
      "inputs": [
        {
          "internalType": "uint256",
          "name": "idx",
          "type": "uint256"
        }
      ],
      "name": "indexPrice",
      "outputs": [
        {
          "internalType": "int256",
          "name": "",
          "type": "int256"
        }
      ],
      "stateMutability": "view",
      "type": "function"
    },
    {
      "inputs": [],
      "name": "insurance",
      "outputs": [
        {
          "internalType": "contract IInsurance",
          "name": "",
          "type": "address"
        }
      ],
      "stateMutability": "view",
      "type": "function"
    },
    {
      "inputs": [
        {
          "internalType": "uint256",
          "name": "idx",
          "type": "uint256"
        },
        {
          "internalType": "address",
          "name": "liquidatee",
          "type": "address"
        },
        {
          "internalType": "uint256",
          "name": "tentativeVQuoteAmount",
          "type": "uint256"
        }
      ],
      "name": "liquidate",
      "outputs": [],
      "stateMutability": "nonpayable",
      "type": "function"
    },
    {
      "inputs": [
        {
          "internalType": "uint256",
          "name": "idx",
          "type": "uint256"
        },
        {
          "internalType": "address",
          "name": "account",
          "type": "address"
        },
        {
          "internalType": "int256",
          "name": "ratio",
          "type": "int256"
        }
      ],
      "name": "marginIsValid",
      "outputs": [
        {
          "internalType": "bool",
          "name": "",
          "type": "bool"
        }
      ],
      "stateMutability": "view",
      "type": "function"
    },
    {
      "inputs": [
        {
          "internalType": "uint256",
          "name": "idx",
          "type": "uint256"
        },
        {
          "internalType": "address",
          "name": "account",
          "type": "address"
        }
      ],
      "name": "marginRatio",
      "outputs": [
        {
          "internalType": "int256",
          "name": "",
          "type": "int256"
        }
      ],
      "stateMutability": "view",
      "type": "function"
    },
    {
      "inputs": [
        {
          "internalType": "uint256",
          "name": "idx",
          "type": "uint256"
        }
      ],
      "name": "marketPrice",
      "outputs": [
        {
          "internalType": "uint256",
          "name": "",
          "type": "uint256"
        }
      ],
      "stateMutability": "view",
      "type": "function"
    },
    {
      "inputs": [
        {
          "internalType": "uint256",
          "name": "idx",
          "type": "uint256"
        }
      ],
      "name": "marketPriceOracle",
      "outputs": [
        {
          "internalType": "uint256",
          "name": "",
          "type": "uint256"
        }
      ],
      "stateMutability": "view",
      "type": "function"
    },
    {
      "inputs": [
        {
          "internalType": "uint256",
          "name": "idx",
          "type": "uint256"
        },
        {
          "internalType": "uint256",
          "name": "amount",
          "type": "uint256"
        },
        {
          "internalType": "enum LibPerpetual.Side",
          "name": "direction",
          "type": "uint8"
        }
      ],
      "name": "openPosition",
      "outputs": [
        {
          "internalType": "int256",
          "name": "",
          "type": "int256"
        },
        {
          "internalType": "int256",
          "name": "",
          "type": "int256"
        }
      ],
      "stateMutability": "nonpayable",
      "type": "function"
    },
    {
      "inputs": [
        {
          "internalType": "uint256",
          "name": "idx",
          "type": "uint256"
        },
        {
          "internalType": "uint256",
          "name": "amount",
          "type": "uint256"
        },
        {
          "internalType": "enum LibPerpetual.Side",
          "name": "direction",
          "type": "uint8"
        }
      ],
      "name": "openPositionWithUSDC",
      "outputs": [
        {
          "internalType": "int256",
          "name": "",
          "type": "int256"
        },
        {
          "internalType": "int256",
          "name": "",
          "type": "int256"
        }
      ],
      "stateMutability": "nonpayable",
      "type": "function"
    },
    {
      "inputs": [],
      "name": "owner",
      "outputs": [
        {
          "internalType": "address",
          "name": "",
          "type": "address"
        }
      ],
      "stateMutability": "view",
      "type": "function"
    },
    {
      "inputs": [],
      "name": "paused",
      "outputs": [
        {
          "internalType": "bool",
          "name": "",
          "type": "bool"
        }
      ],
      "stateMutability": "view",
      "type": "function"
    },
    {
      "inputs": [],
      "name": "pendingOwner",
      "outputs": [
        {
          "internalType": "address",
          "name": "",
          "type": "address"
        }
      ],
      "stateMutability": "view",
      "type": "function"
    },
    {
      "inputs": [
        {
          "internalType": "uint256",
          "name": "",
          "type": "uint256"
        }
      ],
      "name": "perpetuals",
      "outputs": [
        {
          "internalType": "contract IPerpetual",
          "name": "",
          "type": "address"
        }
      ],
      "stateMutability": "view",
      "type": "function"
    },
    {
      "inputs": [
        {
          "internalType": "uint256",
          "name": "idx",
          "type": "uint256"
        },
        {
          "internalType": "uint256",
          "name": "amount",
          "type": "uint256"
        },
        {
          "internalType": "contract IERC20",
          "name": "token",
          "type": "address"
        }
      ],
      "name": "provideLiquidity",
      "outputs": [
        {
          "internalType": "uint256",
          "name": "",
          "type": "uint256"
        },
        {
          "internalType": "uint256",
          "name": "",
          "type": "uint256"
        }
      ],
      "stateMutability": "nonpayable",
      "type": "function"
    },
    {
      "inputs": [
        {
          "internalType": "uint256",
          "name": "idx",
          "type": "uint256"
        },
        {
          "internalType": "uint256",
          "name": "amount",
          "type": "uint256"
        }
      ],
      "name": "removeLiquidity",
      "outputs": [],
      "stateMutability": "nonpayable",
      "type": "function"
    },
    {
      "inputs": [
        {
          "internalType": "uint256",
          "name": "idx",
          "type": "uint256"
        },
        {
          "internalType": "uint256",
          "name": "tentativeVQuoteAmount",
          "type": "uint256"
        }
      ],
      "name": "settleAndWithdrawLiquidity",
      "outputs": [],
      "stateMutability": "nonpayable",
      "type": "function"
    },
    {
      "inputs": [
        {
          "internalType": "address",
          "name": "recipient",
          "type": "address"
        },
        {
          "internalType": "bool",
          "name": "direct",
          "type": "bool"
        }
      ],
      "name": "transferOwner",
      "outputs": [],
      "stateMutability": "nonpayable",
      "type": "function"
    },
    {
      "inputs": [],
      "name": "vault",
      "outputs": [
        {
          "internalType": "contract IVault",
          "name": "",
          "type": "address"
        }
      ],
      "stateMutability": "view",
      "type": "function"
    },
    {
      "inputs": [
        {
          "internalType": "uint256",
          "name": "idx",
          "type": "uint256"
        },
        {
          "internalType": "uint256",
          "name": "amount",
          "type": "uint256"
        },
        {
          "internalType": "contract IERC20",
          "name": "token",
          "type": "address"
        }
      ],
      "name": "withdraw",
      "outputs": [],
      "stateMutability": "nonpayable",
      "type": "function"
    }
  ],
  "transactionHash": "0x4c88eb0be57f2bd7d0532414849f798be5d17af09e89225d41637f6f55084ddc",
  "args": [
    "0xEFF5C0571c4b3436B48CFD0CAcf25f6C555B751b",
    "0x05eb230ac1e8a9E96553174bAAD8D0dAd483cA00"
  ],
  "solcInputHash": "6cc19c32fd6f00ae55276f55201b9520",
  "bytecode": "0x60806040523480156200001157600080fd5b5060405162002980380380620029808339810160408190526200003491620000b2565b600080546001600160a01b0319163390811782556040519091907f5bb496b3f951b55d3a1d8e479725a4d25bdc7644fc355f0b71c540354820a1c5908290a36001805460ff60a01b19169055600280546001600160a01b039384166001600160a01b0319918216179091556003805492909316911617905562000109565b60008060408385031215620000c5578182fd5b8251620000d281620000f0565b6020840151909250620000e581620000f0565b809150509250929050565b6001600160a01b03811681146200010657600080fd5b50565b61286780620001196000396000f3fe608060405234801561001057600080fd5b50600436106102065760003560e01c806379bd1eac1161011a578063c57981b5116100ad578063cf81afaa1161007c578063cf81afaa146104cd578063d22eea66146104e0578063e30c3978146104f3578063eee8a16814610506578063fbfa77cf1461051457600080fd5b8063c57981b514610455578063c8401fd314610463578063cc2923c51461046b578063ce48674f146104ba57600080fd5b80638dbdbe6d116100e95780638dbdbe6d1461040e5780639d7de6b314610421578063ad0d759414610434578063b0c91e5a1461044257600080fd5b806379bd1eac146103c25780637c797609146103d557806389cf3204146103e85780638da5cb5b146103fb57600080fd5b8063302137021161019d57806345301eda1161016c57806345301eda1461034c57806359a1ecaa1461035f5780635c975abb1461038a5780635fbf81cc1461039c57806366e910dd146103af57600080fd5b806330213702146102e65780633aa75d421461030e5780633adec5a7146103315780633bd1adec1461034457600080fd5b80631fb4ef67116101d95780631fb4ef67146102675780631fdbc3c81461027a57806326818f17146102c05780632d6ce61d146102d357600080fd5b80630ad58d2f1461020b5780631573b577146102205780631d48cd96146102415780631e1e437c14610254575b600080fd5b61021e6102193660046124f7565b610527565b005b61022e66038d7ea4c6800081565b6040519081526020015b60405180910390f35b61021e61024f36600461235b565b610657565b61021e6102623660046124d6565b610730565b61022e61027536600461244f565b610992565b61028d610288366004612467565b610a3c565b60405161023891908151815260208083015190820152604080830151908201526060918201519181019190915260800190565b61022e6102ce366004612467565b610b16565b61021e6102e13660046124d6565b610bc0565b6102f96102f43660046124f7565b610da4565b60408051928352602083019190915201610238565b61032161031c36600461248b565b611068565b6040519015158152602001610238565b61022e61033f36600461244f565b61107f565b61021e6110eb565b61022e61035a366004612467565b611191565b61037261036d36600461244f565b611202565b6040516001600160a01b039091168152602001610238565b600154600160a01b900460ff16610321565b6102f96103aa36600461252f565b61122c565b61028d6103bd366004612467565b6114f6565b61021e6103d03660046124c2565b61157d565b6102f96103e336600461252f565b6118f3565b600354610372906001600160a01b031681565b600054610372906001600160a01b031681565b61021e61041c3660046124f7565b6119a1565b61021e61042f3660046124d6565b611a77565b61022e66d529ae9e86000081565b61022e610450366004612467565b611b44565b61022e666a94d74f43000081565b61022e611b7e565b61047e61047936600461244f565b611baa565b6040516102389190815181526020808301516001600160801b031690820152604080830151908201526060918201519181019190915260800190565b61022e6104c8366004612467565b611c8d565b61021e6104db366004612303565b611ceb565b61022e6104ee36600461244f565b611e15565b600154610372906001600160a01b031681565b61022e6658d15e1762800081565b600254610372906001600160a01b031681565b61053183336114f6565b51156105785760405162461bcd60e51b81526020600482015260116024820152702430b99037b832b7103837b9b4ba34b7b760791b60448201526064015b60405180910390fd5b600254604051635f0f48bd60e01b81526000916001600160a01b031690635f0f48bd906105af9087903390889088906004016125c4565b602060405180830381600087803b1580156105c957600080fd5b505af11580156105dd573d6000803e3d6000fd5b505050506040513d601f19601f820116820180604052508101906106019190612377565b1161060b57600080fd5b60408051848152602081018490526001600160a01b0383169133917ffeb2000dca3e617cd6f3a8bbb63014bb54a124aac6ccbf73ee7229b4cd01f12091015b60405180910390a3505050565b6000546001600160a01b0316331461069d5760405162461bcd60e51b81526020600482015260096024820152682727aa2fa7aba722a960b91b604482015260640161056f565b6004546040519081526001600160a01b038216907f89ead78b5adc5070fcc35b67ed66e35bed6fb69ed4749b2d4c54fe725c3e7f679060200160405180910390a2600480546001810182556000919091527f8a35acfbc15ff81a39ae7d344fd709f28e8600b4aa8c65c6b64bfe7fe36bd19b0180546001600160a01b0319166001600160a01b0392909216919091179055565b60006004838154811061075357634e487b7160e01b600052603260045260246000fd5b600091825260209091200154604051636eea8dab60e01b8152336004820152602481018490526001600160a01b0390911690636eea8dab90604401602060405180830381600087803b1580156107a857600080fd5b505af11580156107bc573d6000803e3d6000fd5b505050506040513d601f19601f820116820180604052508101906107e09190612377565b600254604051636f67163d60e01b81529192506001600160a01b031690636f67163d90610815908690339086906004016125a5565b600060405180830381600087803b15801561082f57600080fd5b505af1158015610843573d6000803e3d6000fd5b50506002546040805163f4325d6760e01b815290516001600160a01b0390921693506374d358ae925086913391859163f4325d6791600480820192602092909190829003018186803b15801561089857600080fd5b505afa1580156108ac573d6000803e3d6000fd5b505050506040513d601f19601f820116820180604052508101906108d0919061233f565b6040516001600160e01b031960e086901b16815260048101939093526001600160a01b039182166024840152166044820152606401602060405180830381600087803b15801561091f57600080fd5b505af1158015610933573d6000803e3d6000fd5b505050506040513d601f19601f820116820180604052508101906109579190612377565b5060405183815233907f971f63643b6d0341cf9c1971238adc8625537ce1c41ba0a9dfcbd784832bd5f99060200160405180910390a2505050565b6000600482815481106109b557634e487b7160e01b600052603260045260246000fd5b600091825260209182902001546040805163042eb3a360e21b815290516001600160a01b03909216926310bace8c92600480840193829003018186803b1580156109fe57600080fd5b505afa158015610a12573d6000803e3d6000fd5b505050506040513d601f19601f82011682018060405250810190610a369190612377565b92915050565b610a676040518060800160405280600081526020016000815260200160008152602001600081525090565b60048381548110610a8857634e487b7160e01b600052603260045260246000fd5b60009182526020909120015460405163cefc499360e01b81526001600160a01b0384811660048301529091169063cefc4993906024015b60806040518083038186803b158015610ad757600080fd5b505afa158015610aeb573d6000803e3d6000fd5b505050506040513d601f19601f82011682018060405250810190610b0f919061240a565b9392505050565b600060048381548110610b3957634e487b7160e01b600052603260045260246000fd5b60009182526020909120015460405163544305bf60e01b81526001600160a01b0384811660048301529091169063544305bf906024015b60206040518083038186803b158015610b8857600080fd5b505afa158015610b9c573d6000803e3d6000fd5b505050506040513d601f19601f82011682018060405250810190610b0f9190612377565b6000610bcc83336114f6565b9050600080826020015113610be2576001610be5565b60005b8251909150610c365760405162461bcd60e51b815260206004820152601c60248201527f4e6f20706f736974696f6e2063757272656e746c79206f70656e656400000000604482015260640161056f565b600060048581548110610c5957634e487b7160e01b600052603260045260246000fd5b600091825260209091200154604051630e85fc3f60e31b8152336004820152602481018690526001600160a01b039091169063742fe1f890604401602060405180830381600087803b158015610cae57600080fd5b505af1158015610cc2573d6000803e3d6000fd5b505050506040513d601f19601f82011682018060405250810190610ce69190612377565b600254604051636f67163d60e01b81529192506001600160a01b031690636f67163d90610d1b908890339086906004016125a5565b600060405180830381600087803b158015610d3557600080fd5b505af1158015610d49573d6000803e3d6000fd5b5050845160208601516040516001600160801b03421694503393507ff33f0134d4f7350b851d20eb062aa4162fe4e8899745e9542d0f321e8662ab2f92610d95928b92899291906125eb565b60405180910390a35050505050565b60008083610de25760405162461bcd60e51b815260206004820152600b60248201526a16995c9bc8185b5bdd5b9d60aa1b604482015260640161056f565b60048581548110610e0357634e487b7160e01b600052603260045260246000fd5b60009182526020909120015460405163cefc499360e01b81523360048201526001600160a01b039091169063cefc49939060240160806040518083038186803b158015610e4f57600080fd5b505afa158015610e63573d6000803e3d6000fd5b505050506040513d601f19601f82011682018060405250810190610e87919061240a565b6060015115610ed85760405162461bcd60e51b815260206004820152601d60248201527f4861732070726f7669646564206c6971756964697479206265666f7265000000604482015260640161056f565b6002546040516366c457b760e11b81526000916001600160a01b03169063cd88af6e90610f0f90899033908a908a906004016125c4565b602060405180830381600087803b158015610f2957600080fd5b505af1158015610f3d573d6000803e3d6000fd5b505050506040513d601f19601f82011682018060405250810190610f619190612377565b9050600060048781548110610f8657634e487b7160e01b600052603260045260246000fd5b6000918252602090912001546040516302ff530960e51b8152336004820152602481018490526001600160a01b0390911690635fea612090604401602060405180830381600087803b158015610fdb57600080fd5b505af1158015610fef573d6000803e3d6000fd5b505050506040513d601f19601f820116820180604052508101906110139190612377565b60408051898152602081018990529192506001600160a01b0387169133917ff2460e83503d3438ae777542c8cce71cd5e03aa2e741d95ebcf23afe0bb1728a910160405180910390a390969095509350505050565b6000816110758585611191565b1215949350505050565b6000600482815481106110a257634e487b7160e01b600052603260045260246000fd5b60009182526020918290200154604080516308b42a7160e31b815290516001600160a01b03909216926345a1538892600480840193829003018186803b1580156109fe57600080fd5b6001546001600160a01b031633146111395760405162461bcd60e51b81526020600482015260116024820152702727aa2fa822a72224a723afa7aba722a960791b604482015260640161056f565b6000805460405133926001600160a01b03909216917f5bb496b3f951b55d3a1d8e479725a4d25bdc7644fc355f0b71c540354820a1c591a3600080546001600160a01b03199081163317909155600180549091169055565b60008061119e8484611b44565b905060006111ac8585611c8d565b905060006111ba8686610b16565b905060006111c887876114f6565b51905060006111d682611e81565b90506111f6846111e68588612648565b6111f09190612648565b82611e8c565b98975050505050505050565b6004818154811061121257600080fd5b6000918252602090912001546001600160a01b0316905081565b6000806000841161127f5760405162461bcd60e51b815260206004820152601860248201527f54686520616d6f756e742063616e2774206265206e756c6c0000000000000000604482015260640161056f565b600080600487815481106112a357634e487b7160e01b600052603260045260246000fd5b6000918252602090912001546040516302eaee8960e61b81526001600160a01b039091169063babba240906112e09033908a908a90600401612581565b6040805180830381600087803b1580156112f957600080fd5b505af115801561130d573d6000803e3d6000fd5b505050506040513d601f19601f82011682018060405250810190611331919061238f565b91509150600061135061134384611e81565b66038d7ea4c68000611e98565b6002549091506001600160a01b0316636f67163d893361136f856127e9565b6040518463ffffffff1660e01b815260040161138d939291906125a5565b600060405180830381600087803b1580156113a757600080fd5b505af11580156113bb573d6000803e3d6000fd5b5050600254600354604051636f67163d60e01b81526001600160a01b039283169450636f67163d93506113f6928d92169086906004016125a5565b600060405180830381600087803b15801561141057600080fd5b505af1158015611424573d6000803e3d6000fd5b505050506114588833666a94d74f4300006658d15e176280006114479190612648565b61031c906658d15e17628000612648565b6114985760405162461bcd60e51b81526020600482015260116024820152702737ba1032b737bab3b41036b0b933b4b760791b604482015260640161056f565b426001600160801b0316336001600160a01b03167f4f516852a730e5c883b0ce27843900bf3878a89736eba08d4d5648fb833c71448a8987876040516114e194939291906125eb565b60405180910390a35090969095509350505050565b6115216040518060800160405280600081526020016000815260200160008152602001600081525090565b6004838154811061154257634e487b7160e01b600052603260045260246000fd5b600091825260209091200154604051630f272c5b60e31b81526001600160a01b0384811660048301529091169063793962d890602401610abf565b60003390506000611634600486815481106115a857634e487b7160e01b600052603260045260246000fd5b600091825260209091200154604051630f272c5b60e31b81526001600160a01b0387811660048301529091169063793962d89060240160806040518083038186803b1580156115f657600080fd5b505afa15801561160a573d6000803e3d6000fd5b505050506040513d601f19601f8201168201806040525081019061162e919061240a565b51611e81565b905061164085856114f6565b5161168d5760405162461bcd60e51b815260206004820152601c60248201527f4e6f20706f736974696f6e2063757272656e746c79206f70656e656400000000604482015260640161056f565b61169f85856658d15e17628000611068565b156116de5760405162461bcd60e51b815260206004820152600f60248201526e13585c99da5b881a5cc81d985b1a59608a1b604482015260640161056f565b60006004868154811061170157634e487b7160e01b600052603260045260246000fd5b600091825260209091200154604051630e85fc3f60e31b81526001600160a01b038781166004830152602482018790529091169063742fe1f890604401602060405180830381600087803b15801561175857600080fd5b505af115801561176c573d6000803e3d6000fd5b505050506040513d601f19601f820116820180604052508101906117909190612377565b905060006117a58366d529ae9e860000611ea4565b905060006117b282611eb0565b6117bc9084612793565b600254604051636f67163d60e01b81529192506001600160a01b031690636f67163d906117f1908b908b9086906004016125a5565b600060405180830381600087803b15801561180b57600080fd5b505af115801561181f573d6000803e3d6000fd5b50506002546001600160a01b03169150636f67163d9050898761184186611eb0565b6040518463ffffffff1660e01b815260040161185f939291906125a5565b600060405180830381600087803b15801561187957600080fd5b505af115801561188d573d6000803e3d6000fd5b5050604080518b81526001600160801b03421660208201529081018790526001600160a01b0380891693508a1691507f5e7acdfa69a1cc464bc1b63dc35de650ede397276ad72e229dcb5aeee4cd95509060600160405180910390a35050505050505050565b6000806000611987600260009054906101000a90046001600160a01b03166001600160a01b03166395dc1b926040518163ffffffff1660e01b815260040160206040518083038186803b15801561194957600080fd5b505afa15801561195d573d6000803e3d6000fd5b505050506040513d601f19601f820116820180604052508101906119819190612377565b86611f1e565b905061199486828661122c565b9250925050935093915050565b6002546040516366c457b760e11b81526000916001600160a01b03169063cd88af6e906119d89087903390889088906004016125c4565b602060405180830381600087803b1580156119f257600080fd5b505af1158015611a06573d6000803e3d6000fd5b505050506040513d601f19601f82011682018060405250810190611a2a9190612377565b11611a3457600080fd5b60408051848152602081018490526001600160a01b0383169133917f2c0f148b435140de488c1b34647f1511c646f7077e87007bacf22ef9977a16d8910161064a565b60048281548110611a9857634e487b7160e01b600052603260045260246000fd5b600091825260209091200154604051635100e67b60e11b8152336004820152602481018390526001600160a01b039091169063a201ccf690604401600060405180830381600087803b158015611aed57600080fd5b505af1158015611b01573d6000803e3d6000fd5b505060408051858152602081018590523393507f7cd78db3fa0f169740484c879803073b63a35c4c5d82f02312e7aa988eee855492500160405180910390a25050565b6002546040516358648f2d60e11b8152600481018490526001600160a01b038381166024830152600092169063b0c91e5a90604401610b70565b611b96666a94d74f4300006658d15e17628000612648565b611ba7906658d15e17628000612648565b81565b611bde60405180608001604052806000815260200160006001600160801b0316815260200160008152602001600081525090565b60048281548110611bff57634e487b7160e01b600052603260045260246000fd5b9060005260206000200160009054906101000a90046001600160a01b03166001600160a01b0316639027b59e6040518163ffffffff1660e01b815260040160806040518083038186803b158015611c5557600080fd5b505afa158015611c69573d6000803e3d6000fd5b505050506040513d601f19601f82011682018060405250810190610a3691906123b2565b600060048381548110611cb057634e487b7160e01b600052603260045260246000fd5b600091825260209091200154604051632847ded360e11b81526001600160a01b0384811660048301529091169063508fbda690602401610b70565b6000546001600160a01b03163314611d315760405162461bcd60e51b81526020600482015260096024820152682727aa2fa7aba722a960b91b604482015260640161056f565b6001600160a01b038216611d765760405162461bcd60e51b815260206004820152600c60248201526b5a45524f5f4144445245535360a01b604482015260640161056f565b8015611dc857600080546001600160a01b0319166001600160a01b0384169081178255604051909133917f5bb496b3f951b55d3a1d8e479725a4d25bdc7644fc355f0b71c540354820a1c59190a35050565b600180546001600160a01b0319166001600160a01b03841690811790915560405133907f87f5c8846f4c51400fa448cfb84edcec5cc0f333b6d20a5b903e050823dcb66790600090a35050565b600060048281548110611e3857634e487b7160e01b600052603260045260246000fd5b60009182526020918290200154604080516360551d5f60e01b815290516001600160a01b03909216926360551d5f92600480840193829003018186803b1580156109fe57600080fd5b6000610a3682611f95565b6000610b0f8383611fd1565b6000610b0f8383612097565b6000610b0f8383612159565b60006001600160ff1b03821115611f1a5760405162461bcd60e51b815260206004820152602860248201527f53616665436173743a2076616c756520646f65736e27742066697420696e2061604482015267371034b73a191a9b60c11b606482015260840161056f565b5090565b60006012831115611f695760405162461bcd60e51b815260206004820152601560248201527413585e08191958da5b585b1cc8195e18d959591959605a1b604482015260640161056f565b6000611f768460126127d2565b611f8190600a6126cc565b9050611f8d8184612774565b949350505050565b6000600160ff1b821415611fbc57604051631d0742e360e21b815260040160405180910390fd5b60008212611fca5781610a36565b5060000390565b6000600160ff1b831480611fe85750600160ff1b82145b156120065760405163b3c754a360e01b815260040160405180910390fd5b60008060008512612017578461201c565b846000035b91506000841261202c5783612031565b836000035b9050600061204883670de0b6b3a764000084612165565b90506001600160ff1b0381111561207557604051637cb4bef560e01b81526004810182905260240161056f565b60001980871390861380821860011461208e57826111f6565b6111f6836127e9565b6000600160ff1b8314806120ae5750600160ff1b82145b156120cc57604051630d01a11b60e21b815260040160405180910390fd5b600080600085126120dd57846120e2565b846000035b9150600084126120f257836120f7565b836000035b905060006121058383612241565b90506001600160ff1b038111156121325760405163bf79e8d960e01b81526004810182905260240161056f565b60001980871390861380821860011461214b57826111f6565b505060000395945050505050565b6000610b0f8383612241565b6000808060001985870985870292508281108382030391505080600014156121ae578382816121a457634e487b7160e01b600052601260045260246000fd5b0492505050610b0f565b8381106121d857604051631dcf306360e21b8152600481018290526024810185905260440161056f565b60008486880960026001871981018816978890046003810283188082028403028082028403028082028403028082028403028082028403029081029092039091026000889003889004909101858311909403939093029303949094049190911702949350505050565b60008080600019848609848602925082811083820303915050670de0b6b3a764000081106122855760405163698d9a0160e11b81526004810182905260240161056f565b600080670de0b6b3a76400008688099150506706f05b59d3b1ffff8111826122bf5780670de0b6b3a7640000850401945050505050610a36565b620400008285030493909111909103600160ee1b02919091177faccb18165bd6fe31ae1cf318dc5b51eee0e1ba569b88cd74c1773b91fac106690201905092915050565b60008060408385031215612315578182fd5b823561232081612819565b915060208301358015158114612334578182fd5b809150509250929050565b600060208284031215612350578081fd5b8151610b0f81612819565b60006020828403121561236c578081fd5b8135610b0f81612819565b600060208284031215612388578081fd5b5051919050565b600080604083850312156123a1578182fd5b505080516020909101519092909150565b6000608082840312156123c3578081fd5b6123cb612611565b8251815260208301516001600160801b03811681146123e8578283fd5b6020820152604083810151908201526060928301519281019290925250919050565b60006080828403121561241b578081fd5b612423612611565b825181526020830151602082015260408301516040820152606083015160608201528091505092915050565b600060208284031215612460578081fd5b5035919050565b60008060408385031215612479578182fd5b82359150602083013561233481612819565b60008060006060848603121561249f578081fd5b8335925060208401356124b181612819565b929592945050506040919091013590565b60008060006060848603121561249f578283fd5b600080604083850312156124e8578182fd5b50508035926020909101359150565b60008060006060848603121561250b578081fd5b8335925060208401359150604084013561252481612819565b809150509250925092565b600080600060608486031215612543578081fd5b8335925060208401359150604084013560028110612524578182fd5b6002811061257d57634e487b7160e01b600052602160045260246000fd5b9052565b6001600160a01b03841681526020810183905260608101611f8d604083018461255f565b9283526001600160a01b03919091166020830152604082015260600190565b9384526001600160a01b039283166020850152604084019190915216606082015260800190565b848152608081016125ff602083018661255f565b60408201939093526060015292915050565b6040516080810167ffffffffffffffff8111828210171561264257634e487b7160e01b600052604160045260246000fd5b60405290565b600080821280156001600160ff1b038490038513161561266a5761266a612803565b600160ff1b839003841281161561268357612683612803565b50500190565b600181815b808511156126c45781600019048211156126aa576126aa612803565b808516156126b757918102915b93841c939080029061268e565b509250929050565b6000610b0f83836000826126e257506001610a36565b816126ef57506000610a36565b8160018114612705576002811461270f5761272b565b6001915050610a36565b60ff84111561272057612720612803565b50506001821b610a36565b5060208310610133831016604e8410600b841016171561274e575081810a610a36565b6127588383612689565b806000190482111561276c5761276c612803565b029392505050565b600081600019048311821515161561278e5761278e612803565b500290565b60008083128015600160ff1b8501841216156127b1576127b1612803565b6001600160ff1b03840183138116156127cc576127cc612803565b50500390565b6000828210156127e4576127e4612803565b500390565b6000600160ff1b8214156127ff576127ff612803565b0390565b634e487b7160e01b600052601160045260246000fd5b6001600160a01b038116811461282e57600080fd5b5056fea26469706673582212205652afb98255a52bb3be934b03ade760e46d3d3fa1805959aafaa7102cc68d1364736f6c63430008040033",
  "devdoc": {
    "kind": "dev",
    "methods": {
      "closePosition(uint256,uint256)": {
        "params": {
          "tentativeVQuoteAmount": "Amount of vQuote tokens to be sold for SHORT positions (anything works for LONG position)"
        }
      },
      "liquidate(uint256,address,uint256)": {
        "params": {
          "tentativeVQuoteAmount": "Amount of vQuote tokens to be sold for SHORT positions (anything works for LONG position)"
        }
      },
      "openPosition(uint256,uint256,uint8)": {
        "details": "No number for the leverage is given but the amount in the vault must be bigger than MIN_MARGIN_AT_CREATIONNo checks are done if bought amount exceeds allowance",
        "params": {
          "amount": "to be sold, in vQuote (if long) or vBase (if short)"
        }
      },
      "paused()": {
        "details": "Returns true if the contract is paused, and false otherwise."
      },
      "provideLiquidity(uint256,uint256,address)": {
        "params": {
          "amount": "of token to be added to the pool (with token decimals)",
          "token": "to be added to the pool"
        }
      },
      "removeLiquidity(uint256,uint256)": {
        "params": {
          "amount": "of liquidity to be removed from the pool (with 18 decimals)"
        }
      },
      "settleAndWithdrawLiquidity(uint256,uint256)": {
        "params": {
          "tentativeVQuoteAmount": "at which to buy the LP position (if it looks like a short, more vQuote than vBase)"
        }
      },
      "transferOwner(address,bool)": {
        "params": {
          "direct": "If 'true', ownership is directly transferred.",
          "recipient": "Account granted `owner` access control."
        }
      }
    },
    "version": 1
  },
  "userdoc": {
    "errors": {
      "PRBMathSD59x18__AbsInputTooSmall()": [
        {
          "notice": "Emitted when the input is MIN_SD59x18."
        }
      ],
      "PRBMathSD59x18__DivInputTooSmall()": [
        {
          "notice": "Emitted when one of the inputs is MIN_SD59x18."
        }
      ],
      "PRBMathSD59x18__DivOverflow(uint256)": [
        {
          "notice": "Emitted when one of the intermediary unsigned results overflows SD59x18."
        }
      ],
      "PRBMathSD59x18__MulInputTooSmall()": [
        {
          "notice": "Emitted when one of the inputs is MIN_SD59x18."
        }
      ],
      "PRBMathSD59x18__MulOverflow(uint256)": [
        {
          "notice": "Emitted when the intermediary absolute result overflows SD59x18."
        }
      ],
      "PRBMath__MulDivFixedPointOverflow(uint256)": [
        {
          "notice": "Emitted when the result overflows uint256."
        }
      ],
      "PRBMath__MulDivOverflow(uint256,uint256)": [
        {
          "notice": "Emitted when the result overflows uint256."
        }
      ]
    },
    "kind": "user",
    "methods": {
      "claimOwner()": {
        "notice": "`pendingOwner` can claim `owner` account."
      },
      "closePosition(uint256,uint256)": {
        "notice": "Closes position from account holder"
      },
      "deposit(uint256,uint256,address)": {
        "notice": "Deposit tokens into the vault"
      },
      "getFundingPayments(uint256,address)": {
        "notice": "Calculate missed funding payments"
      },
      "indexPrice(uint256)": {
        "notice": "Return the current off-chain exchange rate for vBase/vQuote"
      },
      "marketPrice(uint256)": {
        "notice": "Return the last traded price (used for TWAP)"
      },
      "marketPriceOracle(uint256)": {
        "notice": "Return the curve price oracle"
      },
      "openPosition(uint256,uint256,uint8)": {
        "notice": "Open position, long or short"
      },
      "openPositionWithUSDC(uint256,uint256,uint8)": {
        "notice": "Function to be called by clients depositing USDC as collateral"
      },
      "provideLiquidity(uint256,uint256,address)": {
        "notice": "Provide liquidity to the pool"
      },
      "removeLiquidity(uint256,uint256)": {
        "notice": "Remove liquidity from the pool (but don't close LP position and withdraw amount)"
      },
      "settleAndWithdrawLiquidity(uint256,uint256)": {
        "notice": "Remove liquidity from the pool (but don't close LP position and withdraw amount)"
      },
      "transferOwner(address,bool)": {
        "notice": "Transfer `owner` account."
      },
      "withdraw(uint256,uint256,address)": {
        "notice": "Withdraw tokens from the vault"
      }
    },
    "version": 1
  },
  "storageLayout": {
    "storage": [
      {
        "astId": 7817,
        "contract": "contracts/ClearingHouse.sol:ClearingHouse",
        "label": "owner",
        "offset": 0,
        "slot": "0",
        "type": "t_address"
      },
      {
        "astId": 7819,
        "contract": "contracts/ClearingHouse.sol:ClearingHouse",
        "label": "pendingOwner",
        "offset": 0,
        "slot": "1",
        "type": "t_address"
      },
      {
        "astId": 536,
        "contract": "contracts/ClearingHouse.sol:ClearingHouse",
        "label": "_paused",
        "offset": 20,
        "slot": "1",
        "type": "t_bool"
      },
      {
        "astId": 2584,
        "contract": "contracts/ClearingHouse.sol:ClearingHouse",
        "label": "vault",
        "offset": 0,
        "slot": "2",
        "type": "t_contract(IVault)6105"
      },
      {
        "astId": 2587,
        "contract": "contracts/ClearingHouse.sol:ClearingHouse",
        "label": "insurance",
        "offset": 0,
        "slot": "3",
        "type": "t_contract(IInsurance)5709"
      },
      {
        "astId": 2591,
        "contract": "contracts/ClearingHouse.sol:ClearingHouse",
        "label": "perpetuals",
        "offset": 0,
        "slot": "4",
        "type": "t_array(t_contract(IPerpetual)5980)dyn_storage"
      }
    ],
    "types": {
      "t_address": {
        "encoding": "inplace",
        "label": "address",
        "numberOfBytes": "20"
      },
      "t_array(t_contract(IPerpetual)5980)dyn_storage": {
        "base": "t_contract(IPerpetual)5980",
        "encoding": "dynamic_array",
        "label": "contract IPerpetual[]",
        "numberOfBytes": "32"
      },
      "t_bool": {
        "encoding": "inplace",
        "label": "bool",
        "numberOfBytes": "1"
      },
      "t_contract(IInsurance)5709": {
        "encoding": "inplace",
        "label": "contract IInsurance",
        "numberOfBytes": "20"
      },
      "t_contract(IPerpetual)5980": {
        "encoding": "inplace",
        "label": "contract IPerpetual",
        "numberOfBytes": "20"
      },
      "t_contract(IVault)6105": {
        "encoding": "inplace",
        "label": "contract IVault",
        "numberOfBytes": "20"
      }
    }
  }
}