{
  "address": "0x4dfbfF432EE0cf8f5d5EeCd60DFb13502B84E74a",
  "abi": [
    {
      "inputs": [
        {
          "internalType": "contract IChainlinkOracle",
          "name": "_chainlinkOracle",
          "type": "address"
        },
        {
          "internalType": "contract PoolTWAPOracle",
          "name": "_poolTWAPOracle",
          "type": "address"
        },
        {
          "internalType": "contract ChainlinkTWAPOracle",
          "name": "_chainlinkTWAPOracle",
          "type": "address"
        },
        {
          "internalType": "contract IVirtualToken",
          "name": "_vBase",
          "type": "address"
        },
        {
          "internalType": "contract IVirtualToken",
          "name": "_vQuote",
          "type": "address"
        },
        {
          "internalType": "contract ICryptoSwap",
          "name": "_market",
          "type": "address"
        },
        {
          "internalType": "contract IClearingHouse",
          "name": "_clearingHouse",
          "type": "address"
        }
      ],
      "stateMutability": "nonpayable",
      "type": "constructor"
    },
    {
      "inputs": [],
      "name": "PRBMathSD59x18__AbsInputTooSmall",
      "type": "error"
    },
    {
      "inputs": [],
      "name": "PRBMathSD59x18__DivInputTooSmall",
      "type": "error"
    },
    {
      "inputs": [
        {
          "internalType": "uint256",
          "name": "rAbs",
          "type": "uint256"
        }
      ],
      "name": "PRBMathSD59x18__DivOverflow",
      "type": "error"
    },
    {
      "inputs": [],
      "name": "PRBMathSD59x18__MulInputTooSmall",
      "type": "error"
    },
    {
      "inputs": [
        {
          "internalType": "uint256",
          "name": "rAbs",
          "type": "uint256"
        }
      ],
      "name": "PRBMathSD59x18__MulOverflow",
      "type": "error"
    },
    {
      "inputs": [
        {
          "internalType": "uint256",
          "name": "prod1",
          "type": "uint256"
        }
      ],
      "name": "PRBMath__MulDivFixedPointOverflow",
      "type": "error"
    },
    {
      "inputs": [
        {
          "internalType": "uint256",
          "name": "prod1",
          "type": "uint256"
        },
        {
          "internalType": "uint256",
          "name": "denominator",
          "type": "uint256"
        }
      ],
      "name": "PRBMath__MulDivOverflow",
      "type": "error"
    },
    {
      "anonymous": false,
      "inputs": [
        {
          "indexed": true,
          "internalType": "address",
          "name": "user",
          "type": "address"
        },
        {
          "indexed": true,
          "internalType": "uint128",
          "name": "timeStamp",
          "type": "uint128"
        },
        {
          "indexed": false,
          "internalType": "enum LibPerpetual.Side",
          "name": "direction",
          "type": "uint8"
        },
        {
          "indexed": false,
          "internalType": "int256",
          "name": "notional",
          "type": "int256"
        },
        {
          "indexed": false,
          "internalType": "int256",
          "name": "amount",
          "type": "int256"
        }
      ],
      "name": "ClosePosition",
      "type": "event"
    },
    {
      "anonymous": false,
      "inputs": [
        {
          "indexed": true,
          "internalType": "uint256",
          "name": "blockNumber",
          "type": "uint256"
        },
        {
          "indexed": false,
          "internalType": "uint256",
          "name": "value",
          "type": "uint256"
        },
        {
          "indexed": false,
          "internalType": "bool",
          "name": "isPositive",
          "type": "bool"
        }
      ],
      "name": "FundingPayment",
      "type": "event"
    },
    {
      "anonymous": false,
      "inputs": [
        {
          "indexed": true,
          "internalType": "address",
          "name": "liquidatee",
          "type": "address"
        },
        {
          "indexed": true,
          "internalType": "address",
          "name": "liquidator",
          "type": "address"
        },
        {
          "indexed": false,
          "internalType": "uint128",
          "name": "timestamp",
          "type": "uint128"
        },
        {
          "indexed": false,
          "internalType": "uint256",
          "name": "notional",
          "type": "uint256"
        }
      ],
      "name": "LiquidationCall",
      "type": "event"
    },
    {
      "anonymous": false,
      "inputs": [
        {
          "indexed": true,
          "internalType": "address",
          "name": "liquidityProvider",
          "type": "address"
        },
        {
          "indexed": true,
          "internalType": "address",
          "name": "asset",
          "type": "address"
        },
        {
          "indexed": false,
          "internalType": "uint256",
          "name": "amount",
          "type": "uint256"
        }
      ],
      "name": "LiquidityProvided",
      "type": "event"
    },
    {
      "anonymous": false,
      "inputs": [
        {
          "indexed": true,
          "internalType": "address",
          "name": "liquidityProvider",
          "type": "address"
        },
        {
          "indexed": false,
          "internalType": "uint256",
          "name": "amount",
          "type": "uint256"
        }
      ],
      "name": "LiquidityRemoved",
      "type": "event"
    },
    {
      "anonymous": false,
      "inputs": [
        {
          "indexed": true,
          "internalType": "address",
          "name": "liquidityProvider",
          "type": "address"
        }
      ],
      "name": "LiquidityWithdrawn",
      "type": "event"
    },
    {
      "anonymous": false,
      "inputs": [
        {
          "indexed": false,
          "internalType": "string",
          "name": "errorMessage",
          "type": "string"
        }
      ],
      "name": "Log",
      "type": "event"
    },
    {
      "anonymous": false,
      "inputs": [
        {
          "indexed": true,
          "internalType": "address",
          "name": "user",
          "type": "address"
        },
        {
          "indexed": true,
          "internalType": "uint128",
          "name": "timeStamp",
          "type": "uint128"
        },
        {
          "indexed": false,
          "internalType": "enum LibPerpetual.Side",
          "name": "direction",
          "type": "uint8"
        },
        {
          "indexed": false,
          "internalType": "int256",
          "name": "notional",
          "type": "int256"
        },
        {
          "indexed": false,
          "internalType": "int256",
          "name": "amount",
          "type": "int256"
        }
      ],
      "name": "OpenPosition",
      "type": "event"
    },
    {
      "anonymous": false,
      "inputs": [
        {
          "indexed": false,
          "internalType": "address",
          "name": "account",
          "type": "address"
        }
      ],
      "name": "Paused",
      "type": "event"
    },
    {
      "anonymous": false,
      "inputs": [
        {
          "indexed": true,
          "internalType": "address",
          "name": "user",
          "type": "address"
        },
        {
          "indexed": false,
          "internalType": "int256",
          "name": "amount",
          "type": "int256"
        }
      ],
      "name": "Settlement",
      "type": "event"
    },
    {
      "anonymous": false,
      "inputs": [
        {
          "indexed": true,
          "internalType": "address",
          "name": "sender",
          "type": "address"
        },
        {
          "indexed": true,
          "internalType": "address",
          "name": "recipient",
          "type": "address"
        }
      ],
      "name": "TransferOwner",
      "type": "event"
    },
    {
      "anonymous": false,
      "inputs": [
        {
          "indexed": true,
          "internalType": "address",
          "name": "sender",
          "type": "address"
        },
        {
          "indexed": true,
          "internalType": "address",
          "name": "recipient",
          "type": "address"
        }
      ],
      "name": "TransferOwnerClaim",
      "type": "event"
    },
    {
      "anonymous": false,
      "inputs": [
        {
          "indexed": false,
          "internalType": "address",
          "name": "account",
          "type": "address"
        }
      ],
      "name": "Unpaused",
      "type": "event"
    },
    {
      "inputs": [],
      "name": "SENSITIVITY",
      "outputs": [
        {
          "internalType": "int256",
          "name": "",
          "type": "int256"
        }
      ],
      "stateMutability": "view",
      "type": "function"
    },
    {
      "inputs": [],
      "name": "TWAP_FREQUENCY",
      "outputs": [
        {
          "internalType": "uint256",
          "name": "",
          "type": "uint256"
        }
      ],
      "stateMutability": "view",
      "type": "function"
    },
    {
      "inputs": [],
      "name": "VBASE_INDEX",
      "outputs": [
        {
          "internalType": "uint256",
          "name": "",
          "type": "uint256"
        }
      ],
      "stateMutability": "view",
      "type": "function"
    },
    {
      "inputs": [],
      "name": "VQUOTE_INDEX",
      "outputs": [
        {
          "internalType": "uint256",
          "name": "",
          "type": "uint256"
        }
      ],
      "stateMutability": "view",
      "type": "function"
    },
    {
      "inputs": [],
      "name": "chainlinkOracle",
      "outputs": [
        {
          "internalType": "contract IChainlinkOracle",
          "name": "",
          "type": "address"
        }
      ],
      "stateMutability": "view",
      "type": "function"
    },
    {
      "inputs": [],
      "name": "chainlinkTWAPOracle",
      "outputs": [
        {
          "internalType": "contract ChainlinkTWAPOracle",
          "name": "",
          "type": "address"
        }
      ],
      "stateMutability": "view",
      "type": "function"
    },
    {
      "inputs": [],
      "name": "claimOwner",
      "outputs": [],
      "stateMutability": "nonpayable",
      "type": "function"
    },
    {
      "inputs": [],
      "name": "clearingHouse",
      "outputs": [
        {
          "internalType": "contract IClearingHouse",
          "name": "",
          "type": "address"
        }
      ],
      "stateMutability": "view",
      "type": "function"
    },
    {
      "inputs": [
        {
          "internalType": "address",
          "name": "account",
          "type": "address"
        },
        {
          "internalType": "uint256",
          "name": "tentativeVQuoteAmount",
          "type": "uint256"
        }
      ],
      "name": "closePosition",
      "outputs": [
        {
          "internalType": "int256",
          "name": "",
          "type": "int256"
        }
      ],
      "stateMutability": "nonpayable",
      "type": "function"
    },
    {
      "inputs": [
        {
          "internalType": "address",
          "name": "account",
          "type": "address"
        }
      ],
      "name": "getFundingPayments",
      "outputs": [
        {
          "internalType": "int256",
          "name": "",
          "type": "int256"
        }
      ],
      "stateMutability": "view",
      "type": "function"
    },
    {
      "inputs": [],
      "name": "getGlobalPosition",
      "outputs": [
        {
          "components": [
            {
              "internalType": "int256",
              "name": "cumTradePremium",
              "type": "int256"
            },
            {
              "internalType": "uint128",
              "name": "timeOfLastTrade",
              "type": "uint128"
            },
            {
              "internalType": "int256",
              "name": "premium",
              "type": "int256"
            },
            {
              "internalType": "int256",
              "name": "cumFundingRate",
              "type": "int256"
            }
          ],
          "internalType": "struct LibPerpetual.GlobalPosition",
          "name": "",
          "type": "tuple"
        }
      ],
      "stateMutability": "view",
      "type": "function"
    },
    {
      "inputs": [
        {
          "internalType": "address",
          "name": "account",
          "type": "address"
        }
      ],
      "name": "getLpPosition",
      "outputs": [
        {
          "components": [
            {
              "internalType": "int256",
              "name": "openNotional",
              "type": "int256"
            },
            {
              "internalType": "int256",
              "name": "positionSize",
              "type": "int256"
            },
            {
              "internalType": "int256",
              "name": "cumFundingRate",
              "type": "int256"
            },
            {
              "internalType": "uint256",
              "name": "liquidityBalance",
              "type": "uint256"
            }
          ],
          "internalType": "struct LibPerpetual.UserPosition",
          "name": "",
          "type": "tuple"
        }
      ],
      "stateMutability": "view",
      "type": "function"
    },
    {
      "inputs": [
        {
          "internalType": "address",
          "name": "account",
          "type": "address"
        }
      ],
      "name": "getTraderPosition",
      "outputs": [
        {
          "components": [
            {
              "internalType": "int256",
              "name": "openNotional",
              "type": "int256"
            },
            {
              "internalType": "int256",
              "name": "positionSize",
              "type": "int256"
            },
            {
              "internalType": "int256",
              "name": "cumFundingRate",
              "type": "int256"
            },
            {
              "internalType": "uint256",
              "name": "liquidityBalance",
              "type": "uint256"
            }
          ],
          "internalType": "struct LibPerpetual.UserPosition",
          "name": "",
          "type": "tuple"
        }
      ],
      "stateMutability": "view",
      "type": "function"
    },
    {
      "inputs": [
        {
          "internalType": "address",
          "name": "account",
          "type": "address"
        }
      ],
      "name": "getUnrealizedPnL",
      "outputs": [
        {
          "internalType": "int256",
          "name": "",
          "type": "int256"
        }
      ],
      "stateMutability": "view",
      "type": "function"
    },
    {
      "inputs": [],
      "name": "indexPrice",
      "outputs": [
        {
          "internalType": "int256",
          "name": "",
          "type": "int256"
        }
      ],
      "stateMutability": "view",
      "type": "function"
    },
    {
      "inputs": [
        {
          "internalType": "address",
          "name": "liquidatee",
          "type": "address"
        },
        {
          "internalType": "uint256",
          "name": "tentativeVQuoteAmount",
          "type": "uint256"
        }
      ],
      "name": "liquidate",
      "outputs": [
        {
          "internalType": "int256",
          "name": "",
          "type": "int256"
        }
      ],
      "stateMutability": "nonpayable",
      "type": "function"
    },
    {
      "inputs": [],
      "name": "market",
      "outputs": [
        {
          "internalType": "contract ICryptoSwap",
          "name": "",
          "type": "address"
        }
      ],
      "stateMutability": "view",
      "type": "function"
    },
    {
      "inputs": [],
      "name": "marketPrice",
      "outputs": [
        {
          "internalType": "uint256",
          "name": "",
          "type": "uint256"
        }
      ],
      "stateMutability": "view",
      "type": "function"
    },
    {
      "inputs": [],
      "name": "marketPriceOracle",
      "outputs": [
        {
          "internalType": "uint256",
          "name": "",
          "type": "uint256"
        }
      ],
      "stateMutability": "view",
      "type": "function"
    },
    {
      "inputs": [
        {
          "internalType": "address",
          "name": "account",
          "type": "address"
        },
        {
          "internalType": "uint256",
          "name": "amount",
          "type": "uint256"
        },
        {
          "internalType": "enum LibPerpetual.Side",
          "name": "direction",
          "type": "uint8"
        }
      ],
      "name": "openPosition",
      "outputs": [
        {
          "internalType": "int256",
          "name": "",
          "type": "int256"
        },
        {
          "internalType": "int256",
          "name": "",
          "type": "int256"
        }
      ],
      "stateMutability": "nonpayable",
      "type": "function"
    },
    {
      "inputs": [],
      "name": "owner",
      "outputs": [
        {
          "internalType": "address",
          "name": "",
          "type": "address"
        }
      ],
      "stateMutability": "view",
      "type": "function"
    },
    {
      "inputs": [],
      "name": "paused",
      "outputs": [
        {
          "internalType": "bool",
          "name": "",
          "type": "bool"
        }
      ],
      "stateMutability": "view",
      "type": "function"
    },
    {
      "inputs": [],
      "name": "pendingOwner",
      "outputs": [
        {
          "internalType": "address",
          "name": "",
          "type": "address"
        }
      ],
      "stateMutability": "view",
      "type": "function"
    },
    {
      "inputs": [],
      "name": "poolTWAPOracle",
      "outputs": [
        {
          "internalType": "contract PoolTWAPOracle",
          "name": "",
          "type": "address"
        }
      ],
      "stateMutability": "view",
      "type": "function"
    },
    {
      "inputs": [
        {
          "internalType": "address",
          "name": "account",
          "type": "address"
        },
        {
          "internalType": "uint256",
          "name": "wadAmount",
          "type": "uint256"
        }
      ],
      "name": "provideLiquidity",
      "outputs": [
        {
          "internalType": "uint256",
          "name": "",
          "type": "uint256"
        }
      ],
      "stateMutability": "nonpayable",
      "type": "function"
    },
    {
      "inputs": [
        {
          "internalType": "address",
          "name": "account",
          "type": "address"
        },
        {
          "internalType": "uint256",
          "name": "amount",
          "type": "uint256"
        }
      ],
      "name": "removeLiquidity",
      "outputs": [],
      "stateMutability": "nonpayable",
      "type": "function"
    },
    {
      "inputs": [
        {
          "internalType": "address",
          "name": "account",
          "type": "address"
        },
        {
          "internalType": "uint256",
          "name": "tentativeVQuoteAmount",
          "type": "uint256"
        }
      ],
      "name": "settleAndWithdrawLiquidity",
      "outputs": [
        {
          "internalType": "int256",
          "name": "profit",
          "type": "int256"
        }
      ],
      "stateMutability": "nonpayable",
      "type": "function"
    },
    {
      "inputs": [
        {
          "internalType": "address",
          "name": "recipient",
          "type": "address"
        },
        {
          "internalType": "bool",
          "name": "direct",
          "type": "bool"
        }
      ],
      "name": "transferOwner",
      "outputs": [],
      "stateMutability": "nonpayable",
      "type": "function"
    },
    {
      "inputs": [],
      "name": "updateFundingRate",
      "outputs": [],
      "stateMutability": "nonpayable",
      "type": "function"
    },
    {
      "inputs": [],
      "name": "updateGenericProtocolState",
      "outputs": [],
      "stateMutability": "nonpayable",
      "type": "function"
    },
    {
      "inputs": [],
      "name": "vBase",
      "outputs": [
        {
          "internalType": "contract IVirtualToken",
          "name": "",
          "type": "address"
        }
      ],
      "stateMutability": "view",
      "type": "function"
    },
    {
      "inputs": [],
      "name": "vQuote",
      "outputs": [
        {
          "internalType": "contract IVirtualToken",
          "name": "",
          "type": "address"
        }
      ],
      "stateMutability": "view",
      "type": "function"
    }
  ],
  "transactionHash": "0xa0876e8a46f44c8171226cc5704b7d9b2ee6b49ccaa6774f11d5167a6d2eb36e",
  "args": [
    "0x050E4F2c2033635408b8677029c100C8Ea3A6592",
    "0x61F02A2662bBd39065aEB4967cF70460145ab493",
    "0x3B8e0E3C0ed49e59D2aEaa2976c1A65dac6B95ac",
    "0x30A51C4D3e9eb736B2037B4bb4860ED2360f1F4f",
    "0xdCAE0d8f673Ce961aB352E96b80cc25f62494DD4",
    "0x63CCd0bdf7A27472040E120722dB64f396d9853f",
    "0x02549770AeE09b73Ca8B3C913f4cF0612F7A01f9"
  ],
  "solcInputHash": "6cc19c32fd6f00ae55276f55201b9520",
  "bytecode": "0x60806040523480156200001157600080fd5b5060405162002e6238038062002e628339810160408190526200003491620002d2565b600080546001600160a01b0319163390811782556040519091907f5bb496b3f951b55d3a1d8e479725a4d25bdc7644fc355f0b71c540354820a1c5908290a36001805460ff60a01b19169055600480546001600160a01b03199081166001600160a01b038a81169190911783556002805483168a8316179055600380548316898316179055600580548316888316908117909155600680548416888416179055600880548416878416908117909155600780549094169286169290921790925560405163095ea7b360e01b81529283015260001960248301529063095ea7b390604401602060405180830381600087803b1580156200013257600080fd5b505af115801562000147573d6000803e3d6000fd5b505050506040513d601f19601f820116820180604052508101906200016d9190620002a9565b620001d35760405162461bcd60e51b815260206004820152602b60248201527f4e4f20415050524f56414c2e20504c5a204348414e4745205448495320544f2060448201526a111554925391c810d0531360aa1b60648201526084015b60405180910390fd5b60065460085460405163095ea7b360e01b81526001600160a01b039182166004820152600019602482015291169063095ea7b390604401602060405180830381600087803b1580156200022557600080fd5b505af11580156200023a573d6000803e3d6000fd5b505050506040513d601f19601f82011682018060405250810190620002609190620002a9565b6200029c5760405162461bcd60e51b815260206004820152600b60248201526a1393c81054141493d5905360aa1b6044820152606401620001ca565b5050505050505062000395565b600060208284031215620002bb578081fd5b81518015158114620002cb578182fd5b9392505050565b600080600080600080600060e0888a031215620002ed578283fd5b8751620002fa816200037c565b60208901519097506200030d816200037c565b604089015190965062000320816200037c565b606089015190955062000333816200037c565b608089015190945062000346816200037c565b60a089015190935062000359816200037c565b60c08901519092506200036c816200037c565b8091505092959891949750929550565b6001600160a01b03811681146200039257600080fd5b50565b612abd80620003a56000396000f3fe608060405234801561001057600080fd5b50600436106101f05760003560e01c806380f556051161010f578063bcbaf487116100a2578063db884c0d11610071578063db884c0d14610468578063dd027c1c14610470578063e30c397814610479578063ef06e72c1461048c57600080fd5b8063bcbaf4871461041c578063c5f1916c1461042f578063cefc499314610442578063cf81afaa1461045557600080fd5b8063b0bb1cea116100de578063b0bb1cea146103d1578063babba240146103d9578063bad5e0e614610401578063bc76ec8a1461040957600080fd5b806380f55605146103545780638da5cb5b146103675780639027b59e1461037a578063a201ccf6146103be57600080fd5b80635c975abb11610187578063704a0c7011610156578063704a0c70146102e4578063742fe1f8146102ec578063793962d8146102ff5780637a8f15eb1461034557600080fd5b80635c975abb146102995780635fea6120146102b657806360551d5f146102c95780636eea8dab146102d157600080fd5b80634bc36bd6116101c35780634bc36bd61461024d578063508fbda614610260578063534f94e314610273578063544305bf1461028657600080fd5b80630af96800146101f557806310bace8c146102255780633bd1adec1461023b57806345a1538814610245575b600080fd5b600754610208906001600160a01b031681565b6040516001600160a01b0390911681526020015b60405180910390f35b61022d61049f565b60405190815260200161021c565b61024361052c565b005b61022d6105d7565b600654610208906001600160a01b031681565b61022d61026e366004612772565b61061c565b600354610208906001600160a01b031681565b61022d610294366004612772565b6106ab565b600154600160a01b900460ff16604051901515815260200161021c565b61022d6102c43660046127c6565b610790565b61022d610b92565b61022d6102df3660046127c6565b610bd7565b61022d600181565b61022d6102fa3660046127c6565b610c60565b61031261030d366004612772565b610d16565b60405161021c91908151815260208083015190820152604080830151908201526060918201519181019190915260800190565b61022d670de0b6b3a764000081565b600854610208906001600160a01b031681565b600054610208906001600160a01b031681565b610382610d8f565b60405161021c9190815181526020808301516001600160801b031690820152604080830151908201526060918201519181019190915260800190565b6102436103cc3660046127c6565b610df9565b61024361125c565b6103ec6103e73660046127ef565b61145e565b6040805192835260208301919091520161021c565b61024361164c565b600254610208906001600160a01b031681565b61022d61042a3660046127c6565b611726565b600554610208906001600160a01b031681565b610312610450366004612772565b61178c565b61024361046336600461278c565b611805565b61022d600081565b61022d61038481565b600154610208906001600160a01b031681565b600454610208906001600160a01b031681565b6000600460009054906101000a90046001600160a01b03166001600160a01b03166358c0994a6040518163ffffffff1660e01b815260040160206040518083038186803b1580156104ef57600080fd5b505afa158015610503573d6000803e3d6000fd5b505050506040513d601f19601f820116820180604052508101906105279190612831565b905090565b6001546001600160a01b0316331461057f5760405162461bcd60e51b81526020600482015260116024820152702727aa2fa822a72224a723afa7aba722a960791b60448201526064015b60405180910390fd5b6000805460405133926001600160a01b03909216917f5bb496b3f951b55d3a1d8e479725a4d25bdc7644fc355f0b71c540354820a1c591a3600080546001600160a01b03199081163317909155600180549091169055565b60085460408051633051afe560e21b815290516000926001600160a01b03169163c146bf94916004808301926020929190829003018186803b1580156104ef57600080fd5b6001600160a01b0381166000908152600d6020908152604080832081516080808201845282548252600183015482860152600283015482850152600390920154606080830191909152835192830184526009548352600a546001600160801b031694830194909452600b5492820192909252600c5492810192909252906106a3828261192f565b949350505050565b6001600160a01b038082166000908152600d6020908152604080832081516080810183528154815260018201548185015260028083015482850152600390920154606082015290548251632fec2f7160e11b815292519495919486949190921692635fd85ee29260048083019392829003018186803b15801561072d57600080fd5b505afa158015610741573d6000803e3d6000fd5b505050506040513d601f19601f820116820180604052508101906107659190612831565b905060006107778360200151836119b7565b83519091506107879082906128eb565b95945050505050565b6007546000906001600160a01b031633146107bd5760405162461bcd60e51b81526004016105769061288d565b816107f85760405162461bcd60e51b815260206004820152600b60248201526a16995c9bc8185b5bdd5b9d60aa1b6044820152606401610576565b6001600160a01b0383166000908152600e6020526040902060030154156108615760405162461bcd60e51b815260206004820152601d60248201527f4861732070726f7669646564206c6971756964697479206265666f72650000006044820152606401610576565b6000600f5460001415610885576108766105d7565b905061088061164c565b610987565b600854604051634903b0d160e01b815260006004820152610984916001600160a01b031690634903b0d19060240160206040518083038186803b1580156108cb57600080fd5b505afa1580156108df573d6000803e3d6000fd5b505050506040513d601f19601f820116820180604052508101906109039190612831565b600854604051634903b0d160e01b8152600160048201526001600160a01b0390911690634903b0d19060240160206040518083038186803b15801561094757600080fd5b505afa15801561095b573d6000803e3d6000fd5b505050506040513d601f19601f8201168201806040525081019061097f9190612831565b6119ca565b90505b600061099384836119ca565b60065460405163140e25ad60e31b8152600481018790529192506001600160a01b03169063a0712d6890602401600060405180830381600087803b1580156109da57600080fd5b505af11580156109ee573d6000803e3d6000fd5b505060055460405163140e25ad60e31b8152600481018590526001600160a01b03909116925063a0712d689150602401600060405180830381600087803b158015610a3857600080fd5b505af1158015610a4c573d6000803e3d6000fd5b5050600854604080518082018252888152602081018690529051630b4c7e4d60e01b8152600094506001600160a01b039092169250630b4c7e4d91610a9691908590600401612872565b602060405180830381600087803b158015610ab057600080fd5b505af1158015610ac4573d6000803e3d6000fd5b505050506040513d601f19601f82011682018060405250810190610ae89190612831565b90506040518060800160405280610afe876119d6565b610b0790612a57565b8152602001610b15846119d6565b610b1e90612a57565b8152600c5460208083019190915260409182018490526001600160a01b0389166000908152600e825282812084518155918401516001830155918301516002820155606090920151600390920191909155600f8054839290610b8190849061292c565b909155509193505050505b92915050565b600854604080516386fc88d360e01b815290516000926001600160a01b0316916386fc88d3916004808301926020929190829003018186803b1580156104ef57600080fd5b6007546000906001600160a01b03163314610c045760405162461bcd60e51b81526004016105769061288d565b6001600160a01b0383166000908152600e602052604090206009610c29828286611a44565b6001600160a01b039095166000908152600e6020526040812081815560018101829055600281018290556003015550929392505050565b6001600160a01b0382166000908152600d602052604081208054600990610cc95760405162461bcd60e51b815260206004820152601c60248201527f4e6f20706f736974696f6e2063757272656e746c79206f70656e6564000000006044820152606401610576565b610cd161164c565b6000610cde838387611a44565b6001600160a01b0387166000908152600d60205260408120818155600181018290556002810182905560030155935050505092915050565b610d416040518060800160405280600081526020016000815260200160008152602001600081525090565b506001600160a01b03166000908152600d6020908152604091829020825160808101845281548152600182015492810192909252600281015492820192909252600390910154606082015290565b610dc360405180608001604052806000815260200160006001600160801b0316815260200160008152602001600081525090565b50604080516080810182526009548152600a546001600160801b03166020820152600b5491810191909152600c54606082015290565b6007546001600160a01b03163314610e235760405162461bcd60e51b81526004016105769061288d565b6001600160a01b0382166000908152600e602052604090206003810154821115610e8f5760405162461bcd60e51b815260206004820152601d60248201527f4e6f7420656e6f756768206c69717569646974792070726f76696465640000006044820152606401610576565b81816003016000828254610ea39190612a40565b9250508190555081600f6000828254610ebc9190612a40565b90915550506006546040516370a0823160e01b8152306004820152600091829182916001600160a01b0316906370a082319060240160206040518083038186803b158015610f0957600080fd5b505afa158015610f1d573d6000803e3d6000fd5b505050506040513d601f19601f82011682018060405250810190610f419190612831565b6005546040516370a0823160e01b81523060048201529192506000916001600160a01b03909116906370a082319060240160206040518083038186803b158015610f8a57600080fd5b505afa158015610f9e573d6000803e3d6000fd5b505050506040513d601f19601f82011682018060405250810190610fc29190612831565b6008546040805180820182526000808252602082015290516316cd8e2760e21b81529293506001600160a01b0390911691635b36389c91611008918a91906004016128d7565b600060405180830381600087803b15801561102257600080fd5b505af1158015611036573d6000803e3d6000fd5b50506006546040516370a0823160e01b8152306004820152600093506001600160a01b0390911691506370a082319060240160206040518083038186803b15801561108057600080fd5b505afa158015611094573d6000803e3d6000fd5b505050506040513d601f19601f820116820180604052508101906110b89190612831565b6005546040516370a0823160e01b81523060048201529192506000916001600160a01b03909116906370a082319060240160206040518083038186803b15801561110157600080fd5b505afa158015611115573d6000803e3d6000fd5b505050506040513d601f19601f820116820180604052508101906111399190612831565b90506111458483612a40565b94506111518382612a40565b600654604051630852cd8d60e31b8152600481018890529197506001600160a01b0316906342966c6890602401600060405180830381600087803b15801561119857600080fd5b505af11580156111ac573d6000803e3d6000fd5b5050600554604051630852cd8d60e31b8152600481018a90526001600160a01b0390911692506342966c689150602401600060405180830381600087803b1580156111f657600080fd5b505af115801561120a573d6000803e3d6000fd5b505050505050505061121b816119d6565b83600001600082825461122e91906128eb565b9091555061123d9050826119d6565b83600101600082825461125091906128eb565b90915550505050505050565b600a5460099042906001600160801b0316808211156114595760025460408051632fec2f7160e11b815290516000926001600160a01b031691635fd85ee2916004808301926020929190829003018186803b1580156112ba57600080fd5b505afa1580156112ce573d6000803e3d6000fd5b505050506040513d601f19601f820116820180604052508101906112f29190612831565b90506000600360009054906101000a90046001600160a01b03166001600160a01b0316635fd85ee26040518163ffffffff1660e01b815260040160206040518083038186803b15801561134457600080fd5b505afa158015611358573d6000803e3d6000fd5b505050506040513d601f19601f8201168201806040525081019061137c9190612831565b9050600061139361138d8385612a01565b83611be6565b600187015490915060009082906113bc906113b7906001600160801b031689612a40565b6119d6565b6113c6919061297e565b60018801549091506000906113e8906113b7906001600160801b031689612a40565b90506201518081611401670de0b6b3a7640000856119b7565b61140b919061297e565b6114159190612944565b88600301600082825461142891906128eb565b909155505050506001860180546fffffffffffffffffffffffffffffffff19166001600160801b0387161790555050505b505050565b60075460009081906001600160a01b0316331461148d5760405162461bcd60e51b81526004016105769061288d565b600084116114dd5760405162461bcd60e51b815260206004820152601860248201527f54686520616d6f756e742063616e2774206265206e756c6c00000000000000006044820152606401610576565b6001600160a01b0385166000908152600d6020526040902054156115775760405162461bcd60e51b8152602060048201526044602482018190527f43616e6e6f74206f70656e206120706f736974696f6e2077697468206f6e6520908201527f616c7265616479206f70656e6564206f72206c69717569646974792070726f766064820152631a59195960e21b608482015260a401610576565b61157f61164c565b6000808460018111156115a257634e487b7160e01b600052602160045260246000fd5b146115ae5760006115b1565b60015b90506000806115c08784611bf2565b91509150604051806080016040528083815260200182815260200160096003015481526020016000815250600d60008a6001600160a01b03166001600160a01b0316815260200190815260200160002060008201518160000155602082015181600101556040820151816002015560608201518160030155905050818194509450505050935093915050565b600360009054906101000a90046001600160a01b03166001600160a01b031663e3ad64c86040518163ffffffff1660e01b8152600401600060405180830381600087803b15801561169c57600080fd5b505af11580156116b0573d6000803e3d6000fd5b50505050600260009054906101000a90046001600160a01b03166001600160a01b031663e3ad64c86040518163ffffffff1660e01b8152600401600060405180830381600087803b15801561170457600080fd5b505af1158015611718573d6000803e3d6000fd5b5050505061172461125c565b565b6007546000906001600160a01b031633146117535760405162461bcd60e51b81526004016105769061288d565b61175b61164c565b6001600160a01b0383166000908152600d6020526040812090600990611782838387611a44565b9695505050505050565b6117b76040518060800160405280600081526020016000815260200160008152602001600081525090565b506001600160a01b03166000908152600e6020908152604091829020825160808101845281548152600182015492810192909252600281015492820192909252600390910154606082015290565b6000546001600160a01b0316331461184b5760405162461bcd60e51b81526020600482015260096024820152682727aa2fa7aba722a960b91b6044820152606401610576565b6001600160a01b0382166118905760405162461bcd60e51b815260206004820152600c60248201526b5a45524f5f4144445245535360a01b6044820152606401610576565b80156118e257600080546001600160a01b0319166001600160a01b0384169081178255604051909133917f5bb496b3f951b55d3a1d8e479725a4d25bdc7644fc355f0b71c540354820a1c59190a35050565b600180546001600160a01b0319166001600160a01b03841690811790915560405133907f87f5c8846f4c51400fa448cfb84edcec5cc0f333b6d20a5b903e050823dcb66790600090a35050565b6000806000905060008085602001511361194a57600061194d565b60015b905083606001518560400151146119af57801561197f57836060015185604001516119789190612a01565b9150611996565b846040015184606001516119939190612a01565b91505b6119ac826119a78760000151611c50565b6119b7565b92505b505092915050565b60006119c38383611c5b565b9392505050565b60006119c38383611d20565b60006001600160ff1b03821115611a405760405162461bcd60e51b815260206004820152602860248201527f53616665436173743a2076616c756520646f65736e27742066697420696e2061604482015267371034b73a191a9b60c11b6064820152608401610576565b5090565b6000806000856001015412611a5a576000611a5d565b60015b90508015611ba95760025460408051632fec2f7160e11b815290516000926001600160a01b031691635fd85ee2916004808301926020929190829003018186803b158015611aaa57600080fd5b505afa158015611abe573d6000803e3d6000fd5b505050506040513d601f19601f82011682018060405250810190611ae29190612831565b905060008660010154611af490612a57565b90506000611b0283836119b7565b90506000611b2561138d83611b168a6119d6565b611b209190612a01565b611c50565b90506706f05b59d3b200008112611ba45760405162461bcd60e51b815260206004820152603e60248201527f416d6f756e74207375626d697474656420746f6f206661722066726f6d20746860448201527f65206d61726b6574207072696365206f662074686520706f736974696f6e00006064820152608401610576565b505050505b611bb38585611d35565b611bbd90836128eb565b91508460000154611bd2866001015485611dfe565b611bdc91906128eb565b61078790836128eb565b60006119c38383611f20565b6000808215611c2457611c04846119d6565b611c0d90612a57565b9150611c1d6113b7856000611fe6565b9050611c49565b611c326113b78560006122ac565b9150611c3d846119d6565b611c4690612a57565b90505b9250929050565b6000610b8c8261252b565b6000600160ff1b831480611c725750600160ff1b82145b15611c9057604051630d01a11b60e21b815260040160405180910390fd5b60008060008512611ca15784611ca6565b846000035b915060008412611cb65783611cbb565b836000035b90506000611cc98383612567565b90506001600160ff1b03811115611cf65760405163bf79e8d960e01b815260048101829052602401610576565b600019808713908613808218600114611d0f5782611d14565b826000035b98975050505050505050565b60006119c383670de0b6b3a764000084612629565b815460009015611dec57604080516080808201835285548252600180870154602080850191909152600280890154858701526003808a01546060808801919091528751958601885289548652938901546001600160801b031692850192909252870154948301949094529285015492810192909252611db39161192f565b60405181815290915033907f80e0390293518f32f7dd0263110e1ad3993a790da199ee8d2d931eb66265bd9b9060200160405180910390a25b60039091015460029092019190915590565b60008060008413611e10576000611e13565b60015b9050600081611e3257611e2d611e2886612a57565b612704565b611e3b565b611e3b85612704565b90508115611e63576000611e508260006122ac565b9050611e5b816119d6565b9350506119af565b6000611e70856000611fe6565b905081811015611ed75760405162461bcd60e51b815260206004820152602c60248201527f4e6f7420656e6f7567682072657475726e65642c2070726f706f73656420616d60448201526b6f756e7420746f6f206c6f7760a01b6064820152608401610576565b6000611ee38383612a40565b905060008115611efb57611ef88260006122ac565b90505b611f04816119d6565b611f0d886119d6565b611f1690612a57565b611d1491906128eb565b6000600160ff1b831480611f375750600160ff1b82145b15611f555760405163b3c754a360e01b815260040160405180910390fd5b60008060008512611f665784611f6b565b846000035b915060008412611f7b5783611f80565b836000035b90506000611f9783670de0b6b3a764000084612629565b90506001600160ff1b03811115611fc457604051637cb4bef560e01b815260048101829052602401610576565b600019808713908613808218600114611fdd5782611d14565b611d1483612a57565b60085460405163556d6e9f60e01b81526000600482018190526001602483015260448201859052916001600160a01b03169063556d6e9f9060640160206040518083038186803b15801561203957600080fd5b505afa925050508015612069575060408051601f3d908101601f1916820190925261206691810190612831565b60015b61214e577fcf34ef537ac33ee1ac626ca1587a0a7e8e51561e5514f8cb36afa1c5102b3bab60405161213e9060208082526078908201527f496e636f727265637420616d6f756e742c207375626d6974206120626967676560408201527f722076616c7565206f72206f6e65206d61746368696e67206d6f726520636c6f60608201527f73656c792074686520616d6f756e74206f66207651756f7465206e656564656460808201527f20746f20706572666f726d207468652065786368616e6765000000000000000060a082015260c00190565b60405180910390a1506000610b8c565b5060065460405163140e25ad60e31b8152600481018590526001600160a01b039091169063a0712d6890602401600060405180830381600087803b15801561219557600080fd5b505af11580156121a9573d6000803e3d6000fd5b5050600854604051630b68372160e31b815260006004820181905260016024830152604482018890526064820187905293506001600160a01b039091169150635b41b90890608401602060405180830381600087803b15801561220b57600080fd5b505af115801561221f573d6000803e3d6000fd5b505050506040513d601f19601f820116820180604052508101906122439190612831565b600554604051630852cd8d60e31b8152600481018390529192506001600160a01b0316906342966c68906024015b600060405180830381600087803b15801561228b57600080fd5b505af115801561229f573d6000803e3d6000fd5b5050505080915050610b8c565b60085460405163556d6e9f60e01b81526001600482015260006024820181905260448201859052916001600160a01b03169063556d6e9f9060640160206040518083038186803b1580156122ff57600080fd5b505afa92505050801561232f575060408051601f3d908101601f1916820190925261232c91810190612831565b60015b612404577fcf34ef537ac33ee1ac626ca1587a0a7e8e51561e5514f8cb36afa1c5102b3bab60405161213e9060208082526077908201527f496e636f727265637420616d6f756e742c207375626d6974206120626967676560408201527f722076616c7565206f72206f6e65206d61746368696e67206d6f726520636c6f60608201527f73656c792074686520616d6f756e74206f66207642617365206e65656465642060808201527f746f20706572666f726d207468652065786368616e676500000000000000000060a082015260c00190565b5060055460405163140e25ad60e31b8152600481018590526001600160a01b039091169063a0712d6890602401600060405180830381600087803b15801561244b57600080fd5b505af115801561245f573d6000803e3d6000fd5b5050600854604051630b68372160e31b815260016004820152600060248201819052604482018890526064820187905293506001600160a01b039091169150635b41b90890608401602060405180830381600087803b1580156124c157600080fd5b505af11580156124d5573d6000803e3d6000fd5b505050506040513d601f19601f820116820180604052508101906124f99190612831565b600654604051630852cd8d60e31b8152600481018390529192506001600160a01b0316906342966c6890602401612271565b6000600160ff1b82141561255257604051631d0742e360e21b815260040160405180910390fd5b600082126125605781610b8c565b5060000390565b60008080600019848609848602925082811083820303915050670de0b6b3a764000081106125ab5760405163698d9a0160e11b815260048101829052602401610576565b600080670de0b6b3a76400008688099150506706f05b59d3b1ffff8111826125e55780670de0b6b3a7640000850401945050505050610b8c565b620400008285030493909111909103600160ee1b02919091177faccb18165bd6fe31ae1cf318dc5b51eee0e1ba569b88cd74c1773b91fac106690201905092915050565b6000808060001985870985870292508281108382030391505080600014156126725783828161266857634e487b7160e01b600052601260045260246000fd5b04925050506119c3565b83811061269c57604051631dcf306360e21b81526004810182905260248101859052604401610576565b600084868809600260036001881981018916988990049182028318808302840302808302840302808302840302808302840302808302840302918202909203026000889003889004909101858311909403939093029303949094049190911702949350505050565b600080821215611a405760405162461bcd60e51b815260206004820181905260248201527f53616665436173743a2076616c7565206d75737420626520706f7369746976656044820152606401610576565b80356001600160a01b038116811461276d57600080fd5b919050565b600060208284031215612783578081fd5b6119c382612756565b6000806040838503121561279e578081fd5b6127a783612756565b9150602083013580151581146127bb578182fd5b809150509250929050565b600080604083850312156127d8578182fd5b6127e183612756565b946020939093013593505050565b600080600060608486031215612803578081fd5b61280c84612756565b925060208401359150604084013560028110612826578182fd5b809150509250925092565b600060208284031215612842578081fd5b5051919050565b8060005b600281101561286c57815184526020938401939091019060010161284d565b50505050565b606081016128808285612849565b8260408301529392505050565b6020808252602a908201527f4f6e6c7920636c656172696e6720686f7573652063616e2063616c6c207468696040820152693990333ab731ba34b7b760b11b606082015260800190565b828152606081016119c36020830184612849565b600080821280156001600160ff1b038490038513161561290d5761290d612a71565b600160ff1b839003841281161561292657612926612a71565b50500190565b6000821982111561293f5761293f612a71565b500190565b60008261295f57634e487b7160e01b81526012600452602481fd5b600160ff1b82146000198414161561297957612979612a71565b500590565b60006001600160ff1b03818413828413808216868404861116156129a4576129a4612a71565b600160ff1b848712828116878305891216156129c2576129c2612a71565b8587129250878205871284841616156129dd576129dd612a71565b878505871281841616156129f3576129f3612a71565b505050929093029392505050565b60008083128015600160ff1b850184121615612a1f57612a1f612a71565b6001600160ff1b0384018313811615612a3a57612a3a612a71565b50500390565b600082821015612a5257612a52612a71565b500390565b6000600160ff1b821415612a6d57612a6d612a71565b0390565b634e487b7160e01b600052601160045260246000fdfea264697066735822122082b15d4ecd7180f836023a9ea0809cbe46698d4e39e3b7b59c1d35a7ba13dac664736f6c63430008040033",
  "devdoc": {
    "kind": "dev",
    "methods": {
      "closePosition(address,uint256)": {
        "params": {
          "tentativeVQuoteAmount": "Amount of vQuote tokens to be sold for SHORT positions (anything works for LONG position)"
        }
      },
      "liquidate(address,uint256)": {
        "params": {
          "tentativeVQuoteAmount": "Amount of vQuote tokens to be sold for SHORT positions (anything works for LONG position)"
        }
      },
      "openPosition(address,uint256,uint8)": {
        "details": "No number for the leverage is given but the amount in the vault must be bigger than MIN_MARGIN_AT_CREATIONNo checks are done if bought amount exceeds allowance",
        "params": {
          "amount": "to be sold, in vQuote (if long) or vBase (if short)"
        }
      },
      "paused()": {
        "details": "Returns true if the contract is paused, and false otherwise."
      },
      "provideLiquidity(address,uint256)": {
        "params": {
          "account": "liquidity provider",
          "wadAmount": "amount of vQuote provided with 1e18 precision"
        }
      },
      "removeLiquidity(address,uint256)": {
        "params": {
          "amount": "of liquidity to be removed from the pool (with 18 decimals)"
        }
      },
      "settleAndWithdrawLiquidity(address,uint256)": {
        "params": {
          "tentativeVQuoteAmount": "at which to buy the LP position (if it looks like a short, more vQuote than vBase)"
        }
      },
      "transferOwner(address,bool)": {
        "params": {
          "direct": "If 'true', ownership is directly transferred.",
          "recipient": "Account granted `owner` access control."
        }
      }
    },
    "version": 1
  },
  "userdoc": {
    "errors": {
      "PRBMathSD59x18__AbsInputTooSmall()": [
        {
          "notice": "Emitted when the input is MIN_SD59x18."
        }
      ],
      "PRBMathSD59x18__DivInputTooSmall()": [
        {
          "notice": "Emitted when one of the inputs is MIN_SD59x18."
        }
      ],
      "PRBMathSD59x18__DivOverflow(uint256)": [
        {
          "notice": "Emitted when one of the intermediary unsigned results overflows SD59x18."
        }
      ],
      "PRBMathSD59x18__MulInputTooSmall()": [
        {
          "notice": "Emitted when one of the inputs is MIN_SD59x18."
        }
      ],
      "PRBMathSD59x18__MulOverflow(uint256)": [
        {
          "notice": "Emitted when the intermediary absolute result overflows SD59x18."
        }
      ],
      "PRBMath__MulDivFixedPointOverflow(uint256)": [
        {
          "notice": "Emitted when the result overflows uint256."
        }
      ],
      "PRBMath__MulDivOverflow(uint256,uint256)": [
        {
          "notice": "Emitted when the result overflows uint256."
        }
      ]
    },
    "kind": "user",
    "methods": {
      "claimOwner()": {
        "notice": "`pendingOwner` can claim `owner` account."
      },
      "closePosition(address,uint256)": {
        "notice": "Closes position from account holder"
      },
      "indexPrice()": {
        "notice": "Return the current off-chain exchange rate for vBase/vQuote"
      },
      "marketPrice()": {
        "notice": "Return the last traded price (used for TWAP)"
      },
      "marketPriceOracle()": {
        "notice": "Return the curve price oracle"
      },
      "openPosition(address,uint256,uint8)": {
        "notice": "Open position, long or short"
      },
      "provideLiquidity(address,uint256)": {
        "notice": "Provide liquidity to the pool"
      },
      "removeLiquidity(address,uint256)": {
        "notice": "Remove liquidity from the pool (but don't close LP position and withdraw amount)"
      },
      "settleAndWithdrawLiquidity(address,uint256)": {
        "notice": "Remove liquidity from the pool (but don't close LP position and withdraw amount)"
      },
      "transferOwner(address,bool)": {
        "notice": "Transfer `owner` account."
      },
      "updateFundingRate()": {
        "notice": "Calculate the funding rate for the current block"
      }
    },
    "version": 1
  },
  "storageLayout": {
    "storage": [
      {
        "astId": 7817,
        "contract": "contracts/Perpetual.sol:Perpetual",
        "label": "owner",
        "offset": 0,
        "slot": "0",
        "type": "t_address"
      },
      {
        "astId": 7819,
        "contract": "contracts/Perpetual.sol:Perpetual",
        "label": "pendingOwner",
        "offset": 0,
        "slot": "1",
        "type": "t_address"
      },
      {
        "astId": 536,
        "contract": "contracts/Perpetual.sol:Perpetual",
        "label": "_paused",
        "offset": 20,
        "slot": "1",
        "type": "t_bool"
      },
      {
        "astId": 3649,
        "contract": "contracts/Perpetual.sol:Perpetual",
        "label": "poolTWAPOracle",
        "offset": 0,
        "slot": "2",
        "type": "t_contract(PoolTWAPOracle)7273"
      },
      {
        "astId": 3653,
        "contract": "contracts/Perpetual.sol:Perpetual",
        "label": "chainlinkTWAPOracle",
        "offset": 0,
        "slot": "3",
        "type": "t_contract(ChainlinkTWAPOracle)7118"
      },
      {
        "astId": 3657,
        "contract": "contracts/Perpetual.sol:Perpetual",
        "label": "chainlinkOracle",
        "offset": 0,
        "slot": "4",
        "type": "t_contract(IChainlinkOracle)5505"
      },
      {
        "astId": 3661,
        "contract": "contracts/Perpetual.sol:Perpetual",
        "label": "vBase",
        "offset": 0,
        "slot": "5",
        "type": "t_contract(IVirtualToken)6130"
      },
      {
        "astId": 3665,
        "contract": "contracts/Perpetual.sol:Perpetual",
        "label": "vQuote",
        "offset": 0,
        "slot": "6",
        "type": "t_contract(IVirtualToken)6130"
      },
      {
        "astId": 3669,
        "contract": "contracts/Perpetual.sol:Perpetual",
        "label": "clearingHouse",
        "offset": 0,
        "slot": "7",
        "type": "t_contract(IClearingHouse)5620"
      },
      {
        "astId": 3673,
        "contract": "contracts/Perpetual.sol:Perpetual",
        "label": "market",
        "offset": 0,
        "slot": "8",
        "type": "t_contract(ICryptoSwap)5690"
      },
      {
        "astId": 3676,
        "contract": "contracts/Perpetual.sol:Perpetual",
        "label": "globalPosition",
        "offset": 0,
        "slot": "9",
        "type": "t_struct(GlobalPosition)6296_storage"
      },
      {
        "astId": 3681,
        "contract": "contracts/Perpetual.sol:Perpetual",
        "label": "traderPosition",
        "offset": 0,
        "slot": "13",
        "type": "t_mapping(t_address,t_struct(UserPosition)6287_storage)"
      },
      {
        "astId": 3686,
        "contract": "contracts/Perpetual.sol:Perpetual",
        "label": "lpPosition",
        "offset": 0,
        "slot": "14",
        "type": "t_mapping(t_address,t_struct(UserPosition)6287_storage)"
      },
      {
        "astId": 3688,
        "contract": "contracts/Perpetual.sol:Perpetual",
        "label": "totalLiquidityProvided",
        "offset": 0,
        "slot": "15",
        "type": "t_uint256"
      }
    ],
    "types": {
      "t_address": {
        "encoding": "inplace",
        "label": "address",
        "numberOfBytes": "20"
      },
      "t_bool": {
        "encoding": "inplace",
        "label": "bool",
        "numberOfBytes": "1"
      },
      "t_contract(ChainlinkTWAPOracle)7118": {
        "encoding": "inplace",
        "label": "contract ChainlinkTWAPOracle",
        "numberOfBytes": "20"
      },
      "t_contract(IChainlinkOracle)5505": {
        "encoding": "inplace",
        "label": "contract IChainlinkOracle",
        "numberOfBytes": "20"
      },
      "t_contract(IClearingHouse)5620": {
        "encoding": "inplace",
        "label": "contract IClearingHouse",
        "numberOfBytes": "20"
      },
      "t_contract(ICryptoSwap)5690": {
        "encoding": "inplace",
        "label": "contract ICryptoSwap",
        "numberOfBytes": "20"
      },
      "t_contract(IVirtualToken)6130": {
        "encoding": "inplace",
        "label": "contract IVirtualToken",
        "numberOfBytes": "20"
      },
      "t_contract(PoolTWAPOracle)7273": {
        "encoding": "inplace",
        "label": "contract PoolTWAPOracle",
        "numberOfBytes": "20"
      },
      "t_int256": {
        "encoding": "inplace",
        "label": "int256",
        "numberOfBytes": "32"
      },
      "t_mapping(t_address,t_struct(UserPosition)6287_storage)": {
        "encoding": "mapping",
        "key": "t_address",
        "label": "mapping(address => struct LibPerpetual.UserPosition)",
        "numberOfBytes": "32",
        "value": "t_struct(UserPosition)6287_storage"
      },
      "t_struct(GlobalPosition)6296_storage": {
        "encoding": "inplace",
        "label": "struct LibPerpetual.GlobalPosition",
        "members": [
          {
            "astId": 6289,
            "contract": "contracts/Perpetual.sol:Perpetual",
            "label": "cumTradePremium",
            "offset": 0,
            "slot": "0",
            "type": "t_int256"
          },
          {
            "astId": 6291,
            "contract": "contracts/Perpetual.sol:Perpetual",
            "label": "timeOfLastTrade",
            "offset": 0,
            "slot": "1",
            "type": "t_uint128"
          },
          {
            "astId": 6293,
            "contract": "contracts/Perpetual.sol:Perpetual",
            "label": "premium",
            "offset": 0,
            "slot": "2",
            "type": "t_int256"
          },
          {
            "astId": 6295,
            "contract": "contracts/Perpetual.sol:Perpetual",
            "label": "cumFundingRate",
            "offset": 0,
            "slot": "3",
            "type": "t_int256"
          }
        ],
        "numberOfBytes": "128"
      },
      "t_struct(UserPosition)6287_storage": {
        "encoding": "inplace",
        "label": "struct LibPerpetual.UserPosition",
        "members": [
          {
            "astId": 6280,
            "contract": "contracts/Perpetual.sol:Perpetual",
            "label": "openNotional",
            "offset": 0,
            "slot": "0",
            "type": "t_int256"
          },
          {
            "astId": 6282,
            "contract": "contracts/Perpetual.sol:Perpetual",
            "label": "positionSize",
            "offset": 0,
            "slot": "1",
            "type": "t_int256"
          },
          {
            "astId": 6284,
            "contract": "contracts/Perpetual.sol:Perpetual",
            "label": "cumFundingRate",
            "offset": 0,
            "slot": "2",
            "type": "t_int256"
          },
          {
            "astId": 6286,
            "contract": "contracts/Perpetual.sol:Perpetual",
            "label": "liquidityBalance",
            "offset": 0,
            "slot": "3",
            "type": "t_uint256"
          }
        ],
        "numberOfBytes": "128"
      },
      "t_uint128": {
        "encoding": "inplace",
        "label": "uint128",
        "numberOfBytes": "16"
      },
      "t_uint256": {
        "encoding": "inplace",
        "label": "uint256",
        "numberOfBytes": "32"
      }
    }
  }
}